{
  "transactions": [
    {
      "hash": "0x7762aa4df91f86557541be3d3e4b27360b5356ae20078180b1256e8ab9dd9fa6",
      "transactionType": "CALL",
      "contractName": null,
      "contractAddress": "0x6c7ab2202c98c4227c5c46f1417d81144da716ff",
      "function": "setConfig(address,address,(uint32,uint32,bytes)[])",
      "arguments": [
        "0x5C368bd6cE77b2ca47B4ba791fCC1f1645591c84",
        "0xcF1B0F4106B0324F96fEfcC31bA9498caa80701C",
        "[(40434, 2, 0x0000000000000000000000000000000000000000000000000000000000000020000000000000000000000000000000000000000000000000000000000000000f000000000000000000000000000000000000000000000000000000000000000100000000000000000000000000000000000000000000000000000000000000ff000000000000000000000000000000000000000000000000000000000000000000000000000000000000000000000000000000000000000000000000000000c00000000000000000000000000000000000000000000000000000000000000100000000000000000000000000000000000000000000000000000000000000000100000000000000000000000088b27057a9e00c5f05dda29241027aff63f9e6e00000000000000000000000000000000000000000000000000000000000000000), (40245, 2, 0x0000000000000000000000000000000000000000000000000000000000000020000000000000000000000000000000000000000000000000000000000000000f000000000000000000000000000000000000000000000000000000000000000100000000000000000000000000000000000000000000000000000000000000ff000000000000000000000000000000000000000000000000000000000000000000000000000000000000000000000000000000000000000000000000000000c00000000000000000000000000000000000000000000000000000000000000100000000000000000000000000000000000000000000000000000000000000000100000000000000000000000088b27057a9e00c5f05dda29241027aff63f9e6e00000000000000000000000000000000000000000000000000000000000000000)]"
      ],
      "transaction": {
        "from": "0x0ece75f3c36f7df2136dac7633165dbff53de3cd",
        "to": "0x6c7ab2202c98c4227c5c46f1417d81144da716ff",
        "gas": "0x4765d",
        "value": "0x0",
        "input": "0x6dbd9f900000000000000000000000005c368bd6ce77b2ca47b4ba791fcc1f1645591c84000000000000000000000000cf1b0f4106b0324f96fefcc31ba9498caa80701c00000000000000000000000000000000000000000000000000000000000000600000000000000000000000000000000000000000000000000000000000000002000000000000000000000000000000000000000000000000000000000000004000000000000000000000000000000000000000000000000000000000000002000000000000000000000000000000000000000000000000000000000000009df20000000000000000000000000000000000000000000000000000000000000002000000000000000000000000000000000000000000000000000000000000006000000000000000000000000000000000000000000000000000000000000001400000000000000000000000000000000000000000000000000000000000000020000000000000000000000000000000000000000000000000000000000000000f000000000000000000000000000000000000000000000000000000000000000100000000000000000000000000000000000000000000000000000000000000ff000000000000000000000000000000000000000000000000000000000000000000000000000000000000000000000000000000000000000000000000000000c00000000000000000000000000000000000000000000000000000000000000100000000000000000000000000000000000000000000000000000000000000000100000000000000000000000088b27057a9e00c5f05dda29241027aff63f9e6e000000000000000000000000000000000000000000000000000000000000000000000000000000000000000000000000000000000000000000000000000009d350000000000000000000000000000000000000000000000000000000000000002000000000000000000000000000000000000000000000000000000000000006000000000000000000000000000000000000000000000000000000000000001400000000000000000000000000000000000000000000000000000000000000020000000000000000000000000000000000000000000000000000000000000000f000000000000000000000000000000000000000000000000000000000000000100000000000000000000000000000000000000000000000000000000000000ff000000000000000000000000000000000000000000000000000000000000000000000000000000000000000000000000000000000000000000000000000000c00000000000000000000000000000000000000000000000000000000000000100000000000000000000000000000000000000000000000000000000000000000100000000000000000000000088b27057a9e00c5f05dda29241027aff63f9e6e00000000000000000000000000000000000000000000000000000000000000000",
        "nonce": "0x1b",
        "chainId": "0x4cef52"
      },
      "additionalContracts": [],
      "isFixedGasLimit": false
    },
    {
      "hash": "0x500dca210f78d443a15a343a69ff26b6c9ca5b3280df09aef21f1c4a2314b6c2",
      "transactionType": "CALL",
      "contractName": null,
      "contractAddress": "0x6c7ab2202c98c4227c5c46f1417d81144da716ff",
      "function": "setConfig(address,address,(uint32,uint32,bytes)[])",
      "arguments": [
        "0x39926DA4905f5Edb956F5dB5F2e2FF044E0882B2",
        "0xcF1B0F4106B0324F96fEfcC31bA9498caa80701C",
        "[(40434, 2, 0x0000000000000000000000000000000000000000000000000000000000000020000000000000000000000000000000000000000000000000000000000000000f000000000000000000000000000000000000000000000000000000000000000100000000000000000000000000000000000000000000000000000000000000ff000000000000000000000000000000000000000000000000000000000000000000000000000000000000000000000000000000000000000000000000000000c00000000000000000000000000000000000000000000000000000000000000100000000000000000000000000000000000000000000000000000000000000000100000000000000000000000088b27057a9e00c5f05dda29241027aff63f9e6e00000000000000000000000000000000000000000000000000000000000000000), (40245, 2, 0x0000000000000000000000000000000000000000000000000000000000000020000000000000000000000000000000000000000000000000000000000000000f000000000000000000000000000000000000000000000000000000000000000100000000000000000000000000000000000000000000000000000000000000ff000000000000000000000000000000000000000000000000000000000000000000000000000000000000000000000000000000000000000000000000000000c00000000000000000000000000000000000000000000000000000000000000100000000000000000000000000000000000000000000000000000000000000000100000000000000000000000088b27057a9e00c5f05dda29241027aff63f9e6e00000000000000000000000000000000000000000000000000000000000000000)]"
      ],
      "transaction": {
        "from": "0x0ece75f3c36f7df2136dac7633165dbff53de3cd",
        "to": "0x6c7ab2202c98c4227c5c46f1417d81144da716ff",
        "gas": "0x4765d",
        "value": "0x0",
        "input": "0x6dbd9f9000000000000000000000000039926da4905f5edb956f5db5f2e2ff044e0882b2000000000000000000000000cf1b0f4106b0324f96fefcc31ba9498caa80701c00000000000000000000000000000000000000000000000000000000000000600000000000000000000000000000000000000000000000000000000000000002000000000000000000000000000000000000000000000000000000000000004000000000000000000000000000000000000000000000000000000000000002000000000000000000000000000000000000000000000000000000000000009df20000000000000000000000000000000000000000000000000000000000000002000000000000000000000000000000000000000000000000000000000000006000000000000000000000000000000000000000000000000000000000000001400000000000000000000000000000000000000000000000000000000000000020000000000000000000000000000000000000000000000000000000000000000f000000000000000000000000000000000000000000000000000000000000000100000000000000000000000000000000000000000000000000000000000000ff000000000000000000000000000000000000000000000000000000000000000000000000000000000000000000000000000000000000000000000000000000c00000000000000000000000000000000000000000000000000000000000000100000000000000000000000000000000000000000000000000000000000000000100000000000000000000000088b27057a9e00c5f05dda29241027aff63f9e6e000000000000000000000000000000000000000000000000000000000000000000000000000000000000000000000000000000000000000000000000000009d350000000000000000000000000000000000000000000000000000000000000002000000000000000000000000000000000000000000000000000000000000006000000000000000000000000000000000000000000000000000000000000001400000000000000000000000000000000000000000000000000000000000000020000000000000000000000000000000000000000000000000000000000000000f000000000000000000000000000000000000000000000000000000000000000100000000000000000000000000000000000000000000000000000000000000ff000000000000000000000000000000000000000000000000000000000000000000000000000000000000000000000000000000000000000000000000000000c00000000000000000000000000000000000000000000000000000000000000100000000000000000000000000000000000000000000000000000000000000000100000000000000000000000088b27057a9e00c5f05dda29241027aff63f9e6e00000000000000000000000000000000000000000000000000000000000000000",
        "nonce": "0x1c",
        "chainId": "0x4cef52"
      },
      "additionalContracts": [],
      "isFixedGasLimit": false
    },
    {
      "hash": "0x3de5f997c79a23bfda73a42311ebed772164ffa5670e847b8d42186fa7715e0e",
      "transactionType": "CALL",
      "contractName": null,
      "contractAddress": "0x6c7ab2202c98c4227c5c46f1417d81144da716ff",
      "function": "setConfig(address,address,(uint32,uint32,bytes)[])",
      "arguments": [
        "0x886ba47579DC4f5DcB53ffd20429089A7788C072",
        "0xcF1B0F4106B0324F96fEfcC31bA9498caa80701C",
        "[(40434, 2, 0x0000000000000000000000000000000000000000000000000000000000000020000000000000000000000000000000000000000000000000000000000000000f000000000000000000000000000000000000000000000000000000000000000100000000000000000000000000000000000000000000000000000000000000ff000000000000000000000000000000000000000000000000000000000000000000000000000000000000000000000000000000000000000000000000000000c00000000000000000000000000000000000000000000000000000000000000100000000000000000000000000000000000000000000000000000000000000000100000000000000000000000088b27057a9e00c5f05dda29241027aff63f9e6e00000000000000000000000000000000000000000000000000000000000000000), (40245, 2, 0x0000000000000000000000000000000000000000000000000000000000000020000000000000000000000000000000000000000000000000000000000000000f000000000000000000000000000000000000000000000000000000000000000100000000000000000000000000000000000000000000000000000000000000ff000000000000000000000000000000000000000000000000000000000000000000000000000000000000000000000000000000000000000000000000000000c00000000000000000000000000000000000000000000000000000000000000100000000000000000000000000000000000000000000000000000000000000000100000000000000000000000088b27057a9e00c5f05dda29241027aff63f9e6e00000000000000000000000000000000000000000000000000000000000000000)]"
      ],
      "transaction": {
        "from": "0x0ece75f3c36f7df2136dac7633165dbff53de3cd",
        "to": "0x6c7ab2202c98c4227c5c46f1417d81144da716ff",
        "gas": "0x4765d",
        "value": "0x0",
        "input": "0x6dbd9f90000000000000000000000000886ba47579dc4f5dcb53ffd20429089a7788c072000000000000000000000000cf1b0f4106b0324f96fefcc31ba9498caa80701c00000000000000000000000000000000000000000000000000000000000000600000000000000000000000000000000000000000000000000000000000000002000000000000000000000000000000000000000000000000000000000000004000000000000000000000000000000000000000000000000000000000000002000000000000000000000000000000000000000000000000000000000000009df20000000000000000000000000000000000000000000000000000000000000002000000000000000000000000000000000000000000000000000000000000006000000000000000000000000000000000000000000000000000000000000001400000000000000000000000000000000000000000000000000000000000000020000000000000000000000000000000000000000000000000000000000000000f000000000000000000000000000000000000000000000000000000000000000100000000000000000000000000000000000000000000000000000000000000ff000000000000000000000000000000000000000000000000000000000000000000000000000000000000000000000000000000000000000000000000000000c00000000000000000000000000000000000000000000000000000000000000100000000000000000000000000000000000000000000000000000000000000000100000000000000000000000088b27057a9e00c5f05dda29241027aff63f9e6e000000000000000000000000000000000000000000000000000000000000000000000000000000000000000000000000000000000000000000000000000009d350000000000000000000000000000000000000000000000000000000000000002000000000000000000000000000000000000000000000000000000000000006000000000000000000000000000000000000000000000000000000000000001400000000000000000000000000000000000000000000000000000000000000020000000000000000000000000000000000000000000000000000000000000000f000000000000000000000000000000000000000000000000000000000000000100000000000000000000000000000000000000000000000000000000000000ff000000000000000000000000000000000000000000000000000000000000000000000000000000000000000000000000000000000000000000000000000000c00000000000000000000000000000000000000000000000000000000000000100000000000000000000000000000000000000000000000000000000000000000100000000000000000000000088b27057a9e00c5f05dda29241027aff63f9e6e00000000000000000000000000000000000000000000000000000000000000000",
        "nonce": "0x1d",
        "chainId": "0x4cef52"
      },
      "additionalContracts": [],
      "isFixedGasLimit": false
    }
  ],
  "receipts": [
    {
      "status": "0x1",
      "cumulativeGasUsed": "0x1d6995",
      "logs": [
        {
          "address": "0xcf1b0f4106b0324f96fefcc31ba9498caa80701c",
          "topics": [
            "0x82118522aa536ac0e96cc5c689407ae42b89d592aa133890a01f1509842f5081"
          ],
          "data": "0x0000000000000000000000005c368bd6ce77b2ca47b4ba791fcc1f1645591c840000000000000000000000000000000000000000000000000000000000009df20000000000000000000000000000000000000000000000000000000000000060000000000000000000000000000000000000000000000000000000000000000f000000000000000000000000000000000000000000000000000000000000000100000000000000000000000000000000000000000000000000000000000000ff000000000000000000000000000000000000000000000000000000000000000000000000000000000000000000000000000000000000000000000000000000c00000000000000000000000000000000000000000000000000000000000000100000000000000000000000000000000000000000000000000000000000000000100000000000000000000000088b27057a9e00c5f05dda29241027aff63f9e6e00000000000000000000000000000000000000000000000000000000000000000",
          "blockHash": "0x7c224d4a8b7e2acbc2155f20d4ca44a8dd7ea4f597106b0945e44038f6898a61",
          "blockNumber": "0x188df64",
          "blockTimestamp": "0x6986f1b9",
          "transactionHash": "0x7762aa4df91f86557541be3d3e4b27360b5356ae20078180b1256e8ab9dd9fa6",
          "transactionIndex": "0x12",
          "logIndex": "0x3d",
          "removed": false
        },
        {
          "address": "0xcf1b0f4106b0324f96fefcc31ba9498caa80701c",
          "topics": [
            "0x82118522aa536ac0e96cc5c689407ae42b89d592aa133890a01f1509842f5081"
          ],
          "data": "0x0000000000000000000000005c368bd6ce77b2ca47b4ba791fcc1f1645591c840000000000000000000000000000000000000000000000000000000000009d350000000000000000000000000000000000000000000000000000000000000060000000000000000000000000000000000000000000000000000000000000000f000000000000000000000000000000000000000000000000000000000000000100000000000000000000000000000000000000000000000000000000000000ff000000000000000000000000000000000000000000000000000000000000000000000000000000000000000000000000000000000000000000000000000000c00000000000000000000000000000000000000000000000000000000000000100000000000000000000000000000000000000000000000000000000000000000100000000000000000000000088b27057a9e00c5f05dda29241027aff63f9e6e00000000000000000000000000000000000000000000000000000000000000000",
          "blockHash": "0x7c224d4a8b7e2acbc2155f20d4ca44a8dd7ea4f597106b0945e44038f6898a61",
          "blockNumber": "0x188df64",
          "blockTimestamp": "0x6986f1b9",
          "transactionHash": "0x7762aa4df91f86557541be3d3e4b27360b5356ae20078180b1256e8ab9dd9fa6",
          "transactionIndex": "0x12",
          "logIndex": "0x3e",
          "removed": false
        }
      ],
      "logsBloom": "0x00000000000000200000000000000000000000000000000000000000000000000000000000000000000000000000000000000000000000000000000000000000000000000000000000000000000000000000000000000000002000000000000000000000000000000000000000000000000000000000000000000000000000000000000000000000000000000000000000000000000000000000000000000000000000000000000000001002000000000000000000000000000000000000000000000000000000000400000000000000000000000000000000000000000000000000000000000000000000000000000000000000000000000000000000000010",
      "type": "0x2",
      "transactionHash": "0x7762aa4df91f86557541be3d3e4b27360b5356ae20078180b1256e8ab9dd9fa6",
      "transactionIndex": "0x12",
      "blockHash": "0x7c224d4a8b7e2acbc2155f20d4ca44a8dd7ea4f597106b0945e44038f6898a61",
      "blockNumber": "0x188df64",
      "gasUsed": "0x30d1b",
      "effectiveGasPrice": "0x4a81b2f23",
      "from": "0x0ece75f3c36f7df2136dac7633165dbff53de3cd",
      "to": "0x6c7ab2202c98c4227c5c46f1417d81144da716ff",
      "contractAddress": null
    },
    {
      "status": "0x1",
      "cumulativeGasUsed": "0x2076b0",
      "logs": [
        {
          "address": "0xcf1b0f4106b0324f96fefcc31ba9498caa80701c",
          "topics": [
            "0x82118522aa536ac0e96cc5c689407ae42b89d592aa133890a01f1509842f5081"
          ],
          "data": "0x00000000000000000000000039926da4905f5edb956f5db5f2e2ff044e0882b20000000000000000000000000000000000000000000000000000000000009df20000000000000000000000000000000000000000000000000000000000000060000000000000000000000000000000000000000000000000000000000000000f000000000000000000000000000000000000000000000000000000000000000100000000000000000000000000000000000000000000000000000000000000ff000000000000000000000000000000000000000000000000000000000000000000000000000000000000000000000000000000000000000000000000000000c00000000000000000000000000000000000000000000000000000000000000100000000000000000000000000000000000000000000000000000000000000000100000000000000000000000088b27057a9e00c5f05dda29241027aff63f9e6e00000000000000000000000000000000000000000000000000000000000000000",
          "blockHash": "0x7c224d4a8b7e2acbc2155f20d4ca44a8dd7ea4f597106b0945e44038f6898a61",
          "blockNumber": "0x188df64",
          "blockTimestamp": "0x6986f1b9",
          "transactionHash": "0x500dca210f78d443a15a343a69ff26b6c9ca5b3280df09aef21f1c4a2314b6c2",
          "transactionIndex": "0x13",
          "logIndex": "0x3f",
          "removed": false
        },
        {
          "address": "0xcf1b0f4106b0324f96fefcc31ba9498caa80701c",
          "topics": [
            "0x82118522aa536ac0e96cc5c689407ae42b89d592aa133890a01f1509842f5081"
          ],
          "data": "0x00000000000000000000000039926da4905f5edb956f5db5f2e2ff044e0882b20000000000000000000000000000000000000000000000000000000000009d350000000000000000000000000000000000000000000000000000000000000060000000000000000000000000000000000000000000000000000000000000000f000000000000000000000000000000000000000000000000000000000000000100000000000000000000000000000000000000000000000000000000000000ff000000000000000000000000000000000000000000000000000000000000000000000000000000000000000000000000000000000000000000000000000000c00000000000000000000000000000000000000000000000000000000000000100000000000000000000000000000000000000000000000000000000000000000100000000000000000000000088b27057a9e00c5f05dda29241027aff63f9e6e00000000000000000000000000000000000000000000000000000000000000000",
          "blockHash": "0x7c224d4a8b7e2acbc2155f20d4ca44a8dd7ea4f597106b0945e44038f6898a61",
          "blockNumber": "0x188df64",
          "blockTimestamp": "0x6986f1b9",
          "transactionHash": "0x500dca210f78d443a15a343a69ff26b6c9ca5b3280df09aef21f1c4a2314b6c2",
          "transactionIndex": "0x13",
          "logIndex": "0x40",
          "removed": false
        }
      ],
      "logsBloom": "0x00000000000000200000000000000000000000000000000000000000000000000000000000000000000000000000000000000000000000000000000000000000000000000000000000000000000000000000000000000000002000000000000000000000000000000000000000000000000000000000000000000000000000000000000000000000000000000000000000000000000000000000000000000000000000000000000000001002000000000000000000000000000000000000000000000000000000000400000000000000000000000000000000000000000000000000000000000000000000000000000000000000000000000000000000000010",
      "type": "0x2",
      "transactionHash": "0x500dca210f78d443a15a343a69ff26b6c9ca5b3280df09aef21f1c4a2314b6c2",
      "transactionIndex": "0x13",
      "blockHash": "0x7c224d4a8b7e2acbc2155f20d4ca44a8dd7ea4f597106b0945e44038f6898a61",
      "blockNumber": "0x188df64",
      "gasUsed": "0x30d1b",
      "effectiveGasPrice": "0x4a81b2f23",
      "from": "0x0ece75f3c36f7df2136dac7633165dbff53de3cd",
      "to": "0x6c7ab2202c98c4227c5c46f1417d81144da716ff",
      "contractAddress": null
    },
    {
      "status": "0x1",
      "cumulativeGasUsed": "0x2383cb",
      "logs": [
        {
          "address": "0xcf1b0f4106b0324f96fefcc31ba9498caa80701c",
          "topics": [
            "0x82118522aa536ac0e96cc5c689407ae42b89d592aa133890a01f1509842f5081"
          ],
          "data": "0x000000000000000000000000886ba47579dc4f5dcb53ffd20429089a7788c0720000000000000000000000000000000000000000000000000000000000009df20000000000000000000000000000000000000000000000000000000000000060000000000000000000000000000000000000000000000000000000000000000f000000000000000000000000000000000000000000000000000000000000000100000000000000000000000000000000000000000000000000000000000000ff000000000000000000000000000000000000000000000000000000000000000000000000000000000000000000000000000000000000000000000000000000c00000000000000000000000000000000000000000000000000000000000000100000000000000000000000000000000000000000000000000000000000000000100000000000000000000000088b27057a9e00c5f05dda29241027aff63f9e6e00000000000000000000000000000000000000000000000000000000000000000",
          "blockHash": "0x7c224d4a8b7e2acbc2155f20d4ca44a8dd7ea4f597106b0945e44038f6898a61",
          "blockNumber": "0x188df64",
          "blockTimestamp": "0x6986f1b9",
          "transactionHash": "0x3de5f997c79a23bfda73a42311ebed772164ffa5670e847b8d42186fa7715e0e",
          "transactionIndex": "0x14",
          "logIndex": "0x41",
          "removed": false
        },
        {
          "address": "0xcf1b0f4106b0324f96fefcc31ba9498caa80701c",
          "topics": [
            "0x82118522aa536ac0e96cc5c689407ae42b89d592aa133890a01f1509842f5081"
          ],
          "data": "0x000000000000000000000000886ba47579dc4f5dcb53ffd20429089a7788c0720000000000000000000000000000000000000000000000000000000000009d350000000000000000000000000000000000000000000000000000000000000060000000000000000000000000000000000000000000000000000000000000000f000000000000000000000000000000000000000000000000000000000000000100000000000000000000000000000000000000000000000000000000000000ff000000000000000000000000000000000000000000000000000000000000000000000000000000000000000000000000000000000000000000000000000000c00000000000000000000000000000000000000000000000000000000000000100000000000000000000000000000000000000000000000000000000000000000100000000000000000000000088b27057a9e00c5f05dda29241027aff63f9e6e00000000000000000000000000000000000000000000000000000000000000000",
          "blockHash": "0x7c224d4a8b7e2acbc2155f20d4ca44a8dd7ea4f597106b0945e44038f6898a61",
          "blockNumber": "0x188df64",
          "blockTimestamp": "0x6986f1b9",
          "transactionHash": "0x3de5f997c79a23bfda73a42311ebed772164ffa5670e847b8d42186fa7715e0e",
          "transactionIndex": "0x14",
          "logIndex": "0x42",
          "removed": false
        }
      ],
      "logsBloom": "0x00000000000000200000000000000000000000000000000000000000000000000000000000000000000000000000000000000000000000000000000000000000000000000000000000000000000000000000000000000000002000000000000000000000000000000000000000000000000000000000000000000000000000000000000000000000000000000000000000000000000000000000000000000000000000000000000000001002000000000000000000000000000000000000000000000000000000000400000000000000000000000000000000000000000000000000000000000000000000000000000000000000000000000000000000000010",
      "type": "0x2",
      "transactionHash": "0x3de5f997c79a23bfda73a42311ebed772164ffa5670e847b8d42186fa7715e0e",
      "transactionIndex": "0x14",
      "blockHash": "0x7c224d4a8b7e2acbc2155f20d4ca44a8dd7ea4f597106b0945e44038f6898a61",
      "blockNumber": "0x188df64",
      "gasUsed": "0x30d1b",
      "effectiveGasPrice": "0x4a81b2f23",
      "from": "0x0ece75f3c36f7df2136dac7633165dbff53de3cd",
      "to": "0x6c7ab2202c98c4227c5c46f1417d81144da716ff",
      "contractAddress": null
    }
  ],
  "libraries": [],
  "pending": [],
  "returns": {},
  "timestamp": 1770451386037,
  "chain": 5042002,
  "commit": "6c28441"
}