{
  "transactions": [
    {
      "hash": "0xefdd5a73c254fdf9824fd4701abac3c43d9bc9de38559a6d9f85cf94706fa753",
      "transactionType": "CALL",
      "contractName": null,
      "contractAddress": "0xdf05e9abf64da281b3cbd8ac3581022ec4841fb2",
      "function": "approve(address,uint256)",
      "arguments": [
        "0x5C368bd6cE77b2ca47B4ba791fCC1f1645591c84",
        "100000000"
      ],
      "transaction": {
        "from": "0x0ece75f3c36f7df2136dac7633165dbff53de3cd",
        "to": "0xdf05e9abf64da281b3cbd8ac3581022ec4841fb2",
        "gas": "0xfd00",
        "value": "0x0",
        "input": "0x095ea7b30000000000000000000000005c368bd6ce77b2ca47b4ba791fcc1f1645591c840000000000000000000000000000000000000000000000000000000005f5e100",
        "nonce": "0x5b",
        "chainId": "0x4cef52"
      },
      "additionalContracts": [],
      "isFixedGasLimit": false
    },
    {
      "hash": "0x731aaca5782e1ae958abafd7bb400922bb28ba24d72e255846c97a1936028f39",
      "transactionType": "CALL",
      "contractName": null,
      "contractAddress": "0x5c368bd6ce77b2ca47b4ba791fcc1f1645591c84",
      "function": "send((uint32,bytes32,uint256,uint256,bytes,bytes,bytes),(uint256,uint256),address)",
      "arguments": [
        "(40245, 0x0000000000000000000000000ece75f3c36f7df2136dac7633165dbff53de3cd, 100000000, 100000000, 0x0003010011010000000000000000000000000000fde8, 0x, 0x)",
        "(738778289906743116, 0)",
        "0x0EcE75f3C36f7Df2136Dac7633165DBff53dE3CD"
      ],
      "transaction": {
        "from": "0x0ece75f3c36f7df2136dac7633165dbff53de3cd",
        "to": "0x5c368bd6ce77b2ca47b4ba791fcc1f1645591c84",
        "gas": "0x5c005",
        "value": "0xa40aaf0c1a9774c",
        "input": "0xc7c7f5b300000000000000000000000000000000000000000000000000000000000000800000000000000000000000000000000000000000000000000a40aaf0c1a9774c00000000000000000000000000000000000000000000000000000000000000000000000000000000000000000ece75f3c36f7df2136dac7633165dbff53de3cd0000000000000000000000000000000000000000000000000000000000009d350000000000000000000000000ece75f3c36f7df2136dac7633165dbff53de3cd0000000000000000000000000000000000000000000000000000000005f5e1000000000000000000000000000000000000000000000000000000000005f5e10000000000000000000000000000000000000000000000000000000000000000e00000000000000000000000000000000000000000000000000000000000000120000000000000000000000000000000000000000000000000000000000000014000000000000000000000000000000000000000000000000000000000000000160003010011010000000000000000000000000000fde80000000000000000000000000000000000000000000000000000000000000000000000000000000000000000000000000000000000000000000000000000000000000000000000000000",
        "nonce": "0x5c",
        "chainId": "0x4cef52"
      },
      "additionalContracts": [],
      "isFixedGasLimit": false
    }
  ],
  "receipts": [
    {
      "status": "0x1",
      "cumulativeGasUsed": "0x15bec0",
      "logs": [
        {
          "address": "0xdf05e9abf64da281b3cbd8ac3581022ec4841fb2",
          "topics": [
            "0x8c5be1e5ebec7d5bd14f71427d1e84f3dd0314c0f7b2291e5b200ac8c7c3b925",
            "0x0000000000000000000000000ece75f3c36f7df2136dac7633165dbff53de3cd",
            "0x0000000000000000000000005c368bd6ce77b2ca47b4ba791fcc1f1645591c84"
          ],
          "data": "0x0000000000000000000000000000000000000000000000000000000005f5e100",
          "blockHash": "0xb8d6d64e1f1d8f33a48a77f867a4cfdb9145cefc274293a2be9e9e46b1a9463f",
          "blockNumber": "0x1890108",
          "blockTimestamp": "0x69870295",
          "transactionHash": "0xefdd5a73c254fdf9824fd4701abac3c43d9bc9de38559a6d9f85cf94706fa753",
          "transactionIndex": "0x13",
          "logIndex": "0x2b",
          "removed": false
        }
      ],
      "logsBloom": "0x00000000000000000000000000000000000000000000000000000000000000000000000000000000000000000000000000000000000000000000000000200000000000000000000000000000000000000000000000000000000000000000000000000000000000000000000000000000000000000000200400000000000000000000000000000000000000000040000000000000000000000000000000000000120000000000000000000800000000000000000200000000000000000008000000000000000000000000000000000000000000000000000000000000200000000010000000200000000000000000000000000000000000000000000000000000",
      "type": "0x2",
      "transactionHash": "0xefdd5a73c254fdf9824fd4701abac3c43d9bc9de38559a6d9f85cf94706fa753",
      "transactionIndex": "0x13",
      "blockHash": "0xb8d6d64e1f1d8f33a48a77f867a4cfdb9145cefc274293a2be9e9e46b1a9463f",
      "blockNumber": "0x1890108",
      "gasUsed": "0xb72c",
      "effectiveGasPrice": "0x4a8190f26",
      "from": "0x0ece75f3c36f7df2136dac7633165dbff53de3cd",
      "to": "0xdf05e9abf64da281b3cbd8ac3581022ec4841fb2",
      "contractAddress": null
    },
    {
      "status": "0x1",
      "cumulativeGasUsed": "0x19e878",
      "logs": [
        {
          "address": "0x1800000000000000000000000000000000000000",
          "topics": [
            "0x62f084c00a442dcf51cdbb51beed2839bf42a268da8474b0e98f38edb7db5a22",
            "0x0000000000000000000000000ece75f3c36f7df2136dac7633165dbff53de3cd",
            "0x0000000000000000000000005c368bd6ce77b2ca47b4ba791fcc1f1645591c84"
          ],
          "data": "0x0000000000000000000000000000000000000000000000000a40aaf0c1a9774c",
          "blockHash": "0xb8d6d64e1f1d8f33a48a77f867a4cfdb9145cefc274293a2be9e9e46b1a9463f",
          "blockNumber": "0x1890108",
          "blockTimestamp": "0x69870295",
          "transactionHash": "0x731aaca5782e1ae958abafd7bb400922bb28ba24d72e255846c97a1936028f39",
          "transactionIndex": "0x14",
          "logIndex": "0x2c",
          "removed": false
        },
        {
          "address": "0xdf05e9abf64da281b3cbd8ac3581022ec4841fb2",
          "topics": [
            "0xddf252ad1be2c89b69c2b068fc378daa952ba7f163c4a11628f55a4df523b3ef",
            "0x0000000000000000000000000ece75f3c36f7df2136dac7633165dbff53de3cd",
            "0x0000000000000000000000005c368bd6ce77b2ca47b4ba791fcc1f1645591c84"
          ],
          "data": "0x0000000000000000000000000000000000000000000000000000000005f5e100",
          "blockHash": "0xb8d6d64e1f1d8f33a48a77f867a4cfdb9145cefc274293a2be9e9e46b1a9463f",
          "blockNumber": "0x1890108",
          "blockTimestamp": "0x69870295",
          "transactionHash": "0x731aaca5782e1ae958abafd7bb400922bb28ba24d72e255846c97a1936028f39",
          "transactionIndex": "0x14",
          "logIndex": "0x2d",
          "removed": false
        },
        {
          "address": "0x5c368bd6ce77b2ca47b4ba791fcc1f1645591c84",
          "topics": [
            "0x59c79d79be0fadf59fe689b6952b7ebe90201a3a1f00d4a31982377890bc6046"
          ],
          "data": "0x0000000000000000000000000ece75f3c36f7df2136dac7633165dbff53de3cd0000000000000000000000000000000000000000000000000000000005f5e100",
          "blockHash": "0xb8d6d64e1f1d8f33a48a77f867a4cfdb9145cefc274293a2be9e9e46b1a9463f",
          "blockNumber": "0x1890108",
          "blockTimestamp": "0x69870295",
          "transactionHash": "0x731aaca5782e1ae958abafd7bb400922bb28ba24d72e255846c97a1936028f39",
          "transactionIndex": "0x14",
          "logIndex": "0x2e",
          "removed": false
        },
        {
          "address": "0x1800000000000000000000000000000000000000",
          "topics": [
            "0x62f084c00a442dcf51cdbb51beed2839bf42a268da8474b0e98f38edb7db5a22",
            "0x0000000000000000000000005c368bd6ce77b2ca47b4ba791fcc1f1645591c84",
            "0x0000000000000000000000006c7ab2202c98c4227c5c46f1417d81144da716ff"
          ],
          "data": "0x0000000000000000000000000000000000000000000000000a40aaf0c1a9774c",
          "blockHash": "0xb8d6d64e1f1d8f33a48a77f867a4cfdb9145cefc274293a2be9e9e46b1a9463f",
          "blockNumber": "0x1890108",
          "blockTimestamp": "0x69870295",
          "transactionHash": "0x731aaca5782e1ae958abafd7bb400922bb28ba24d72e255846c97a1936028f39",
          "transactionIndex": "0x14",
          "logIndex": "0x2f",
          "removed": false
        },
        {
          "address": "0xd682ecf100f6f4284138aa925348633b0611ae21",
          "topics": [
            "0x61ed099e74a97a1d7f8bb0952a88ca8b7b8ebd00c126ea04671f92a81213318a"
          ],
          "data": "0x0000000000000000000000009db9ca3305b48f196d18082e91cb64663b13d01400000000000000000000000000000000000000000000000006d8c70c9efc9bdc",
          "blockHash": "0xb8d6d64e1f1d8f33a48a77f867a4cfdb9145cefc274293a2be9e9e46b1a9463f",
          "blockNumber": "0x1890108",
          "blockTimestamp": "0x69870295",
          "transactionHash": "0x731aaca5782e1ae958abafd7bb400922bb28ba24d72e255846c97a1936028f39",
          "transactionIndex": "0x14",
          "logIndex": "0x30",
          "removed": false
        },
        {
          "address": "0xd682ecf100f6f4284138aa925348633b0611ae21",
          "topics": [
            "0x07ea52d82345d6e838192107d8fd7123d9c2ec8e916cd0aad13fd2b60db24644"
          ],
          "data": "0x000000000000000000000000000000000000000000000000000000000000006000000000000000000000000000000000000000000000000000000000000000a000000000000000000000000000000000000000000000000000000000000000c0000000000000000000000000000000000000000000000000000000000000000100000000000000000000000088b27057a9e00c5f05dda29241027aff63f9e6e0000000000000000000000000000000000000000000000000000000000000000000000000000000000000000000000000000000000000000000000000000000010000000000000000000000000000000000000000000000000367e3e422acdb70",
          "blockHash": "0xb8d6d64e1f1d8f33a48a77f867a4cfdb9145cefc274293a2be9e9e46b1a9463f",
          "blockNumber": "0x1890108",
          "blockTimestamp": "0x69870295",
          "transactionHash": "0x731aaca5782e1ae958abafd7bb400922bb28ba24d72e255846c97a1936028f39",
          "transactionIndex": "0x14",
          "logIndex": "0x31",
          "removed": false
        },
        {
          "address": "0x6c7ab2202c98c4227c5c46f1417d81144da716ff",
          "topics": [
            "0x1ab700d4ced0c005b164c0f789fd09fcbb0156d4c2041b8a3bfbcd961cd1567f"
          ],
          "data": "0x00000000000000000000000000000000000000000000000000000000000000600000000000000000000000000000000000000000000000000000000000000120000000000000000000000000d682ecf100f6f4284138aa925348633b0611ae21000000000000000000000000000000000000000000000000000000000000009901000000000000000100009df20000000000000000000000005c368bd6ce77b2ca47b4ba791fcc1f1645591c8400009d350000000000000000000000000c832fee16d5a8bc99b888e16d3712e6bef96fb786d0ac0db67e7225de45d0abcc711d4cfe46d463412f8514ca99b35a241e867b0000000000000000000000000ece75f3c36f7df2136dac7633165dbff53de3cd0000000005f5e10000000000000000000000000000000000000000000000000000000000000000000000000000002a000301001101000000000000000000000000000186a0010011010000000000000000000000000000fde800000000000000000000000000000000000000000000",
          "blockHash": "0xb8d6d64e1f1d8f33a48a77f867a4cfdb9145cefc274293a2be9e9e46b1a9463f",
          "blockNumber": "0x1890108",
          "blockTimestamp": "0x69870295",
          "transactionHash": "0x731aaca5782e1ae958abafd7bb400922bb28ba24d72e255846c97a1936028f39",
          "transactionIndex": "0x14",
          "logIndex": "0x32",
          "removed": false
        },
        {
          "address": "0x1800000000000000000000000000000000000000",
          "topics": [
            "0x62f084c00a442dcf51cdbb51beed2839bf42a268da8474b0e98f38edb7db5a22",
            "0x0000000000000000000000006c7ab2202c98c4227c5c46f1417d81144da716ff",
            "0x000000000000000000000000d682ecf100f6f4284138aa925348633b0611ae21"
          ],
          "data": "0x0000000000000000000000000000000000000000000000000a40aaf0c1a9774c",
          "blockHash": "0xb8d6d64e1f1d8f33a48a77f867a4cfdb9145cefc274293a2be9e9e46b1a9463f",
          "blockNumber": "0x1890108",
          "blockTimestamp": "0x69870295",
          "transactionHash": "0x731aaca5782e1ae958abafd7bb400922bb28ba24d72e255846c97a1936028f39",
          "transactionIndex": "0x14",
          "logIndex": "0x33",
          "removed": false
        },
        {
          "address": "0x5c368bd6ce77b2ca47b4ba791fcc1f1645591c84",
          "topics": [
            "0x85496b760a4b7f8d66384b9df21b381f5d1b1e79f229a47aaf4c232edc2fe59a",
            "0x86d0ac0db67e7225de45d0abcc711d4cfe46d463412f8514ca99b35a241e867b",
            "0x0000000000000000000000000ece75f3c36f7df2136dac7633165dbff53de3cd"
          ],
          "data": "0x0000000000000000000000000000000000000000000000000000000000009d350000000000000000000000000000000000000000000000000000000005f5e1000000000000000000000000000000000000000000000000000000000005f5e100",
          "blockHash": "0xb8d6d64e1f1d8f33a48a77f867a4cfdb9145cefc274293a2be9e9e46b1a9463f",
          "blockNumber": "0x1890108",
          "blockTimestamp": "0x69870295",
          "transactionHash": "0x731aaca5782e1ae958abafd7bb400922bb28ba24d72e255846c97a1936028f39",
          "transactionIndex": "0x14",
          "logIndex": "0x34",
          "removed": false
        }
      ],
      "logsBloom": "0x00000000000000000000001000000000000000000000000000100000000000000000000800080000000000000000000000000000000040000000000000020000000042000000000080000008020000000000000001000000000000000000000020000000000000008800000000000000000000000000200400000010000000004040000000000000000000080040001000001000040000000000004000000000100000008000000000100800000000000000082600400000000440000008000000000002040000004100000080000000020000000000000000000000200000000000040000202000000000000000002000080000008000000000000000000000",
      "type": "0x2",
      "transactionHash": "0x731aaca5782e1ae958abafd7bb400922bb28ba24d72e255846c97a1936028f39",
      "transactionIndex": "0x14",
      "blockHash": "0xb8d6d64e1f1d8f33a48a77f867a4cfdb9145cefc274293a2be9e9e46b1a9463f",
      "blockNumber": "0x1890108",
      "gasUsed": "0x429b8",
      "effectiveGasPrice": "0x4a8190f26",
      "from": "0x0ece75f3c36f7df2136dac7633165dbff53de3cd",
      "to": "0x5c368bd6ce77b2ca47b4ba791fcc1f1645591c84",
      "contractAddress": null
    }
  ],
  "libraries": [],
  "pending": [],
  "returns": {},
  "timestamp": 1770455703131,
  "chain": 5042002,
  "commit": "6c28441"
}