{
  "transactions": [
    {
      "hash": "0xced7a161e91e06b3a09ed66aca8cff2d7ef7d0727c1bb25334390c84f6f47c6a",
      "transactionType": "CALL",
      "contractName": null,
      "contractAddress": "0x46da9f76c20a752132ddaefd2b14870e0a152d71",
      "function": "setTokenReserveFactor(address,uint256)",
      "arguments": [
        "0xdF05e9AbF64dA281B3cBd8aC3581022eC4841FB2",
        "100000000000000000"
      ],
      "transaction": {
        "from": "0x0ece75f3c36f7df2136dac7633165dbff53de3cd",
        "to": "0x46da9f76c20a752132ddaefd2b14870e0a152d71",
        "gas": "0x12101",
        "value": "0x0",
        "input": "0x25379176000000000000000000000000df05e9abf64da281b3cbd8ac3581022ec4841fb2000000000000000000000000000000000000000000000000016345785d8a0000",
        "nonce": "0x53",
        "chainId": "0x4cef52"
      },
      "additionalContracts": [],
      "isFixedGasLimit": false
    },
    {
      "hash": "0x190c0eb04451003f01a52c61a48572c608a1d288a294727574289f407799f2d6",
      "transactionType": "CALL",
      "contractName": null,
      "contractAddress": "0x46da9f76c20a752132ddaefd2b14870e0a152d71",
      "function": "setTokenReserveFactor(address,uint256)",
      "arguments": [
        "0x04C37dc1b538E00b31e6bc883E16d97cD7937a10",
        "100000000000000000"
      ],
      "transaction": {
        "from": "0x0ece75f3c36f7df2136dac7633165dbff53de3cd",
        "to": "0x46da9f76c20a752132ddaefd2b14870e0a152d71",
        "gas": "0x12101",
        "value": "0x0",
        "input": "0x2537917600000000000000000000000004c37dc1b538e00b31e6bc883e16d97cd7937a10000000000000000000000000000000000000000000000000016345785d8a0000",
        "nonce": "0x54",
        "chainId": "0x4cef52"
      },
      "additionalContracts": [],
      "isFixedGasLimit": false
    },
    {
      "hash": "0x26151aace0019cc0faafbd46c94ac99a5bbfe72f264e58919bb46987f86b9324",
      "transactionType": "CALL",
      "contractName": null,
      "contractAddress": "0x46da9f76c20a752132ddaefd2b14870e0a152d71",
      "function": "setTokenReserveFactor(address,uint256)",
      "arguments": [
        "0x15858A57854BBf0DF60A737811d50e1Ee785f9bc",
        "100000000000000000"
      ],
      "transaction": {
        "from": "0x0ece75f3c36f7df2136dac7633165dbff53de3cd",
        "to": "0x46da9f76c20a752132ddaefd2b14870e0a152d71",
        "gas": "0x12101",
        "value": "0x0",
        "input": "0x2537917600000000000000000000000015858a57854bbf0df60a737811d50e1ee785f9bc000000000000000000000000000000000000000000000000016345785d8a0000",
        "nonce": "0x55",
        "chainId": "0x4cef52"
      },
      "additionalContracts": [],
      "isFixedGasLimit": false
    }
  ],
  "receipts": [
    {
      "status": "0x1",
      "cumulativeGasUsed": "0x167fe4",
      "logs": [
        {
          "address": "0x46da9f76c20a752132ddaefd2b14870e0a152d71",
          "topics": [
            "0x97695fbf55f4d399d722a5d1cc5a6818ef227afad9692399170fb8f04da0d32e",
            "0x000000000000000000000000df05e9abf64da281b3cbd8ac3581022ec4841fb2"
          ],
          "data": "0x000000000000000000000000000000000000000000000000016345785d8a0000",
          "blockHash": "0x74dbd98424e8ef2d3f6764b3fc7abd11911348afe073c603f2012a8e4e44b4eb",
          "blockNumber": "0x188fda7",
          "blockTimestamp": "0x698700e4",
          "transactionHash": "0xced7a161e91e06b3a09ed66aca8cff2d7ef7d0727c1bb25334390c84f6f47c6a",
          "transactionIndex": "0xc",
          "logIndex": "0x31",
          "removed": false
        }
      ],
      "logsBloom": "0x00000000000000400000000000000000000000000000000000000080000000000000000000000000000000000000000000000000000000000000000000000000000000000000000000000000000000000000000000000000000000000000000000000200000000200000000000000000000800000000000000000000000000000000000000000000000000000000000000000000000000000000004000000000000000000000000000000000000000000000000000000000000000000000000000044000000000000000000000000000000000000000000000000000000000000000000000800000000000000000000000000000000000000000000000000000",
      "type": "0x2",
      "transactionHash": "0xced7a161e91e06b3a09ed66aca8cff2d7ef7d0727c1bb25334390c84f6f47c6a",
      "transactionIndex": "0xc",
      "blockHash": "0x74dbd98424e8ef2d3f6764b3fc7abd11911348afe073c603f2012a8e4e44b4eb",
      "blockNumber": "0x188fda7",
      "gasUsed": "0xd13d",
      "effectiveGasPrice": "0x4a81977d0",
      "from": "0x0ece75f3c36f7df2136dac7633165dbff53de3cd",
      "to": "0x46da9f76c20a752132ddaefd2b14870e0a152d71",
      "contractAddress": null
    },
    {
      "status": "0x1",
      "cumulativeGasUsed": "0x175121",
      "logs": [
        {
          "address": "0x46da9f76c20a752132ddaefd2b14870e0a152d71",
          "topics": [
            "0x97695fbf55f4d399d722a5d1cc5a6818ef227afad9692399170fb8f04da0d32e",
            "0x00000000000000000000000004c37dc1b538e00b31e6bc883e16d97cd7937a10"
          ],
          "data": "0x000000000000000000000000000000000000000000000000016345785d8a0000",
          "blockHash": "0x74dbd98424e8ef2d3f6764b3fc7abd11911348afe073c603f2012a8e4e44b4eb",
          "blockNumber": "0x188fda7",
          "blockTimestamp": "0x698700e4",
          "transactionHash": "0x26151aace0019cc0faafbd46c94ac99a5bbfe72f264e58919bb46987f86b9324",
          "transactionIndex": "0xd",
          "logIndex": "0x32",
          "removed": false
        }
      ],
      "logsBloom": "0x00000000000000400000000000000000000000000000000000000000000000000000000000000000080000000000000000000000000000000000000000000000000000000000000000000000000000000000000000000000000000000000000000000200000000200000000000000000000800000000000000000000000000000000000000000000000000000000000000000000000000000000000000000010000000000000000000000000000000000000000000000000000000000000000000040000000000000000000000000000000000000000020000000000000000000000000000800000000000000000000000000000000000000000000000000000",
      "type": "0x2",
      "transactionHash": "0x26151aace0019cc0faafbd46c94ac99a5bbfe72f264e58919bb46987f86b9324",
      "transactionIndex": "0xd",
      "blockHash": "0x74dbd98424e8ef2d3f6764b3fc7abd11911348afe073c603f2012a8e4e44b4eb",
      "blockNumber": "0x188fda7",
      "gasUsed": "0xd13d",
      "effectiveGasPrice": "0x4a81977d0",
      "from": "0x0ece75f3c36f7df2136dac7633165dbff53de3cd",
      "to": "0x46da9f76c20a752132ddaefd2b14870e0a152d71",
      "contractAddress": null
    },
    {
      "status": "0x1",
      "cumulativeGasUsed": "0x18225e",
      "logs": [
        {
          "address": "0x46da9f76c20a752132ddaefd2b14870e0a152d71",
          "topics": [
            "0x97695fbf55f4d399d722a5d1cc5a6818ef227afad9692399170fb8f04da0d32e",
            "0x00000000000000000000000015858a57854bbf0df60a737811d50e1ee785f9bc"
          ],
          "data": "0x000000000000000000000000000000000000000000000000016345785d8a0000",
          "blockHash": "0x74dbd98424e8ef2d3f6764b3fc7abd11911348afe073c603f2012a8e4e44b4eb",
          "blockNumber": "0x188fda7",
          "blockTimestamp": "0x698700e4",
          "transactionHash": "0x190c0eb04451003f01a52c61a48572c608a1d288a294727574289f407799f2d6",
          "transactionIndex": "0xe",
          "logIndex": "0x33",
          "removed": false
        }
      ],
      "logsBloom": "0x00000000000000400000000000000000000000000000000000000000000000000000000000000000000000000000000000000000000000000000000000000000000000000000000000000000000000000000000000000000000000000000000000000200000000200000000000000000000800000000000000000000000000000000000000000000000000000000000000000000000000000000000000000000000000000000000000000000000008000000000000000000000000000000000000040000000000000000000000000000000000000000000000100000000000000000000000800000000000000000000000000000000100000000000000000000",
      "type": "0x2",
      "transactionHash": "0x190c0eb04451003f01a52c61a48572c608a1d288a294727574289f407799f2d6",
      "transactionIndex": "0xe",
      "blockHash": "0x74dbd98424e8ef2d3f6764b3fc7abd11911348afe073c603f2012a8e4e44b4eb",
      "blockNumber": "0x188fda7",
      "gasUsed": "0xd13d",
      "effectiveGasPrice": "0x4a81977d0",
      "from": "0x0ece75f3c36f7df2136dac7633165dbff53de3cd",
      "to": "0x46da9f76c20a752132ddaefd2b14870e0a152d71",
      "contractAddress": null
    }
  ],
  "libraries": [],
  "pending": [],
  "returns": {},
  "timestamp": 1770455269845,
  "chain": 5042002,
  "commit": "6c28441"
}