{
  "transactions": [
    {
      "hash": "0xeb1a26840045539818a78bb393777e690e208b026873a61b486ae5b02de02e72",
      "transactionType": "CALL",
      "contractName": null,
      "contractAddress": "0xb0fca55167f94d0f515877c411e0deb904321761",
      "function": "setIsHealthy(address)",
      "arguments": [
        "0xbd3B8bbE94a301B96c5207F8bE17Ed1cd3236550"
      ],
      "transaction": {
        "from": "0x0ece75f3c36f7df2136dac7633165dbff53de3cd",
        "to": "0xb0fca55167f94d0f515877c411e0deb904321761",
        "gas": "0x12db2",
        "value": "0x0",
        "input": "0x59917d7d000000000000000000000000bd3b8bbe94a301b96c5207f8be17ed1cd3236550",
        "nonce": "0x43",
        "chainId": "0x4cef52"
      },
      "additionalContracts": [],
      "isFixedGasLimit": false
    },
    {
      "hash": "0x35d46dc7e0c1ddf3b584dd9eb4e19c2fc927239d14ad821581dab2430e080a1f",
      "transactionType": "CALL",
      "contractName": null,
      "contractAddress": "0xb0fca55167f94d0f515877c411e0deb904321761",
      "function": "setLendingPoolRouterDeployer(address)",
      "arguments": [
        "0x46638aD472507482B7D5ba45124E93D16bc97eCE"
      ],
      "transaction": {
        "from": "0x0ece75f3c36f7df2136dac7633165dbff53de3cd",
        "to": "0xb0fca55167f94d0f515877c411e0deb904321761",
        "gas": "0x11cf1",
        "value": "0x0",
        "input": "0x8dc15a6600000000000000000000000046638ad472507482b7d5ba45124e93d16bc97ece",
        "nonce": "0x44",
        "chainId": "0x4cef52"
      },
      "additionalContracts": [],
      "isFixedGasLimit": false
    },
    {
      "hash": "0x47eb8658012378bc6c9ac331c254a557605fcfb626f7842427907bf7356296da",
      "transactionType": "CALL",
      "contractName": null,
      "contractAddress": "0xb0fca55167f94d0f515877c411e0deb904321761",
      "function": "setLendingPoolDeployer(address)",
      "arguments": [
        "0xC72f2eb4A97F19ecD0C10b5201676a10B6D8bB67"
      ],
      "transaction": {
        "from": "0x0ece75f3c36f7df2136dac7633165dbff53de3cd",
        "to": "0xb0fca55167f94d0f515877c411e0deb904321761",
        "gas": "0x11c85",
        "value": "0x0",
        "input": "0x00546b2a000000000000000000000000c72f2eb4a97f19ecd0c10b5201676a10b6d8bb67",
        "nonce": "0x45",
        "chainId": "0x4cef52"
      },
      "additionalContracts": [],
      "isFixedGasLimit": false
    },
    {
      "hash": "0xb382a769d75f7ef51ddbfa8d906b8256819a44ddcde0de33373f23be4f936b7c",
      "transactionType": "CALL",
      "contractName": null,
      "contractAddress": "0xb0fca55167f94d0f515877c411e0deb904321761",
      "function": "setProtocol(address)",
      "arguments": [
        "0x394239573079a46e438ea6D118Fd96d37A61f270"
      ],
      "transaction": {
        "from": "0x0ece75f3c36f7df2136dac7633165dbff53de3cd",
        "to": "0xb0fca55167f94d0f515877c411e0deb904321761",
        "gas": "0x11d2e",
        "value": "0x0",
        "input": "0x0a9d793d000000000000000000000000394239573079a46e438ea6d118fd96d37a61f270",
        "nonce": "0x46",
        "chainId": "0x4cef52"
      },
      "additionalContracts": [],
      "isFixedGasLimit": false
    },
    {
      "hash": "0xcce1f75770c24a469e1402ab8f44e5014f86b420bcb565b153624e15fd90aa7b",
      "transactionType": "CALL",
      "contractName": null,
      "contractAddress": "0xb0fca55167f94d0f515877c411e0deb904321761",
      "function": "setPositionDeployer(address)",
      "arguments": [
        "0xdbbb07E1AE9D0F23Ac6dA9BDDA3Dff96fcA73650"
      ],
      "transaction": {
        "from": "0x0ece75f3c36f7df2136dac7633165dbff53de3cd",
        "to": "0xb0fca55167f94d0f515877c411e0deb904321761",
        "gas": "0x11d0b",
        "value": "0x0",
        "input": "0xf8446dcd000000000000000000000000dbbb07e1ae9d0f23ac6da9bdda3dff96fca73650",
        "nonce": "0x47",
        "chainId": "0x4cef52"
      },
      "additionalContracts": [],
      "isFixedGasLimit": false
    },
    {
      "hash": "0x49a4d9983476d331a9e9566327a24164a47564a4687d2163e0657aeafa517618",
      "transactionType": "CALL",
      "contractName": null,
      "contractAddress": "0xb0fca55167f94d0f515877c411e0deb904321761",
      "function": "setProxyDeployer(address)",
      "arguments": [
        "0x3703a1DA99a2BDf2d8ce57802aaCb20fb546Ff12"
      ],
      "transaction": {
        "from": "0x0ece75f3c36f7df2136dac7633165dbff53de3cd",
        "to": "0xb0fca55167f94d0f515877c411e0deb904321761",
        "gas": "0x11cb1",
        "value": "0x0",
        "input": "0xaf52c1330000000000000000000000003703a1da99a2bdf2d8ce57802aacb20fb546ff12",
        "nonce": "0x48",
        "chainId": "0x4cef52"
      },
      "additionalContracts": [],
      "isFixedGasLimit": false
    },
    {
      "hash": "0xce6d8b6064645dc1977478443110d6bdac105b2b660696ea77072074bf89be6f",
      "transactionType": "CALL",
      "contractName": null,
      "contractAddress": "0xb0fca55167f94d0f515877c411e0deb904321761",
      "function": "setDexRouter(address)",
      "arguments": [
        "0x0000000000000000000000000000000000000000"
      ],
      "transaction": {
        "from": "0x0ece75f3c36f7df2136dac7633165dbff53de3cd",
        "to": "0xb0fca55167f94d0f515877c411e0deb904321761",
        "gas": "0xb043",
        "value": "0x0",
        "input": "0xf72f863b0000000000000000000000000000000000000000000000000000000000000000",
        "nonce": "0x49",
        "chainId": "0x4cef52"
      },
      "additionalContracts": [],
      "isFixedGasLimit": false
    },
    {
      "hash": "0xe9e477aedd2f8b6226ae2a8bee6146bdd4fe8a93efe50fb95c6ea6d7b770a923",
      "transactionType": "CALL",
      "contractName": null,
      "contractAddress": "0xb0fca55167f94d0f515877c411e0deb904321761",
      "function": "setSharesTokenDeployer(address)",
      "arguments": [
        "0x4900409aabeCd5DE4ab22D61cdEc4b7478783806"
      ],
      "transaction": {
        "from": "0x0ece75f3c36f7df2136dac7633165dbff53de3cd",
        "to": "0xb0fca55167f94d0f515877c411e0deb904321761",
        "gas": "0x11cde",
        "value": "0x0",
        "input": "0xc06f77f20000000000000000000000004900409aabecd5de4ab22d61cdec4b7478783806",
        "nonce": "0x4a",
        "chainId": "0x4cef52"
      },
      "additionalContracts": [],
      "isFixedGasLimit": false
    },
    {
      "hash": "0x4dac5557e46fd0a579049eba905cf16451101673f5c4d7fd210644aedf4b8338",
      "transactionType": "CALL",
      "contractName": null,
      "contractAddress": "0xb0fca55167f94d0f515877c411e0deb904321761",
      "function": "setNuroEmitter(address)",
      "arguments": [
        "0xec32CC0267002618c339274C18AD48D2Bf2A9c7e"
      ],
      "transaction": {
        "from": "0x0ece75f3c36f7df2136dac7633165dbff53de3cd",
        "to": "0xb0fca55167f94d0f515877c411e0deb904321761",
        "gas": "0x12d82",
        "value": "0x0",
        "input": "0xab576679000000000000000000000000ec32cc0267002618c339274c18ad48d2bf2a9c7e",
        "nonce": "0x4b",
        "chainId": "0x4cef52"
      },
      "additionalContracts": [],
      "isFixedGasLimit": false
    }
  ],
  "receipts": [
    {
      "status": "0x1",
      "cumulativeGasUsed": "0x1e3ced",
      "logs": [
        {
          "address": "0xb0fca55167f94d0f515877c411e0deb904321761",
          "topics": [
            "0xdfccf581ae27a41845f39125ccb5ef00c0a079c5bf3bf751ecd2045e2d6d442f",
            "0x000000000000000000000000bd3b8bbe94a301b96c5207f8be17ed1cd3236550"
          ],
          "data": "0x",
          "blockHash": "0xb40df9b9997ee74273edee77bfd45e62fcbdd48621c9986a5920231216af55d6",
          "blockNumber": "0x188fc4e",
          "blockTimestamp": "0x69870037",
          "transactionHash": "0xeb1a26840045539818a78bb393777e690e208b026873a61b486ae5b02de02e72",
          "transactionIndex": "0x15",
          "logIndex": "0x37",
          "removed": false
        }
      ],
      "logsBloom": "0x00000000000000000000000000000000040000000000000000000000000000000000000000000000000000000000000000000000000000000000000000000000000000000000000000000000000002000000000000000000000000000000000000000000000000000000000000000000000000000000000000004000000000000000000000000000000800000000000000000000000000000000000000000000000000000000000000000000000000000000000000000000000000000000000000000000000000000000001100000000000000000010000000000000000100000000000040000000000000000000000000000000000000000000000000000000",
      "type": "0x2",
      "transactionHash": "0xeb1a26840045539818a78bb393777e690e208b026873a61b486ae5b02de02e72",
      "transactionIndex": "0x15",
      "blockHash": "0xb40df9b9997ee74273edee77bfd45e62fcbdd48621c9986a5920231216af55d6",
      "blockNumber": "0x188fc4e",
      "gasUsed": "0xce4a",
      "effectiveGasPrice": "0x4a8190f26",
      "from": "0x0ece75f3c36f7df2136dac7633165dbff53de3cd",
      "to": "0xb0fca55167f94d0f515877c411e0deb904321761",
      "contractAddress": null
    },
    {
      "status": "0x1",
      "cumulativeGasUsed": "0x1f0b39",
      "logs": [
        {
          "address": "0xb0fca55167f94d0f515877c411e0deb904321761",
          "topics": [
            "0x1f4863d4b849d378969f0cf16d48d4a72c921b296c978602cab2cb4aa5d32d4e",
            "0x00000000000000000000000046638ad472507482b7d5ba45124e93d16bc97ece"
          ],
          "data": "0x",
          "blockHash": "0xb40df9b9997ee74273edee77bfd45e62fcbdd48621c9986a5920231216af55d6",
          "blockNumber": "0x188fc4e",
          "blockTimestamp": "0x69870037",
          "transactionHash": "0x47eb8658012378bc6c9ac331c254a557605fcfb626f7842427907bf7356296da",
          "transactionIndex": "0x16",
          "logIndex": "0x38",
          "removed": false
        }
      ],
      "logsBloom": "0x00000000000000000000000000000000040000000000000000000000000040000000000000000000000000000000000000000000000000000000010000000000000000000000000000000000000002000000000000000000000000000000000000000000000000000000000000000000000000000000000000000000000000000000000000000000000000000000000000000000000000000000000000000000000000010000000000000000000000200000000000000000000000000000000000000000040004000000000000000000000000000000000000000000000000000000000040000000000000000000000000000000000000000000000000000000",
      "type": "0x2",
      "transactionHash": "0x47eb8658012378bc6c9ac331c254a557605fcfb626f7842427907bf7356296da",
      "transactionIndex": "0x16",
      "blockHash": "0xb40df9b9997ee74273edee77bfd45e62fcbdd48621c9986a5920231216af55d6",
      "blockNumber": "0x188fc4e",
      "gasUsed": "0xce4c",
      "effectiveGasPrice": "0x4a8190f26",
      "from": "0x0ece75f3c36f7df2136dac7633165dbff53de3cd",
      "to": "0xb0fca55167f94d0f515877c411e0deb904321761",
      "contractAddress": null
    },
    {
      "status": "0x1",
      "cumulativeGasUsed": "0x1fd937",
      "logs": [
        {
          "address": "0xb0fca55167f94d0f515877c411e0deb904321761",
          "topics": [
            "0xb01c17406179a638da96eaa4686f4c1b6367270061946142c4a8ea461023d517",
            "0x000000000000000000000000c72f2eb4a97f19ecd0c10b5201676a10b6d8bb67"
          ],
          "data": "0x",
          "blockHash": "0xb40df9b9997ee74273edee77bfd45e62fcbdd48621c9986a5920231216af55d6",
          "blockNumber": "0x188fc4e",
          "blockTimestamp": "0x69870037",
          "transactionHash": "0x35d46dc7e0c1ddf3b584dd9eb4e19c2fc927239d14ad821581dab2430e080a1f",
          "transactionIndex": "0x17",
          "logIndex": "0x39",
          "removed": false
        }
      ],
      "logsBloom": "0x00000000000000000000000000000400040000000000000000000000000000000000000000000000000000000000000000000800000000000040000000000000000000000000000000000000000002000000000000000000000000000000000000000000000000000000000000000000000000000000000000000000000000000000000000000000000000000000000000000000000000000000000000000000000000000000000000000000000000000000000000000000000000000000000000000000000000000000800000000000000000000004000000000000000000000000000040000000000000000000004000000000000000000000000000000000",
      "type": "0x2",
      "transactionHash": "0x35d46dc7e0c1ddf3b584dd9eb4e19c2fc927239d14ad821581dab2430e080a1f",
      "transactionIndex": "0x17",
      "blockHash": "0xb40df9b9997ee74273edee77bfd45e62fcbdd48621c9986a5920231216af55d6",
      "blockNumber": "0x188fc4e",
      "gasUsed": "0xcdfe",
      "effectiveGasPrice": "0x4a8190f26",
      "from": "0x0ece75f3c36f7df2136dac7633165dbff53de3cd",
      "to": "0xb0fca55167f94d0f515877c411e0deb904321761",
      "contractAddress": null
    },
    {
      "status": "0x1",
      "cumulativeGasUsed": "0x20a7af",
      "logs": [
        {
          "address": "0xb0fca55167f94d0f515877c411e0deb904321761",
          "topics": [
            "0x9269d63ac6e0360a152db45a73e3e9e471a002419dff28abc7b58efaa211a2ba",
            "0x000000000000000000000000394239573079a46e438ea6d118fd96d37a61f270"
          ],
          "data": "0x",
          "blockHash": "0xb40df9b9997ee74273edee77bfd45e62fcbdd48621c9986a5920231216af55d6",
          "blockNumber": "0x188fc4e",
          "blockTimestamp": "0x69870037",
          "transactionHash": "0xb382a769d75f7ef51ddbfa8d906b8256819a44ddcde0de33373f23be4f936b7c",
          "transactionIndex": "0x18",
          "logIndex": "0x3a",
          "removed": false
        }
      ],
      "logsBloom": "0x00000000000000000000000000000000040000000000000000000000000000000000000000000000000000000000000000000000004000000000000000000000000000000000000000000000000002000000000000000000000000000000000000000000000000000000000000000000000000000000000000000000000000000000000000000000000000000000000000000000008000000000000000000000000000001000000000000000000000000000000000000000800040000000000000000000000000000000000000000000000000000000000000000000000000000000000040000000000000020000000000000000000000000000000000000000",
      "type": "0x2",
      "transactionHash": "0xb382a769d75f7ef51ddbfa8d906b8256819a44ddcde0de33373f23be4f936b7c",
      "transactionIndex": "0x18",
      "blockHash": "0xb40df9b9997ee74273edee77bfd45e62fcbdd48621c9986a5920231216af55d6",
      "blockNumber": "0x188fc4e",
      "gasUsed": "0xce78",
      "effectiveGasPrice": "0x4a8190f26",
      "from": "0x0ece75f3c36f7df2136dac7633165dbff53de3cd",
      "to": "0xb0fca55167f94d0f515877c411e0deb904321761",
      "contractAddress": null
    },
    {
      "status": "0x1",
      "cumulativeGasUsed": "0x21760e",
      "logs": [
        {
          "address": "0xb0fca55167f94d0f515877c411e0deb904321761",
          "topics": [
            "0x87f38b33506619f9f981cdf0439928c07e8478960e3b27545f27bae983b1ff8b",
            "0x000000000000000000000000dbbb07e1ae9d0f23ac6da9bdda3dff96fca73650"
          ],
          "data": "0x",
          "blockHash": "0xb40df9b9997ee74273edee77bfd45e62fcbdd48621c9986a5920231216af55d6",
          "blockNumber": "0x188fc4e",
          "blockTimestamp": "0x69870037",
          "transactionHash": "0xcce1f75770c24a469e1402ab8f44e5014f86b420bcb565b153624e15fd90aa7b",
          "transactionIndex": "0x19",
          "logIndex": "0x3b",
          "removed": false
        }
      ],
      "logsBloom": "0x00000000000400000000000000000000040000000000000000000000000000000000000000000000000000000000000100000000000000000000000000000000000000000000001000000000000002000000000000000000000000000000000000000000000000000000000000000000000000000000000000000000000000000000000000000000000000000000000000000000000000000000000000000000000000000000000000400000000000000000000000000080000000000000000000000000000000000000000000000000000000000000000000000000000000000000000040004000000000000000000000000000000000000000000000000000",
      "type": "0x2",
      "transactionHash": "0xcce1f75770c24a469e1402ab8f44e5014f86b420bcb565b153624e15fd90aa7b",
      "transactionIndex": "0x19",
      "blockHash": "0xb40df9b9997ee74273edee77bfd45e62fcbdd48621c9986a5920231216af55d6",
      "blockNumber": "0x188fc4e",
      "gasUsed": "0xce5f",
      "effectiveGasPrice": "0x4a8190f26",
      "from": "0x0ece75f3c36f7df2136dac7633165dbff53de3cd",
      "to": "0xb0fca55167f94d0f515877c411e0deb904321761",
      "contractAddress": null
    },
    {
      "status": "0x1",
      "cumulativeGasUsed": "0x22442c",
      "logs": [
        {
          "address": "0xb0fca55167f94d0f515877c411e0deb904321761",
          "topics": [
            "0x9accaad01ff0db4556869245d0b39a4b908f678e12ccfe038dac21062c22d7fb",
            "0x0000000000000000000000003703a1da99a2bdf2d8ce57802aacb20fb546ff12"
          ],
          "data": "0x",
          "blockHash": "0xb40df9b9997ee74273edee77bfd45e62fcbdd48621c9986a5920231216af55d6",
          "blockNumber": "0x188fc4e",
          "blockTimestamp": "0x69870037",
          "transactionHash": "0x4dac5557e46fd0a579049eba905cf16451101673f5c4d7fd210644aedf4b8338",
          "transactionIndex": "0x1a",
          "logIndex": "0x3c",
          "removed": false
        }
      ],
      "logsBloom": "0x00000000000000000000000000000000040000000000000000000000000000000000000000000000000000000040000000000000000000000000000000000000000000000000000000000000000002000000008000000000000000000000000000004000000000000000000000000000000000000000000000000000000000000000000000000000000000000000000000000080000000000000000000000000000000000000000000000000000000000000000000000000000000000000000000000000000000000000000000000000000000020000000000000000000000000000000048000000000000000000000000000000000000000000000000000000",
      "type": "0x2",
      "transactionHash": "0x4dac5557e46fd0a579049eba905cf16451101673f5c4d7fd210644aedf4b8338",
      "transactionIndex": "0x1a",
      "blockHash": "0xb40df9b9997ee74273edee77bfd45e62fcbdd48621c9986a5920231216af55d6",
      "blockNumber": "0x188fc4e",
      "gasUsed": "0xce1e",
      "effectiveGasPrice": "0x4a8190f26",
      "from": "0x0ece75f3c36f7df2136dac7633165dbff53de3cd",
      "to": "0xb0fca55167f94d0f515877c411e0deb904321761",
      "contractAddress": null
    },
    {
      "status": "0x1",
      "cumulativeGasUsed": "0x22c3c9",
      "logs": [
        {
          "address": "0xb0fca55167f94d0f515877c411e0deb904321761",
          "topics": [
            "0x0b7d876ae8d87054bd191d9a2294c7bc50817a9efd22cb0376d4b14838eb271c",
            "0x0000000000000000000000000000000000000000000000000000000000000000"
          ],
          "data": "0x",
          "blockHash": "0xb40df9b9997ee74273edee77bfd45e62fcbdd48621c9986a5920231216af55d6",
          "blockNumber": "0x188fc4e",
          "blockTimestamp": "0x69870037",
          "transactionHash": "0xce6d8b6064645dc1977478443110d6bdac105b2b660696ea77072074bf89be6f",
          "transactionIndex": "0x1b",
          "logIndex": "0x3d",
          "removed": false
        }
      ],
      "logsBloom": "0x00000000004000000000000000000000040020000000000000000000000000000000000000000000000000000000000000000000000000000000000000000000000000000000000000000000000002000000000000000000000000000000000000000000020000000000000000000800000000000000000000000000000000000000000000000000000000000000000000000000000000000000000000000000000000000000000000000000000000000000000000000000000000000000000000000000000000000000000000000000000000000000000001000000000020000000000040000000000000000000000000000000000000000000000000000000",
      "type": "0x2",
      "transactionHash": "0xce6d8b6064645dc1977478443110d6bdac105b2b660696ea77072074bf89be6f",
      "transactionIndex": "0x1b",
      "blockHash": "0xb40df9b9997ee74273edee77bfd45e62fcbdd48621c9986a5920231216af55d6",
      "blockNumber": "0x188fc4e",
      "gasUsed": "0x7f9d",
      "effectiveGasPrice": "0x4a8190f26",
      "from": "0x0ece75f3c36f7df2136dac7633165dbff53de3cd",
      "to": "0xb0fca55167f94d0f515877c411e0deb904321761",
      "contractAddress": null
    },
    {
      "status": "0x1",
      "cumulativeGasUsed": "0x239207",
      "logs": [
        {
          "address": "0xb0fca55167f94d0f515877c411e0deb904321761",
          "topics": [
            "0xdc3a4d4738b334cf6f84c1e51035f979f0e2ec5061a106e19a1c4a61f13c60ef",
            "0x0000000000000000000000004900409aabecd5de4ab22d61cdec4b7478783806"
          ],
          "data": "0x",
          "blockHash": "0xb40df9b9997ee74273edee77bfd45e62fcbdd48621c9986a5920231216af55d6",
          "blockNumber": "0x188fc4e",
          "blockTimestamp": "0x69870037",
          "transactionHash": "0xe9e477aedd2f8b6226ae2a8bee6146bdd4fe8a93efe50fb95c6ea6d7b770a923",
          "transactionIndex": "0x1c",
          "logIndex": "0x3e",
          "removed": false
        }
      ],
      "logsBloom": "0x00000000000000000000000000000000040000000010000000000000000000000000000000002000000000000000000000000000000000004000000000000000000000000000000000000000000002000000000000000000000000000000000000000000000000000000000000000000000000000000000000000000000000000000000000000000000020000000000000200000000000000000000000000000000000000000000000000000000000000080000000000000000000000000000000000000000000000000000000000000000000000000000000000000000000000000000040000000000000000000000000000000000000000000000000000000",
      "type": "0x2",
      "transactionHash": "0xe9e477aedd2f8b6226ae2a8bee6146bdd4fe8a93efe50fb95c6ea6d7b770a923",
      "transactionIndex": "0x1c",
      "blockHash": "0xb40df9b9997ee74273edee77bfd45e62fcbdd48621c9986a5920231216af55d6",
      "blockNumber": "0x188fc4e",
      "gasUsed": "0xce3e",
      "effectiveGasPrice": "0x4a8190f26",
      "from": "0x0ece75f3c36f7df2136dac7633165dbff53de3cd",
      "to": "0xb0fca55167f94d0f515877c411e0deb904321761",
      "contractAddress": null
    },
    {
      "status": "0x1",
      "cumulativeGasUsed": "0x246030",
      "logs": [
        {
          "address": "0xb0fca55167f94d0f515877c411e0deb904321761",
          "topics": [
            "0xa0c53f4b76c31cd9c4e0747fde766dec8cc3f0ef339c0db9b30e605b3870987a",
            "0x000000000000000000000000ec32cc0267002618c339274c18ad48d2bf2a9c7e"
          ],
          "data": "0x",
          "blockHash": "0xb40df9b9997ee74273edee77bfd45e62fcbdd48621c9986a5920231216af55d6",
          "blockNumber": "0x188fc4e",
          "blockTimestamp": "0x69870037",
          "transactionHash": "0x49a4d9983476d331a9e9566327a24164a47564a4687d2163e0657aeafa517618",
          "transactionIndex": "0x1d",
          "logIndex": "0x3f",
          "removed": false
        }
      ],
      "logsBloom": "0x00000000000000000000000000000000040000000000000000000000000000000000000000000000000000000000008000000000000000000000000000000000000000000000000000000000008002000000000000000000000000000000000000000000000000000000000000000000000000000000000000000000000000000000000000000000000000000000000000000000000000000000000000000000000000000000000000000000010000000000000000000000000000040000000000000000000020000000000000000000000000000000000000000000000000000000000040000000000000000000000000000000000000000000000002000000",
      "type": "0x2",
      "transactionHash": "0x49a4d9983476d331a9e9566327a24164a47564a4687d2163e0657aeafa517618",
      "transactionIndex": "0x1d",
      "blockHash": "0xb40df9b9997ee74273edee77bfd45e62fcbdd48621c9986a5920231216af55d6",
      "blockNumber": "0x188fc4e",
      "gasUsed": "0xce29",
      "effectiveGasPrice": "0x4a8190f26",
      "from": "0x0ece75f3c36f7df2136dac7633165dbff53de3cd",
      "to": "0xb0fca55167f94d0f515877c411e0deb904321761",
      "contractAddress": null
    }
  ],
  "libraries": [],
  "pending": [],
  "returns": {},
  "timestamp": 1770455097248,
  "chain": 5042002,
  "commit": "6c28441"
}