{
  "transactions": [
    {
      "hash": "0x6248f35a143740f5eccbb4eb46819f514fe0a2deba00eb0fb15695861e53bbc9",
      "transactionType": "CALL",
      "contractName": null,
      "contractAddress": "0x5c368bd6ce77b2ca47b4ba791fcc1f1645591c84",
      "function": "setEnforcedOptions((uint32,uint16,bytes)[])",
      "arguments": [
        "[(40434, 1, 0x00030100110100000000000000000000000000013880), (40245, 1, 0x000301001101000000000000000000000000000186a0)]"
      ],
      "transaction": {
        "from": "0x0ece75f3c36f7df2136dac7633165dbff53de3cd",
        "to": "0x5c368bd6ce77b2ca47b4ba791fcc1f1645591c84",
        "gas": "0x1deee",
        "value": "0x0",
        "input": "0xb98bd07000000000000000000000000000000000000000000000000000000000000000200000000000000000000000000000000000000000000000000000000000000002000000000000000000000000000000000000000000000000000000000000004000000000000000000000000000000000000000000000000000000000000000e00000000000000000000000000000000000000000000000000000000000009df200000000000000000000000000000000000000000000000000000000000000010000000000000000000000000000000000000000000000000000000000000060000000000000000000000000000000000000000000000000000000000000001600030100110100000000000000000000000000013880000000000000000000000000000000000000000000000000000000000000000000000000000000009d35000000000000000000000000000000000000000000000000000000000000000100000000000000000000000000000000000000000000000000000000000000600000000000000000000000000000000000000000000000000000000000000016000301001101000000000000000000000000000186a000000000000000000000",
        "nonce": "0x24",
        "chainId": "0x4cef52"
      },
      "additionalContracts": [],
      "isFixedGasLimit": false
    },
    {
      "hash": "0x918ac1018283f3145801a1ec4306f257000136e43f93ff7206ea0375bcdc5c12",
      "transactionType": "CALL",
      "contractName": null,
      "contractAddress": "0x39926da4905f5edb956f5db5f2e2ff044e0882b2",
      "function": "setEnforcedOptions((uint32,uint16,bytes)[])",
      "arguments": [
        "[(40434, 1, 0x00030100110100000000000000000000000000013880), (40245, 1, 0x000301001101000000000000000000000000000186a0)]"
      ],
      "transaction": {
        "from": "0x0ece75f3c36f7df2136dac7633165dbff53de3cd",
        "to": "0x39926da4905f5edb956f5db5f2e2ff044e0882b2",
        "gas": "0x1deee",
        "value": "0x0",
        "input": "0xb98bd07000000000000000000000000000000000000000000000000000000000000000200000000000000000000000000000000000000000000000000000000000000002000000000000000000000000000000000000000000000000000000000000004000000000000000000000000000000000000000000000000000000000000000e00000000000000000000000000000000000000000000000000000000000009df200000000000000000000000000000000000000000000000000000000000000010000000000000000000000000000000000000000000000000000000000000060000000000000000000000000000000000000000000000000000000000000001600030100110100000000000000000000000000013880000000000000000000000000000000000000000000000000000000000000000000000000000000009d35000000000000000000000000000000000000000000000000000000000000000100000000000000000000000000000000000000000000000000000000000000600000000000000000000000000000000000000000000000000000000000000016000301001101000000000000000000000000000186a000000000000000000000",
        "nonce": "0x25",
        "chainId": "0x4cef52"
      },
      "additionalContracts": [],
      "isFixedGasLimit": false
    },
    {
      "hash": "0xb7f6fb172bc1907b782db4a533980d5121afbeb8d57b987f26e6bcc402bd65aa",
      "transactionType": "CALL",
      "contractName": null,
      "contractAddress": "0x886ba47579dc4f5dcb53ffd20429089a7788c072",
      "function": "setEnforcedOptions((uint32,uint16,bytes)[])",
      "arguments": [
        "[(40434, 1, 0x00030100110100000000000000000000000000013880), (40245, 1, 0x000301001101000000000000000000000000000186a0)]"
      ],
      "transaction": {
        "from": "0x0ece75f3c36f7df2136dac7633165dbff53de3cd",
        "to": "0x886ba47579dc4f5dcb53ffd20429089a7788c072",
        "gas": "0x1deee",
        "value": "0x0",
        "input": "0xb98bd07000000000000000000000000000000000000000000000000000000000000000200000000000000000000000000000000000000000000000000000000000000002000000000000000000000000000000000000000000000000000000000000004000000000000000000000000000000000000000000000000000000000000000e00000000000000000000000000000000000000000000000000000000000009df200000000000000000000000000000000000000000000000000000000000000010000000000000000000000000000000000000000000000000000000000000060000000000000000000000000000000000000000000000000000000000000001600030100110100000000000000000000000000013880000000000000000000000000000000000000000000000000000000000000000000000000000000009d35000000000000000000000000000000000000000000000000000000000000000100000000000000000000000000000000000000000000000000000000000000600000000000000000000000000000000000000000000000000000000000000016000301001101000000000000000000000000000186a000000000000000000000",
        "nonce": "0x26",
        "chainId": "0x4cef52"
      },
      "additionalContracts": [],
      "isFixedGasLimit": false
    }
  ],
  "receipts": [
    {
      "status": "0x1",
      "cumulativeGasUsed": "0x12f778",
      "logs": [
        {
          "address": "0x5c368bd6ce77b2ca47b4ba791fcc1f1645591c84",
          "topics": [
            "0xbe4864a8e820971c0247f5992e2da559595f7bf076a21cb5928d443d2a13b674"
          ],
          "data": "0x00000000000000000000000000000000000000000000000000000000000000200000000000000000000000000000000000000000000000000000000000000002000000000000000000000000000000000000000000000000000000000000004000000000000000000000000000000000000000000000000000000000000000e00000000000000000000000000000000000000000000000000000000000009df200000000000000000000000000000000000000000000000000000000000000010000000000000000000000000000000000000000000000000000000000000060000000000000000000000000000000000000000000000000000000000000001600030100110100000000000000000000000000013880000000000000000000000000000000000000000000000000000000000000000000000000000000009d35000000000000000000000000000000000000000000000000000000000000000100000000000000000000000000000000000000000000000000000000000000600000000000000000000000000000000000000000000000000000000000000016000301001101000000000000000000000000000186a000000000000000000000",
          "blockHash": "0x801dd4ae985c8007d39a243da2e071a751fcf68be608be992dc92ed787fbd3c4",
          "blockNumber": "0x188f277",
          "blockTimestamp": "0x6986fb46",
          "transactionHash": "0x918ac1018283f3145801a1ec4306f257000136e43f93ff7206ea0375bcdc5c12",
          "transactionIndex": "0xe",
          "logIndex": "0x2a",
          "removed": false
        }
      ],
      "logsBloom": "0x00000000000000000000000000000000000000000000000000000000000000000000000000080000000000000000000000000000000040000000400000000000000000000000000000000000000000000000000000000000000000000000000020000000000000000000000000000000000000000000000000000000000000000000000000000000000000000000000000000000000000000000000000080000000000000000000000000000000000000000000000000000000000000000000000000000000000000000000002000000000000000000000000000000000000000000000000000000000000000000000000000000000000000000000000000000",
      "type": "0x2",
      "transactionHash": "0x918ac1018283f3145801a1ec4306f257000136e43f93ff7206ea0375bcdc5c12",
      "transactionIndex": "0xe",
      "blockHash": "0x801dd4ae985c8007d39a243da2e071a751fcf68be608be992dc92ed787fbd3c4",
      "blockNumber": "0x188f277",
      "gasUsed": "0x15abe",
      "effectiveGasPrice": "0x4a819bf82",
      "from": "0x0ece75f3c36f7df2136dac7633165dbff53de3cd",
      "to": "0x5c368bd6ce77b2ca47b4ba791fcc1f1645591c84",
      "contractAddress": null
    },
    {
      "status": "0x1",
      "cumulativeGasUsed": "0x145236",
      "logs": [
        {
          "address": "0x39926da4905f5edb956f5db5f2e2ff044e0882b2",
          "topics": [
            "0xbe4864a8e820971c0247f5992e2da559595f7bf076a21cb5928d443d2a13b674"
          ],
          "data": "0x00000000000000000000000000000000000000000000000000000000000000200000000000000000000000000000000000000000000000000000000000000002000000000000000000000000000000000000000000000000000000000000004000000000000000000000000000000000000000000000000000000000000000e00000000000000000000000000000000000000000000000000000000000009df200000000000000000000000000000000000000000000000000000000000000010000000000000000000000000000000000000000000000000000000000000060000000000000000000000000000000000000000000000000000000000000001600030100110100000000000000000000000000013880000000000000000000000000000000000000000000000000000000000000000000000000000000009d35000000000000000000000000000000000000000000000000000000000000000100000000000000000000000000000000000000000000000000000000000000600000000000000000000000000000000000000000000000000000000000000016000301001101000000000000000000000000000186a000000000000000000000",
          "blockHash": "0x801dd4ae985c8007d39a243da2e071a751fcf68be608be992dc92ed787fbd3c4",
          "blockNumber": "0x188f277",
          "blockTimestamp": "0x6986fb46",
          "transactionHash": "0x6248f35a143740f5eccbb4eb46819f514fe0a2deba00eb0fb15695861e53bbc9",
          "transactionIndex": "0xf",
          "logIndex": "0x2b",
          "removed": false
        }
      ],
      "logsBloom": "0x00000000000000000000000000000000000000000000000000000000000000000000000000000000000000000000000000000000000000000000400000000000000000020000000000000000000000000000000000000000000000000000000000000000000000000000000000000000000000000000000000000000000000000000000000000000000000008000000000000000000000000000000000080000000000000000000000000000000000000000000000000000000000000000000000000000000000000000000002000000000000000000000000000000000000000000000080000000000000000000000000000000000000000000000000000000",
      "type": "0x2",
      "transactionHash": "0x6248f35a143740f5eccbb4eb46819f514fe0a2deba00eb0fb15695861e53bbc9",
      "transactionIndex": "0xf",
      "blockHash": "0x801dd4ae985c8007d39a243da2e071a751fcf68be608be992dc92ed787fbd3c4",
      "blockNumber": "0x188f277",
      "gasUsed": "0x15abe",
      "effectiveGasPrice": "0x4a819bf82",
      "from": "0x0ece75f3c36f7df2136dac7633165dbff53de3cd",
      "to": "0x39926da4905f5edb956f5db5f2e2ff044e0882b2",
      "contractAddress": null
    },
    {
      "status": "0x1",
      "cumulativeGasUsed": "0x15acf4",
      "logs": [
        {
          "address": "0x886ba47579dc4f5dcb53ffd20429089a7788c072",
          "topics": [
            "0xbe4864a8e820971c0247f5992e2da559595f7bf076a21cb5928d443d2a13b674"
          ],
          "data": "0x00000000000000000000000000000000000000000000000000000000000000200000000000000000000000000000000000000000000000000000000000000002000000000000000000000000000000000000000000000000000000000000004000000000000000000000000000000000000000000000000000000000000000e00000000000000000000000000000000000000000000000000000000000009df200000000000000000000000000000000000000000000000000000000000000010000000000000000000000000000000000000000000000000000000000000060000000000000000000000000000000000000000000000000000000000000001600030100110100000000000000000000000000013880000000000000000000000000000000000000000000000000000000000000000000000000000000009d35000000000000000000000000000000000000000000000000000000000000000100000000000000000000000000000000000000000000000000000000000000600000000000000000000000000000000000000000000000000000000000000016000301001101000000000000000000000000000186a000000000000000000000",
          "blockHash": "0x801dd4ae985c8007d39a243da2e071a751fcf68be608be992dc92ed787fbd3c4",
          "blockNumber": "0x188f277",
          "blockTimestamp": "0x6986fb46",
          "transactionHash": "0xb7f6fb172bc1907b782db4a533980d5121afbeb8d57b987f26e6bcc402bd65aa",
          "transactionIndex": "0x10",
          "logIndex": "0x2c",
          "removed": false
        }
      ],
      "logsBloom": "0x00000000000000000000000000000000000000000000000000000000001000000000000000000000000000000000000000000000200000000000400000000000000000000000000000000000000000000000000000000000000000000000000000000000000000000000000000000000000000000000000000000000000000000000000000000000000000000000000000000000000000000000000000080000000000000000000000000000100000000000000000000000000000000000000000000000000000000000000002000000000000000000000000000000000000000000000000000000000000000000000000000000000000000000000000000000",
      "type": "0x2",
      "transactionHash": "0xb7f6fb172bc1907b782db4a533980d5121afbeb8d57b987f26e6bcc402bd65aa",
      "transactionIndex": "0x10",
      "blockHash": "0x801dd4ae985c8007d39a243da2e071a751fcf68be608be992dc92ed787fbd3c4",
      "blockNumber": "0x188f277",
      "gasUsed": "0x15abe",
      "effectiveGasPrice": "0x4a819bf82",
      "from": "0x0ece75f3c36f7df2136dac7633165dbff53de3cd",
      "to": "0x886ba47579dc4f5dcb53ffd20429089a7788c072",
      "contractAddress": null
    }
  ],
  "libraries": [],
  "pending": [],
  "returns": {},
  "timestamp": 1770453832730,
  "chain": 5042002,
  "commit": "6c28441"
}