{
  "transactions": [
    {
      "hash": "0xb4a433937d360f1c5a48f6a3b83ddb4d286df1305cde7491e88a02688909763f",
      "transactionType": "CALL",
      "contractName": null,
      "contractAddress": "0x0c832fee16d5a8bc99b888e16d3712e6bef96fb7",
      "function": "setPeer(uint32,bytes32)",
      "arguments": [
        "40245",
        "0x0000000000000000000000000c832fee16d5a8bc99b888e16d3712e6bef96fb7"
      ],
      "transaction": {
        "from": "0x0ece75f3c36f7df2136dac7633165dbff53de3cd",
        "to": "0x0c832fee16d5a8bc99b888e16d3712e6bef96fb7",
        "gas": "0x11ff9",
        "value": "0x0",
        "input": "0x3400288b0000000000000000000000000000000000000000000000000000000000009d350000000000000000000000000c832fee16d5a8bc99b888e16d3712e6bef96fb7",
        "nonce": "0x15c",
        "chainId": "0x14a34"
      },
      "additionalContracts": [],
      "isFixedGasLimit": false
    },
    {
      "hash": "0xecc97cdd816997a8649462b9fdb6bde24a71975c2ad969bad3ab230a42966247",
      "transactionType": "CALL",
      "contractName": null,
      "contractAddress": "0x0c832fee16d5a8bc99b888e16d3712e6bef96fb7",
      "function": "setPeer(uint32,bytes32)",
      "arguments": [
        "40434",
        "0x0000000000000000000000005c368bd6ce77b2ca47b4ba791fcc1f1645591c84"
      ],
      "transaction": {
        "from": "0x0ece75f3c36f7df2136dac7633165dbff53de3cd",
        "to": "0x0c832fee16d5a8bc99b888e16d3712e6bef96fb7",
        "gas": "0x11ff9",
        "value": "0x0",
        "input": "0x3400288b0000000000000000000000000000000000000000000000000000000000009df20000000000000000000000005c368bd6ce77b2ca47b4ba791fcc1f1645591c84",
        "nonce": "0x15d",
        "chainId": "0x14a34"
      },
      "additionalContracts": [],
      "isFixedGasLimit": false
    },
    {
      "hash": "0x6bb077df7af3ef06738ca2ebb1ce3c98d74f487742fc0d6d5effef52d39eb7bc",
      "transactionType": "CALL",
      "contractName": null,
      "contractAddress": "0x8f388874b0195ca2f9de3e85d17ee3efa0058b7c",
      "function": "setPeer(uint32,bytes32)",
      "arguments": [
        "40245",
        "0x0000000000000000000000008f388874b0195ca2f9de3e85d17ee3efa0058b7c"
      ],
      "transaction": {
        "from": "0x0ece75f3c36f7df2136dac7633165dbff53de3cd",
        "to": "0x8f388874b0195ca2f9de3e85d17ee3efa0058b7c",
        "gas": "0x11ff9",
        "value": "0x0",
        "input": "0x3400288b0000000000000000000000000000000000000000000000000000000000009d350000000000000000000000008f388874b0195ca2f9de3e85d17ee3efa0058b7c",
        "nonce": "0x15e",
        "chainId": "0x14a34"
      },
      "additionalContracts": [],
      "isFixedGasLimit": false
    },
    {
      "hash": "0x2dd7c98fdb8a2de247ebf733eab6fc8aff6cea72fdf94859ba97c4aef963511b",
      "transactionType": "CALL",
      "contractName": null,
      "contractAddress": "0x8f388874b0195ca2f9de3e85d17ee3efa0058b7c",
      "function": "setPeer(uint32,bytes32)",
      "arguments": [
        "40434",
        "0x00000000000000000000000039926da4905f5edb956f5db5f2e2ff044e0882b2"
      ],
      "transaction": {
        "from": "0x0ece75f3c36f7df2136dac7633165dbff53de3cd",
        "to": "0x8f388874b0195ca2f9de3e85d17ee3efa0058b7c",
        "gas": "0x11ff9",
        "value": "0x0",
        "input": "0x3400288b0000000000000000000000000000000000000000000000000000000000009df200000000000000000000000039926da4905f5edb956f5db5f2e2ff044e0882b2",
        "nonce": "0x15f",
        "chainId": "0x14a34"
      },
      "additionalContracts": [],
      "isFixedGasLimit": false
    },
    {
      "hash": "0xb287109567bb01d7d6968cd53211b3ea03b9aaf7bd283892d1f3f54da4241ebf",
      "transactionType": "CALL",
      "contractName": null,
      "contractAddress": "0x427cc6c2359e2a2ababf7a45ce66ba82bb77b282",
      "function": "setPeer(uint32,bytes32)",
      "arguments": [
        "40245",
        "0x000000000000000000000000427cc6c2359e2a2ababf7a45ce66ba82bb77b282"
      ],
      "transaction": {
        "from": "0x0ece75f3c36f7df2136dac7633165dbff53de3cd",
        "to": "0x427cc6c2359e2a2ababf7a45ce66ba82bb77b282",
        "gas": "0x11ff9",
        "value": "0x0",
        "input": "0x3400288b0000000000000000000000000000000000000000000000000000000000009d35000000000000000000000000427cc6c2359e2a2ababf7a45ce66ba82bb77b282",
        "nonce": "0x160",
        "chainId": "0x14a34"
      },
      "additionalContracts": [],
      "isFixedGasLimit": false
    },
    {
      "hash": "0x72059f70fd0dbbb6adaac8284deb0019da4745089eb17065e662a235d709f931",
      "transactionType": "CALL",
      "contractName": null,
      "contractAddress": "0x427cc6c2359e2a2ababf7a45ce66ba82bb77b282",
      "function": "setPeer(uint32,bytes32)",
      "arguments": [
        "40434",
        "0x000000000000000000000000886ba47579dc4f5dcb53ffd20429089a7788c072"
      ],
      "transaction": {
        "from": "0x0ece75f3c36f7df2136dac7633165dbff53de3cd",
        "to": "0x427cc6c2359e2a2ababf7a45ce66ba82bb77b282",
        "gas": "0x11ff9",
        "value": "0x0",
        "input": "0x3400288b0000000000000000000000000000000000000000000000000000000000009df2000000000000000000000000886ba47579dc4f5dcb53ffd20429089a7788c072",
        "nonce": "0x161",
        "chainId": "0x14a34"
      },
      "additionalContracts": [],
      "isFixedGasLimit": false
    }
  ],
  "receipts": [
    {
      "status": "0x1",
      "cumulativeGasUsed": "0x336d28",
      "logs": [
        {
          "address": "0x0c832fee16d5a8bc99b888e16d3712e6bef96fb7",
          "topics": [
            "0x238399d427b947898edb290f5ff0f9109849b1c3ba196a42e35f00c50a54b98b"
          ],
          "data": "0x0000000000000000000000000000000000000000000000000000000000009d350000000000000000000000000c832fee16d5a8bc99b888e16d3712e6bef96fb7",
          "blockHash": "0x0000000000000000000000000000000000000000000000000000000000000000",
          "blockNumber": "0x239cb10",
          "blockTimestamp": "0x6986f500",
          "transactionHash": "0xecc97cdd816997a8649462b9fdb6bde24a71975c2ad969bad3ab230a42966247",
          "transactionIndex": "0xf",
          "logIndex": "0x4a",
          "removed": false
        }
      ],
      "logsBloom": "0x00000000000000000000000000000000000000000000000000000000000000000000000000000000000000000000000000000000000000000800000000000000000000000000000000000000000000000000000000000000000000000000000000000000000000000000000000000000200000000000000000000000000000000000000000000000000000000000000000000000000000000000000000000000000000000000000000000000000000000000000000000000000002000000000000000000000000000000000000000000000000000800000000040000000000000000000000000000000000000000040000000000000000000000000000000000",
      "type": "0x2",
      "transactionHash": "0xecc97cdd816997a8649462b9fdb6bde24a71975c2ad969bad3ab230a42966247",
      "transactionIndex": "0xf",
      "blockHash": "0x0000000000000000000000000000000000000000000000000000000000000000",
      "blockNumber": "0x239cb10",
      "gasUsed": "0xd07e",
      "effectiveGasPrice": "0x124f80",
      "blobGasUsed": "0x79e0",
      "from": "0x0ece75f3c36f7df2136dac7633165dbff53de3cd",
      "to": "0x0c832fee16d5a8bc99b888e16d3712e6bef96fb7",
      "contractAddress": null,
      "daFootprintGasScalar": "0x138",
      "l1BaseFeeScalar": "0x44d",
      "l1BlobBaseFee": "0x3bb1872",
      "l1BlobBaseFeeScalar": "0xa118b",
      "l1Fee": "0x81d0dc8cc",
      "l1GasPrice": "0x40cd2930",
      "l1GasUsed": "0x640"
    },
    {
      "status": "0x1",
      "cumulativeGasUsed": "0x343da6",
      "logs": [
        {
          "address": "0x0c832fee16d5a8bc99b888e16d3712e6bef96fb7",
          "topics": [
            "0x238399d427b947898edb290f5ff0f9109849b1c3ba196a42e35f00c50a54b98b"
          ],
          "data": "0x0000000000000000000000000000000000000000000000000000000000009df20000000000000000000000005c368bd6ce77b2ca47b4ba791fcc1f1645591c84",
          "blockHash": "0x0000000000000000000000000000000000000000000000000000000000000000",
          "blockNumber": "0x239cb10",
          "blockTimestamp": "0x6986f500",
          "transactionHash": "0x2dd7c98fdb8a2de247ebf733eab6fc8aff6cea72fdf94859ba97c4aef963511b",
          "transactionIndex": "0x10",
          "logIndex": "0x4b",
          "removed": false
        }
      ],
      "logsBloom": "0x00000000000000000000000000000000000000000000000000000000000000000000000000000000000000000000000000000000000000000800000000000000000000000000000000000000000000000000000000000000000000000000000000000000000000000000000000000000200000000000000000000000000000000000000000000000000000000000000000000000000000000000000000000000000000000000000000000000000000000000000000000000000002000000000000000000000000000000000000000000000000000800000000040000000000000000000000000000000000000000040000000000000000000000000000000000",
      "type": "0x2",
      "transactionHash": "0x2dd7c98fdb8a2de247ebf733eab6fc8aff6cea72fdf94859ba97c4aef963511b",
      "transactionIndex": "0x10",
      "blockHash": "0x0000000000000000000000000000000000000000000000000000000000000000",
      "blockNumber": "0x239cb10",
      "gasUsed": "0xd07e",
      "effectiveGasPrice": "0x124f80",
      "blobGasUsed": "0x79e0",
      "from": "0x0ece75f3c36f7df2136dac7633165dbff53de3cd",
      "to": "0x0c832fee16d5a8bc99b888e16d3712e6bef96fb7",
      "contractAddress": null,
      "daFootprintGasScalar": "0x138",
      "l1BaseFeeScalar": "0x44d",
      "l1BlobBaseFee": "0x3bb1872",
      "l1BlobBaseFeeScalar": "0xa118b",
      "l1Fee": "0x81d0dc8cc",
      "l1GasPrice": "0x40cd2930",
      "l1GasUsed": "0x640"
    },
    {
      "status": "0x1",
      "cumulativeGasUsed": "0x350e24",
      "logs": [
        {
          "address": "0x8f388874b0195ca2f9de3e85d17ee3efa0058b7c",
          "topics": [
            "0x238399d427b947898edb290f5ff0f9109849b1c3ba196a42e35f00c50a54b98b"
          ],
          "data": "0x0000000000000000000000000000000000000000000000000000000000009d350000000000000000000000008f388874b0195ca2f9de3e85d17ee3efa0058b7c",
          "blockHash": "0x0000000000000000000000000000000000000000000000000000000000000000",
          "blockNumber": "0x239cb10",
          "blockTimestamp": "0x6986f500",
          "transactionHash": "0xb4a433937d360f1c5a48f6a3b83ddb4d286df1305cde7491e88a02688909763f",
          "transactionIndex": "0x11",
          "logIndex": "0x4c",
          "removed": false
        }
      ],
      "logsBloom": "0x00000000000000000000000000000000000000000000000000000000000000000000000000000004000000000000000000000000000000000800000000000000000000000000000000000000000000000000000000000000000000000000000000000000000000000000000000000000000000000000000000000000000000000000000000000000000000000000000000000000000000000000000000000000000000000000000000000000000000000000000000010000000002000000000000000000000000000000000000000000000000000000000000040000000000000000000010000000000000000000000000000000000000000000000000000000",
      "type": "0x2",
      "transactionHash": "0xb4a433937d360f1c5a48f6a3b83ddb4d286df1305cde7491e88a02688909763f",
      "transactionIndex": "0x11",
      "blockHash": "0x0000000000000000000000000000000000000000000000000000000000000000",
      "blockNumber": "0x239cb10",
      "gasUsed": "0xd07e",
      "effectiveGasPrice": "0x124f80",
      "blobGasUsed": "0x79e0",
      "from": "0x0ece75f3c36f7df2136dac7633165dbff53de3cd",
      "to": "0x8f388874b0195ca2f9de3e85d17ee3efa0058b7c",
      "contractAddress": null,
      "daFootprintGasScalar": "0x138",
      "l1BaseFeeScalar": "0x44d",
      "l1BlobBaseFee": "0x3bb1872",
      "l1BlobBaseFeeScalar": "0xa118b",
      "l1Fee": "0x81d0dc8cc",
      "l1GasPrice": "0x40cd2930",
      "l1GasUsed": "0x640"
    },
    {
      "status": "0x1",
      "cumulativeGasUsed": "0x35dea2",
      "logs": [
        {
          "address": "0x8f388874b0195ca2f9de3e85d17ee3efa0058b7c",
          "topics": [
            "0x238399d427b947898edb290f5ff0f9109849b1c3ba196a42e35f00c50a54b98b"
          ],
          "data": "0x0000000000000000000000000000000000000000000000000000000000009df200000000000000000000000039926da4905f5edb956f5db5f2e2ff044e0882b2",
          "blockHash": "0x0000000000000000000000000000000000000000000000000000000000000000",
          "blockNumber": "0x239cb10",
          "blockTimestamp": "0x6986f500",
          "transactionHash": "0x6bb077df7af3ef06738ca2ebb1ce3c98d74f487742fc0d6d5effef52d39eb7bc",
          "transactionIndex": "0x12",
          "logIndex": "0x4d",
          "removed": false
        }
      ],
      "logsBloom": "0x00000000000000000000000000000000000000000000000000000000000000000000000000000004000000000000000000000000000000000800000000000000000000000000000000000000000000000000000000000000000000000000000000000000000000000000000000000000000000000000000000000000000000000000000000000000000000000000000000000000000000000000000000000000000000000000000000000000000000000000000000010000000002000000000000000000000000000000000000000000000000000000000000040000000000000000000010000000000000000000000000000000000000000000000000000000",
      "type": "0x2",
      "transactionHash": "0x6bb077df7af3ef06738ca2ebb1ce3c98d74f487742fc0d6d5effef52d39eb7bc",
      "transactionIndex": "0x12",
      "blockHash": "0x0000000000000000000000000000000000000000000000000000000000000000",
      "blockNumber": "0x239cb10",
      "gasUsed": "0xd07e",
      "effectiveGasPrice": "0x124f80",
      "blobGasUsed": "0x79e0",
      "from": "0x0ece75f3c36f7df2136dac7633165dbff53de3cd",
      "to": "0x8f388874b0195ca2f9de3e85d17ee3efa0058b7c",
      "contractAddress": null,
      "daFootprintGasScalar": "0x138",
      "l1BaseFeeScalar": "0x44d",
      "l1BlobBaseFee": "0x3bb1872",
      "l1BlobBaseFeeScalar": "0xa118b",
      "l1Fee": "0x81d0dc8cc",
      "l1GasPrice": "0x40cd2930",
      "l1GasUsed": "0x640"
    },
    {
      "status": "0x1",
      "cumulativeGasUsed": "0x36af20",
      "logs": [
        {
          "address": "0x427cc6c2359e2a2ababf7a45ce66ba82bb77b282",
          "topics": [
            "0x238399d427b947898edb290f5ff0f9109849b1c3ba196a42e35f00c50a54b98b"
          ],
          "data": "0x0000000000000000000000000000000000000000000000000000000000009d35000000000000000000000000427cc6c2359e2a2ababf7a45ce66ba82bb77b282",
          "blockHash": "0x0000000000000000000000000000000000000000000000000000000000000000",
          "blockNumber": "0x239cb10",
          "blockTimestamp": "0x6986f500",
          "transactionHash": "0xb287109567bb01d7d6968cd53211b3ea03b9aaf7bd283892d1f3f54da4241ebf",
          "transactionIndex": "0x13",
          "logIndex": "0x4e",
          "removed": false
        }
      ],
      "logsBloom": "0x00000000000000000000000000000000000000000000000000000000000000000000000000000000000000000000000000000000000000000800000000000000000000000000000000000000000000000000000000000000000000000000000000000000000000000000008000000000000000000000000000000000000000000000000000000000000000000000000000000000000000000000000000000002000000000000000000000000000000000000000000000000000002000000000000000000000000000000000000000000000000000000000000040000000000000000000000000000000004000000000000000000000000000000000000000000",
      "type": "0x2",
      "transactionHash": "0xb287109567bb01d7d6968cd53211b3ea03b9aaf7bd283892d1f3f54da4241ebf",
      "transactionIndex": "0x13",
      "blockHash": "0x0000000000000000000000000000000000000000000000000000000000000000",
      "blockNumber": "0x239cb10",
      "gasUsed": "0xd07e",
      "effectiveGasPrice": "0x124f80",
      "blobGasUsed": "0x79e0",
      "from": "0x0ece75f3c36f7df2136dac7633165dbff53de3cd",
      "to": "0x427cc6c2359e2a2ababf7a45ce66ba82bb77b282",
      "contractAddress": null,
      "daFootprintGasScalar": "0x138",
      "l1BaseFeeScalar": "0x44d",
      "l1BlobBaseFee": "0x3bb1872",
      "l1BlobBaseFeeScalar": "0xa118b",
      "l1Fee": "0x81d0dc8cc",
      "l1GasPrice": "0x40cd2930",
      "l1GasUsed": "0x640"
    },
    {
      "status": "0x1",
      "cumulativeGasUsed": "0x377f9e",
      "logs": [
        {
          "address": "0x427cc6c2359e2a2ababf7a45ce66ba82bb77b282",
          "topics": [
            "0x238399d427b947898edb290f5ff0f9109849b1c3ba196a42e35f00c50a54b98b"
          ],
          "data": "0x0000000000000000000000000000000000000000000000000000000000009df2000000000000000000000000886ba47579dc4f5dcb53ffd20429089a7788c072",
          "blockHash": "0x0000000000000000000000000000000000000000000000000000000000000000",
          "blockNumber": "0x239cb10",
          "blockTimestamp": "0x6986f500",
          "transactionHash": "0x72059f70fd0dbbb6adaac8284deb0019da4745089eb17065e662a235d709f931",
          "transactionIndex": "0x14",
          "logIndex": "0x4f",
          "removed": false
        }
      ],
      "logsBloom": "0x00000000000000000000000000000000000000000000000000000000000000000000000000000000000000000000000000000000000000000800000000000000000000000000000000000000000000000000000000000000000000000000000000000000000000000000008000000000000000000000000000000000000000000000000000000000000000000000000000000000000000000000000000000002000000000000000000000000000000000000000000000000000002000000000000000000000000000000000000000000000000000000000000040000000000000000000000000000000004000000000000000000000000000000000000000000",
      "type": "0x2",
      "transactionHash": "0x72059f70fd0dbbb6adaac8284deb0019da4745089eb17065e662a235d709f931",
      "transactionIndex": "0x14",
      "blockHash": "0x0000000000000000000000000000000000000000000000000000000000000000",
      "blockNumber": "0x239cb10",
      "gasUsed": "0xd07e",
      "effectiveGasPrice": "0x124f80",
      "blobGasUsed": "0x79e0",
      "from": "0x0ece75f3c36f7df2136dac7633165dbff53de3cd",
      "to": "0x427cc6c2359e2a2ababf7a45ce66ba82bb77b282",
      "contractAddress": null,
      "daFootprintGasScalar": "0x138",
      "l1BaseFeeScalar": "0x44d",
      "l1BlobBaseFee": "0x3bb1872",
      "l1BlobBaseFeeScalar": "0xa118b",
      "l1Fee": "0x81d0dc8cc",
      "l1GasPrice": "0x40cd2930",
      "l1GasUsed": "0x640"
    }
  ],
  "libraries": [],
  "pending": [],
  "returns": {},
  "timestamp": 1770452223941,
  "chain": 84532,
  "commit": "6c28441"
}