{
  "transactions": [
    {
      "hash": "0xc7b2f4c7baa94c5b2b734d3503745325adec10b1a151ec533eee663c62af3fd9",
      "transactionType": "CALL",
      "contractName": null,
      "contractAddress": "0x0c832fee16d5a8bc99b888e16d3712e6bef96fb7",
      "function": "setEnforcedOptions((uint32,uint16,bytes)[])",
      "arguments": [
        "[(40245, 1, 0x00030100110100000000000000000000000000013880), (40434, 1, 0x000301001101000000000000000000000000000186a0)]"
      ],
      "transaction": {
        "from": "0x0ece75f3c36f7df2136dac7633165dbff53de3cd",
        "to": "0x0c832fee16d5a8bc99b888e16d3712e6bef96fb7",
        "gas": "0x1deee",
        "value": "0x0",
        "input": "0xb98bd07000000000000000000000000000000000000000000000000000000000000000200000000000000000000000000000000000000000000000000000000000000002000000000000000000000000000000000000000000000000000000000000004000000000000000000000000000000000000000000000000000000000000000e00000000000000000000000000000000000000000000000000000000000009d3500000000000000000000000000000000000000000000000000000000000000010000000000000000000000000000000000000000000000000000000000000060000000000000000000000000000000000000000000000000000000000000001600030100110100000000000000000000000000013880000000000000000000000000000000000000000000000000000000000000000000000000000000009df2000000000000000000000000000000000000000000000000000000000000000100000000000000000000000000000000000000000000000000000000000000600000000000000000000000000000000000000000000000000000000000000016000301001101000000000000000000000000000186a000000000000000000000",
        "nonce": "0x162",
        "chainId": "0x14a34"
      },
      "additionalContracts": [],
      "isFixedGasLimit": false
    },
    {
      "hash": "0xfbd0db37036b46d1ceafaf9fb425bf63ed2ee59c1bfb7c74b8f29001746d4756",
      "transactionType": "CALL",
      "contractName": null,
      "contractAddress": "0x8f388874b0195ca2f9de3e85d17ee3efa0058b7c",
      "function": "setEnforcedOptions((uint32,uint16,bytes)[])",
      "arguments": [
        "[(40245, 1, 0x00030100110100000000000000000000000000013880), (40434, 1, 0x000301001101000000000000000000000000000186a0)]"
      ],
      "transaction": {
        "from": "0x0ece75f3c36f7df2136dac7633165dbff53de3cd",
        "to": "0x8f388874b0195ca2f9de3e85d17ee3efa0058b7c",
        "gas": "0x1deee",
        "value": "0x0",
        "input": "0xb98bd07000000000000000000000000000000000000000000000000000000000000000200000000000000000000000000000000000000000000000000000000000000002000000000000000000000000000000000000000000000000000000000000004000000000000000000000000000000000000000000000000000000000000000e00000000000000000000000000000000000000000000000000000000000009d3500000000000000000000000000000000000000000000000000000000000000010000000000000000000000000000000000000000000000000000000000000060000000000000000000000000000000000000000000000000000000000000001600030100110100000000000000000000000000013880000000000000000000000000000000000000000000000000000000000000000000000000000000009df2000000000000000000000000000000000000000000000000000000000000000100000000000000000000000000000000000000000000000000000000000000600000000000000000000000000000000000000000000000000000000000000016000301001101000000000000000000000000000186a000000000000000000000",
        "nonce": "0x163",
        "chainId": "0x14a34"
      },
      "additionalContracts": [],
      "isFixedGasLimit": false
    },
    {
      "hash": "0xae26949ef4786df77d544ec0f6005f9710ff9dc5b3d463c4100d4e979d59db37",
      "transactionType": "CALL",
      "contractName": null,
      "contractAddress": "0x427cc6c2359e2a2ababf7a45ce66ba82bb77b282",
      "function": "setEnforcedOptions((uint32,uint16,bytes)[])",
      "arguments": [
        "[(40245, 1, 0x00030100110100000000000000000000000000013880), (40434, 1, 0x000301001101000000000000000000000000000186a0)]"
      ],
      "transaction": {
        "from": "0x0ece75f3c36f7df2136dac7633165dbff53de3cd",
        "to": "0x427cc6c2359e2a2ababf7a45ce66ba82bb77b282",
        "gas": "0x1deee",
        "value": "0x0",
        "input": "0xb98bd07000000000000000000000000000000000000000000000000000000000000000200000000000000000000000000000000000000000000000000000000000000002000000000000000000000000000000000000000000000000000000000000004000000000000000000000000000000000000000000000000000000000000000e00000000000000000000000000000000000000000000000000000000000009d3500000000000000000000000000000000000000000000000000000000000000010000000000000000000000000000000000000000000000000000000000000060000000000000000000000000000000000000000000000000000000000000001600030100110100000000000000000000000000013880000000000000000000000000000000000000000000000000000000000000000000000000000000009df2000000000000000000000000000000000000000000000000000000000000000100000000000000000000000000000000000000000000000000000000000000600000000000000000000000000000000000000000000000000000000000000016000301001101000000000000000000000000000186a000000000000000000000",
        "nonce": "0x164",
        "chainId": "0x14a34"
      },
      "additionalContracts": [],
      "isFixedGasLimit": false
    }
  ],
  "receipts": [
    {
      "status": "0x1",
      "cumulativeGasUsed": "0x27ed14",
      "logs": [
        {
          "address": "0x0c832fee16d5a8bc99b888e16d3712e6bef96fb7",
          "topics": [
            "0xbe4864a8e820971c0247f5992e2da559595f7bf076a21cb5928d443d2a13b674"
          ],
          "data": "0x00000000000000000000000000000000000000000000000000000000000000200000000000000000000000000000000000000000000000000000000000000002000000000000000000000000000000000000000000000000000000000000004000000000000000000000000000000000000000000000000000000000000000e00000000000000000000000000000000000000000000000000000000000009d3500000000000000000000000000000000000000000000000000000000000000010000000000000000000000000000000000000000000000000000000000000060000000000000000000000000000000000000000000000000000000000000001600030100110100000000000000000000000000013880000000000000000000000000000000000000000000000000000000000000000000000000000000009df2000000000000000000000000000000000000000000000000000000000000000100000000000000000000000000000000000000000000000000000000000000600000000000000000000000000000000000000000000000000000000000000016000301001101000000000000000000000000000186a000000000000000000000",
          "blockHash": "0x0000000000000000000000000000000000000000000000000000000000000000",
          "blockNumber": "0x239cb21",
          "blockTimestamp": "0x6986f522",
          "transactionHash": "0xfbd0db37036b46d1ceafaf9fb425bf63ed2ee59c1bfb7c74b8f29001746d4756",
          "transactionIndex": "0x9",
          "logIndex": "0x31",
          "removed": false
        }
      ],
      "logsBloom": "0x00000000000000000000000000000000000000000000000000000000000000000000000000000000000000000000000000000000000000000000400000000000000000000000000000000000000000000000000000000000000000000000000000000000000000000000000000000000200000000000000000000000000000000000000000000000000000000000000000000000000000000000000000080000000000000000000000000000000000000000000000000000000000000000000000000000000000000000000002000000000000000800000000000000000000000000000000000000000000000000040000000000000000000000000000000000",
      "type": "0x2",
      "transactionHash": "0xfbd0db37036b46d1ceafaf9fb425bf63ed2ee59c1bfb7c74b8f29001746d4756",
      "transactionIndex": "0x9",
      "blockHash": "0x0000000000000000000000000000000000000000000000000000000000000000",
      "blockNumber": "0x239cb21",
      "gasUsed": "0x15abe",
      "effectiveGasPrice": "0x124f80",
      "blobGasUsed": "0xa968",
      "from": "0x0ece75f3c36f7df2136dac7633165dbff53de3cd",
      "to": "0x0c832fee16d5a8bc99b888e16d3712e6bef96fb7",
      "contractAddress": null,
      "daFootprintGasScalar": "0x138",
      "l1BaseFeeScalar": "0x44d",
      "l1BlobBaseFee": "0x349131b",
      "l1BlobBaseFeeScalar": "0xa118b",
      "l1Fee": "0x14af62d3a",
      "l1GasPrice": "0x40cf9c94",
      "l1GasUsed": "0x8bc"
    },
    {
      "status": "0x1",
      "cumulativeGasUsed": "0x2947d2",
      "logs": [
        {
          "address": "0x8f388874b0195ca2f9de3e85d17ee3efa0058b7c",
          "topics": [
            "0xbe4864a8e820971c0247f5992e2da559595f7bf076a21cb5928d443d2a13b674"
          ],
          "data": "0x00000000000000000000000000000000000000000000000000000000000000200000000000000000000000000000000000000000000000000000000000000002000000000000000000000000000000000000000000000000000000000000004000000000000000000000000000000000000000000000000000000000000000e00000000000000000000000000000000000000000000000000000000000009d3500000000000000000000000000000000000000000000000000000000000000010000000000000000000000000000000000000000000000000000000000000060000000000000000000000000000000000000000000000000000000000000001600030100110100000000000000000000000000013880000000000000000000000000000000000000000000000000000000000000000000000000000000009df2000000000000000000000000000000000000000000000000000000000000000100000000000000000000000000000000000000000000000000000000000000600000000000000000000000000000000000000000000000000000000000000016000301001101000000000000000000000000000186a000000000000000000000",
          "blockHash": "0x96c128f20a27bdeab80e00c1c66045d075e055cb7c9f71a25cc63c2b0f495899",
          "blockNumber": "0x239cb21",
          "blockTimestamp": "0x6986f522",
          "transactionHash": "0xc7b2f4c7baa94c5b2b734d3503745325adec10b1a151ec533eee663c62af3fd9",
          "transactionIndex": "0xa",
          "logIndex": "0x32",
          "removed": false
        }
      ],
      "logsBloom": "0x00000000000000000000000000000000000000000000000000000000000000000000000000000004000000000000000000000000000000000000400000000000000000000000000000000000000000000000000000000000000000000000000000000000000000000000000000000000000000000000000000000000000000000000000000000000000000000000000000000000000000000000000000080000000000000000000000000000000000000000000000010000000000000000000000000000000000000000000002000000000000000000000000000000000000000000000010000000000000000000000000000000000000000000000000000000",
      "type": "0x2",
      "transactionHash": "0xc7b2f4c7baa94c5b2b734d3503745325adec10b1a151ec533eee663c62af3fd9",
      "transactionIndex": "0xa",
      "blockHash": "0x96c128f20a27bdeab80e00c1c66045d075e055cb7c9f71a25cc63c2b0f495899",
      "blockNumber": "0x239cb21",
      "gasUsed": "0x15abe",
      "effectiveGasPrice": "0x124f80",
      "blobGasUsed": "0xa968",
      "from": "0x0ece75f3c36f7df2136dac7633165dbff53de3cd",
      "to": "0x8f388874b0195ca2f9de3e85d17ee3efa0058b7c",
      "contractAddress": null,
      "daFootprintGasScalar": "0x138",
      "l1BaseFeeScalar": "0x44d",
      "l1BlobBaseFee": "0x349131b",
      "l1BlobBaseFeeScalar": "0xa118b",
      "l1Fee": "0x1ce96f69a",
      "l1GasPrice": "0x40cf9c94",
      "l1GasUsed": "0x8bc"
    },
    {
      "status": "0x1",
      "cumulativeGasUsed": "0x2aa290",
      "logs": [
        {
          "address": "0x427cc6c2359e2a2ababf7a45ce66ba82bb77b282",
          "topics": [
            "0xbe4864a8e820971c0247f5992e2da559595f7bf076a21cb5928d443d2a13b674"
          ],
          "data": "0x00000000000000000000000000000000000000000000000000000000000000200000000000000000000000000000000000000000000000000000000000000002000000000000000000000000000000000000000000000000000000000000004000000000000000000000000000000000000000000000000000000000000000e00000000000000000000000000000000000000000000000000000000000009d3500000000000000000000000000000000000000000000000000000000000000010000000000000000000000000000000000000000000000000000000000000060000000000000000000000000000000000000000000000000000000000000001600030100110100000000000000000000000000013880000000000000000000000000000000000000000000000000000000000000000000000000000000009df2000000000000000000000000000000000000000000000000000000000000000100000000000000000000000000000000000000000000000000000000000000600000000000000000000000000000000000000000000000000000000000000016000301001101000000000000000000000000000186a000000000000000000000",
          "blockHash": "0x0000000000000000000000000000000000000000000000000000000000000000",
          "blockNumber": "0x239cb21",
          "blockTimestamp": "0x6986f522",
          "transactionHash": "0xae26949ef4786df77d544ec0f6005f9710ff9dc5b3d463c4100d4e979d59db37",
          "transactionIndex": "0xb",
          "logIndex": "0x33",
          "removed": false
        }
      ],
      "logsBloom": "0x00000000000000000000000000000000000000000000000000000000000000000000000000000000000000000000000000000000000000000000400000000000000000000000000000000000000000000000000000000000000000000000000000000000000000000000008000000000000000000000000000000000000000000000000000000000000000000000000000000000000000000000000000080002000000000000000000000000000000000000000000000000000000000000000000000000000000000000000002000000000000000000000000000000000000000000000000000000000004000000000000000000000000000000000000000000",
      "type": "0x2",
      "transactionHash": "0xae26949ef4786df77d544ec0f6005f9710ff9dc5b3d463c4100d4e979d59db37",
      "transactionIndex": "0xb",
      "blockHash": "0x0000000000000000000000000000000000000000000000000000000000000000",
      "blockNumber": "0x239cb21",
      "gasUsed": "0x15abe",
      "effectiveGasPrice": "0x124f80",
      "blobGasUsed": "0xa968",
      "from": "0x0ece75f3c36f7df2136dac7633165dbff53de3cd",
      "to": "0x427cc6c2359e2a2ababf7a45ce66ba82bb77b282",
      "contractAddress": null,
      "daFootprintGasScalar": "0x138",
      "l1BaseFeeScalar": "0x44d",
      "l1BlobBaseFee": "0x349131b",
      "l1BlobBaseFeeScalar": "0xa118b",
      "l1Fee": "0x14af62d3a",
      "l1GasPrice": "0x40cf9c94",
      "l1GasUsed": "0x8bc"
    }
  ],
  "libraries": [],
  "pending": [],
  "returns": {},
  "timestamp": 1770452258331,
  "chain": 84532,
  "commit": "6c28441"
}