{
  "transactions": [
    {
      "hash": "0xe397320406658f888243b1efcc7b957dc4c89b51cb9a523fce0c9e29efd94328",
      "transactionType": "CALL",
      "contractName": null,
      "contractAddress": "0x5c368bd6ce77b2ca47b4ba791fcc1f1645591c84",
      "function": "setPeer(uint32,bytes32)",
      "arguments": [
        "40434",
        "0x0000000000000000000000005c368bd6ce77b2ca47b4ba791fcc1f1645591c84"
      ],
      "transaction": {
        "from": "0x0ece75f3c36f7df2136dac7633165dbff53de3cd",
        "to": "0x5c368bd6ce77b2ca47b4ba791fcc1f1645591c84",
        "gas": "0x11ff9",
        "value": "0x0",
        "input": "0x3400288b0000000000000000000000000000000000000000000000000000000000009df20000000000000000000000005c368bd6ce77b2ca47b4ba791fcc1f1645591c84",
        "nonce": "0x1e",
        "chainId": "0x4cef52"
      },
      "additionalContracts": [],
      "isFixedGasLimit": false
    },
    {
      "hash": "0x7f43aa72048ddca3d5b3db5f67bc5f2303ce431eabf2f8ebc7e08dba4d72d308",
      "transactionType": "CALL",
      "contractName": null,
      "contractAddress": "0x5c368bd6ce77b2ca47b4ba791fcc1f1645591c84",
      "function": "setPeer(uint32,bytes32)",
      "arguments": [
        "40245",
        "0x0000000000000000000000000c832fee16d5a8bc99b888e16d3712e6bef96fb7"
      ],
      "transaction": {
        "from": "0x0ece75f3c36f7df2136dac7633165dbff53de3cd",
        "to": "0x5c368bd6ce77b2ca47b4ba791fcc1f1645591c84",
        "gas": "0x11ff9",
        "value": "0x0",
        "input": "0x3400288b0000000000000000000000000000000000000000000000000000000000009d350000000000000000000000000c832fee16d5a8bc99b888e16d3712e6bef96fb7",
        "nonce": "0x1f",
        "chainId": "0x4cef52"
      },
      "additionalContracts": [],
      "isFixedGasLimit": false
    },
    {
      "hash": "0xd9049617a882ba0ef1436bfde6a09e59e94d56871f03028531a5354f22b0825d",
      "transactionType": "CALL",
      "contractName": null,
      "contractAddress": "0x39926da4905f5edb956f5db5f2e2ff044e0882b2",
      "function": "setPeer(uint32,bytes32)",
      "arguments": [
        "40434",
        "0x00000000000000000000000039926da4905f5edb956f5db5f2e2ff044e0882b2"
      ],
      "transaction": {
        "from": "0x0ece75f3c36f7df2136dac7633165dbff53de3cd",
        "to": "0x39926da4905f5edb956f5db5f2e2ff044e0882b2",
        "gas": "0x11ff9",
        "value": "0x0",
        "input": "0x3400288b0000000000000000000000000000000000000000000000000000000000009df200000000000000000000000039926da4905f5edb956f5db5f2e2ff044e0882b2",
        "nonce": "0x20",
        "chainId": "0x4cef52"
      },
      "additionalContracts": [],
      "isFixedGasLimit": false
    },
    {
      "hash": "0x9cf058d88ceb37ba2cae72414655e48923266a37261db4a8afde8c417f3f55e0",
      "transactionType": "CALL",
      "contractName": null,
      "contractAddress": "0x39926da4905f5edb956f5db5f2e2ff044e0882b2",
      "function": "setPeer(uint32,bytes32)",
      "arguments": [
        "40245",
        "0x0000000000000000000000008f388874b0195ca2f9de3e85d17ee3efa0058b7c"
      ],
      "transaction": {
        "from": "0x0ece75f3c36f7df2136dac7633165dbff53de3cd",
        "to": "0x39926da4905f5edb956f5db5f2e2ff044e0882b2",
        "gas": "0x11ff9",
        "value": "0x0",
        "input": "0x3400288b0000000000000000000000000000000000000000000000000000000000009d350000000000000000000000008f388874b0195ca2f9de3e85d17ee3efa0058b7c",
        "nonce": "0x21",
        "chainId": "0x4cef52"
      },
      "additionalContracts": [],
      "isFixedGasLimit": false
    },
    {
      "hash": "0x36e119d7af89476d6e41cec6443b7be131681d3e761eca5c4f9a34f4e17ff61f",
      "transactionType": "CALL",
      "contractName": null,
      "contractAddress": "0x886ba47579dc4f5dcb53ffd20429089a7788c072",
      "function": "setPeer(uint32,bytes32)",
      "arguments": [
        "40434",
        "0x000000000000000000000000886ba47579dc4f5dcb53ffd20429089a7788c072"
      ],
      "transaction": {
        "from": "0x0ece75f3c36f7df2136dac7633165dbff53de3cd",
        "to": "0x886ba47579dc4f5dcb53ffd20429089a7788c072",
        "gas": "0x11ff9",
        "value": "0x0",
        "input": "0x3400288b0000000000000000000000000000000000000000000000000000000000009df2000000000000000000000000886ba47579dc4f5dcb53ffd20429089a7788c072",
        "nonce": "0x22",
        "chainId": "0x4cef52"
      },
      "additionalContracts": [],
      "isFixedGasLimit": false
    },
    {
      "hash": "0xec4a74b3a2ff6191736035ccf1d39ca0346913d4aa2c288f593866fedea2ac97",
      "transactionType": "CALL",
      "contractName": null,
      "contractAddress": "0x886ba47579dc4f5dcb53ffd20429089a7788c072",
      "function": "setPeer(uint32,bytes32)",
      "arguments": [
        "40245",
        "0x000000000000000000000000427cc6c2359e2a2ababf7a45ce66ba82bb77b282"
      ],
      "transaction": {
        "from": "0x0ece75f3c36f7df2136dac7633165dbff53de3cd",
        "to": "0x886ba47579dc4f5dcb53ffd20429089a7788c072",
        "gas": "0x11ff9",
        "value": "0x0",
        "input": "0x3400288b0000000000000000000000000000000000000000000000000000000000009d35000000000000000000000000427cc6c2359e2a2ababf7a45ce66ba82bb77b282",
        "nonce": "0x23",
        "chainId": "0x4cef52"
      },
      "additionalContracts": [],
      "isFixedGasLimit": false
    }
  ],
  "receipts": [
    {
      "status": "0x1",
      "cumulativeGasUsed": "0x14fbe3",
      "logs": [
        {
          "address": "0x5c368bd6ce77b2ca47b4ba791fcc1f1645591c84",
          "topics": [
            "0x238399d427b947898edb290f5ff0f9109849b1c3ba196a42e35f00c50a54b98b"
          ],
          "data": "0x0000000000000000000000000000000000000000000000000000000000009df20000000000000000000000005c368bd6ce77b2ca47b4ba791fcc1f1645591c84",
          "blockHash": "0xd4562bd257d09a82012d70756c22df2465e14f365cf19a5e2113b19c896e1a00",
          "blockNumber": "0x188f235",
          "blockTimestamp": "0x6986fb25",
          "transactionHash": "0xe397320406658f888243b1efcc7b957dc4c89b51cb9a523fce0c9e29efd94328",
          "transactionIndex": "0xd",
          "logIndex": "0x29",
          "removed": false
        }
      ],
      "logsBloom": "0x00000000000000000000000000000000000000000000000000000000000000000000000000080000000000000000000000000000000040000800000000000000000000000000000000000000000000000000000000000000000000000000000020000000000000000000000000000000000000000000000000000000000000000000000000000000000000000000000000000000000000000000000000000000000000000000000000000000000000000000000000000000000002000000000000000000000000000000000000000000000000000000000000040000000000000000000000000000000000000000000000000000000000000000000000000000",
      "type": "0x2",
      "transactionHash": "0xe397320406658f888243b1efcc7b957dc4c89b51cb9a523fce0c9e29efd94328",
      "transactionIndex": "0xd",
      "blockHash": "0xd4562bd257d09a82012d70756c22df2465e14f365cf19a5e2113b19c896e1a00",
      "blockNumber": "0x188f235",
      "gasUsed": "0xd07e",
      "effectiveGasPrice": "0x4a819a7b1",
      "from": "0x0ece75f3c36f7df2136dac7633165dbff53de3cd",
      "to": "0x5c368bd6ce77b2ca47b4ba791fcc1f1645591c84",
      "contractAddress": null
    },
    {
      "status": "0x1",
      "cumulativeGasUsed": "0x15cc61",
      "logs": [
        {
          "address": "0x5c368bd6ce77b2ca47b4ba791fcc1f1645591c84",
          "topics": [
            "0x238399d427b947898edb290f5ff0f9109849b1c3ba196a42e35f00c50a54b98b"
          ],
          "data": "0x0000000000000000000000000000000000000000000000000000000000009d350000000000000000000000000c832fee16d5a8bc99b888e16d3712e6bef96fb7",
          "blockHash": "0xd4562bd257d09a82012d70756c22df2465e14f365cf19a5e2113b19c896e1a00",
          "blockNumber": "0x188f235",
          "blockTimestamp": "0x6986fb25",
          "transactionHash": "0x7f43aa72048ddca3d5b3db5f67bc5f2303ce431eabf2f8ebc7e08dba4d72d308",
          "transactionIndex": "0xe",
          "logIndex": "0x2a",
          "removed": false
        }
      ],
      "logsBloom": "0x00000000000000000000000000000000000000000000000000000000000000000000000000080000000000000000000000000000000040000800000000000000000000000000000000000000000000000000000000000000000000000000000020000000000000000000000000000000000000000000000000000000000000000000000000000000000000000000000000000000000000000000000000000000000000000000000000000000000000000000000000000000000002000000000000000000000000000000000000000000000000000000000000040000000000000000000000000000000000000000000000000000000000000000000000000000",
      "type": "0x2",
      "transactionHash": "0x7f43aa72048ddca3d5b3db5f67bc5f2303ce431eabf2f8ebc7e08dba4d72d308",
      "transactionIndex": "0xe",
      "blockHash": "0xd4562bd257d09a82012d70756c22df2465e14f365cf19a5e2113b19c896e1a00",
      "blockNumber": "0x188f235",
      "gasUsed": "0xd07e",
      "effectiveGasPrice": "0x4a819a7b1",
      "from": "0x0ece75f3c36f7df2136dac7633165dbff53de3cd",
      "to": "0x5c368bd6ce77b2ca47b4ba791fcc1f1645591c84",
      "contractAddress": null
    },
    {
      "status": "0x1",
      "cumulativeGasUsed": "0x169cdf",
      "logs": [
        {
          "address": "0x39926da4905f5edb956f5db5f2e2ff044e0882b2",
          "topics": [
            "0x238399d427b947898edb290f5ff0f9109849b1c3ba196a42e35f00c50a54b98b"
          ],
          "data": "0x0000000000000000000000000000000000000000000000000000000000009df200000000000000000000000039926da4905f5edb956f5db5f2e2ff044e0882b2",
          "blockHash": "0xd4562bd257d09a82012d70756c22df2465e14f365cf19a5e2113b19c896e1a00",
          "blockNumber": "0x188f235",
          "blockTimestamp": "0x6986fb25",
          "transactionHash": "0x9cf058d88ceb37ba2cae72414655e48923266a37261db4a8afde8c417f3f55e0",
          "transactionIndex": "0xf",
          "logIndex": "0x2b",
          "removed": false
        }
      ],
      "logsBloom": "0x00000000000000000000000000000000000000000000000000000000000000000000000000000000000000000000000000000000000000000800000000000000000000020000000000000000000000000000000000000000000000000000000000000000000000000000000000000000000000000000000000000000000000000000000000000000000000008000000000000000000000000000000000000000000000000000000000000000000000000000000000000000000002000000000000000000000000000000000000000000000000000000000000040000000000000000000080000000000000000000000000000000000000000000000000000000",
      "type": "0x2",
      "transactionHash": "0x9cf058d88ceb37ba2cae72414655e48923266a37261db4a8afde8c417f3f55e0",
      "transactionIndex": "0xf",
      "blockHash": "0xd4562bd257d09a82012d70756c22df2465e14f365cf19a5e2113b19c896e1a00",
      "blockNumber": "0x188f235",
      "gasUsed": "0xd07e",
      "effectiveGasPrice": "0x4a819a7b1",
      "from": "0x0ece75f3c36f7df2136dac7633165dbff53de3cd",
      "to": "0x39926da4905f5edb956f5db5f2e2ff044e0882b2",
      "contractAddress": null
    },
    {
      "status": "0x1",
      "cumulativeGasUsed": "0x176d5d",
      "logs": [
        {
          "address": "0x39926da4905f5edb956f5db5f2e2ff044e0882b2",
          "topics": [
            "0x238399d427b947898edb290f5ff0f9109849b1c3ba196a42e35f00c50a54b98b"
          ],
          "data": "0x0000000000000000000000000000000000000000000000000000000000009d350000000000000000000000008f388874b0195ca2f9de3e85d17ee3efa0058b7c",
          "blockHash": "0xd4562bd257d09a82012d70756c22df2465e14f365cf19a5e2113b19c896e1a00",
          "blockNumber": "0x188f235",
          "blockTimestamp": "0x6986fb25",
          "transactionHash": "0xd9049617a882ba0ef1436bfde6a09e59e94d56871f03028531a5354f22b0825d",
          "transactionIndex": "0x10",
          "logIndex": "0x2c",
          "removed": false
        }
      ],
      "logsBloom": "0x00000000000000000000000000000000000000000000000000000000000000000000000000000000000000000000000000000000000000000800000000000000000000020000000000000000000000000000000000000000000000000000000000000000000000000000000000000000000000000000000000000000000000000000000000000000000000008000000000000000000000000000000000000000000000000000000000000000000000000000000000000000000002000000000000000000000000000000000000000000000000000000000000040000000000000000000080000000000000000000000000000000000000000000000000000000",
      "type": "0x2",
      "transactionHash": "0xd9049617a882ba0ef1436bfde6a09e59e94d56871f03028531a5354f22b0825d",
      "transactionIndex": "0x10",
      "blockHash": "0xd4562bd257d09a82012d70756c22df2465e14f365cf19a5e2113b19c896e1a00",
      "blockNumber": "0x188f235",
      "gasUsed": "0xd07e",
      "effectiveGasPrice": "0x4a819a7b1",
      "from": "0x0ece75f3c36f7df2136dac7633165dbff53de3cd",
      "to": "0x39926da4905f5edb956f5db5f2e2ff044e0882b2",
      "contractAddress": null
    },
    {
      "status": "0x1",
      "cumulativeGasUsed": "0x183ddb",
      "logs": [
        {
          "address": "0x886ba47579dc4f5dcb53ffd20429089a7788c072",
          "topics": [
            "0x238399d427b947898edb290f5ff0f9109849b1c3ba196a42e35f00c50a54b98b"
          ],
          "data": "0x0000000000000000000000000000000000000000000000000000000000009df2000000000000000000000000886ba47579dc4f5dcb53ffd20429089a7788c072",
          "blockHash": "0xd4562bd257d09a82012d70756c22df2465e14f365cf19a5e2113b19c896e1a00",
          "blockNumber": "0x188f235",
          "blockTimestamp": "0x6986fb25",
          "transactionHash": "0x36e119d7af89476d6e41cec6443b7be131681d3e761eca5c4f9a34f4e17ff61f",
          "transactionIndex": "0x11",
          "logIndex": "0x2d",
          "removed": false
        }
      ],
      "logsBloom": "0x00000000000000000000000000000000000000000000000000000000001000000000000000000000000000000000000000000000200000000800000000000000000000000000000000000000000000000000000000000000000000000000000000000000000000000000000000000000000000000000000000000000000000000000000000000000000000000000000000000000000000000000000000000000000000000000000000000000100000000000000000000000000002000000000000000000000000000000000000000000000000000000000000040000000000000000000000000000000000000000000000000000000000000000000000000000",
      "type": "0x2",
      "transactionHash": "0x36e119d7af89476d6e41cec6443b7be131681d3e761eca5c4f9a34f4e17ff61f",
      "transactionIndex": "0x11",
      "blockHash": "0xd4562bd257d09a82012d70756c22df2465e14f365cf19a5e2113b19c896e1a00",
      "blockNumber": "0x188f235",
      "gasUsed": "0xd07e",
      "effectiveGasPrice": "0x4a819a7b1",
      "from": "0x0ece75f3c36f7df2136dac7633165dbff53de3cd",
      "to": "0x886ba47579dc4f5dcb53ffd20429089a7788c072",
      "contractAddress": null
    },
    {
      "status": "0x1",
      "cumulativeGasUsed": "0x190e59",
      "logs": [
        {
          "address": "0x886ba47579dc4f5dcb53ffd20429089a7788c072",
          "topics": [
            "0x238399d427b947898edb290f5ff0f9109849b1c3ba196a42e35f00c50a54b98b"
          ],
          "data": "0x0000000000000000000000000000000000000000000000000000000000009d35000000000000000000000000427cc6c2359e2a2ababf7a45ce66ba82bb77b282",
          "blockHash": "0xd4562bd257d09a82012d70756c22df2465e14f365cf19a5e2113b19c896e1a00",
          "blockNumber": "0x188f235",
          "blockTimestamp": "0x6986fb25",
          "transactionHash": "0xec4a74b3a2ff6191736035ccf1d39ca0346913d4aa2c288f593866fedea2ac97",
          "transactionIndex": "0x12",
          "logIndex": "0x2e",
          "removed": false
        }
      ],
      "logsBloom": "0x00000000000000000000000000000000000000000000000000000000001000000000000000000000000000000000000000000000200000000800000000000000000000000000000000000000000000000000000000000000000000000000000000000000000000000000000000000000000000000000000000000000000000000000000000000000000000000000000000000000000000000000000000000000000000000000000000000000100000000000000000000000000002000000000000000000000000000000000000000000000000000000000000040000000000000000000000000000000000000000000000000000000000000000000000000000",
      "type": "0x2",
      "transactionHash": "0xec4a74b3a2ff6191736035ccf1d39ca0346913d4aa2c288f593866fedea2ac97",
      "transactionIndex": "0x12",
      "blockHash": "0xd4562bd257d09a82012d70756c22df2465e14f365cf19a5e2113b19c896e1a00",
      "blockNumber": "0x188f235",
      "gasUsed": "0xd07e",
      "effectiveGasPrice": "0x4a819a7b1",
      "from": "0x0ece75f3c36f7df2136dac7633165dbff53de3cd",
      "to": "0x886ba47579dc4f5dcb53ffd20429089a7788c072",
      "contractAddress": null
    }
  ],
  "libraries": [],
  "pending": [],
  "returns": {},
  "timestamp": 1770453799468,
  "chain": 5042002,
  "commit": "6c28441"
}