{
  "transactions": [
    {
      "hash": "0xc08eddf92117776abfb8e53845ee9178c0e1ae932198c18d86001848fcd6acf2",
      "transactionType": "CALL",
      "contractName": null,
      "contractAddress": "0x6c7ab2202c98c4227c5c46f1417d81144da716ff",
      "function": "setConfig(address,address,(uint32,uint32,bytes)[])",
      "arguments": [
        "0x5C368bd6cE77b2ca47B4ba791fCC1f1645591c84",
        "0xd682ECF100f6F4284138AA925348633B0611Ae21",
        "[(40434, 1, 0x00000000000000000000000000000000000000000000000000000000000027100000000000000000000000009db9ca3305b48f196d18082e91cb64663b13d014), (40434, 2, 0x0000000000000000000000000000000000000000000000000000000000000020000000000000000000000000000000000000000000000000000000000000000f000000000000000000000000000000000000000000000000000000000000000100000000000000000000000000000000000000000000000000000000000000ff000000000000000000000000000000000000000000000000000000000000000000000000000000000000000000000000000000000000000000000000000000c00000000000000000000000000000000000000000000000000000000000000100000000000000000000000000000000000000000000000000000000000000000100000000000000000000000088b27057a9e00c5f05dda29241027aff63f9e6e00000000000000000000000000000000000000000000000000000000000000000), (40245, 1, 0x00000000000000000000000000000000000000000000000000000000000027100000000000000000000000009db9ca3305b48f196d18082e91cb64663b13d014), (40245, 2, 0x0000000000000000000000000000000000000000000000000000000000000020000000000000000000000000000000000000000000000000000000000000000f000000000000000000000000000000000000000000000000000000000000000100000000000000000000000000000000000000000000000000000000000000ff000000000000000000000000000000000000000000000000000000000000000000000000000000000000000000000000000000000000000000000000000000c00000000000000000000000000000000000000000000000000000000000000100000000000000000000000000000000000000000000000000000000000000000100000000000000000000000088b27057a9e00c5f05dda29241027aff63f9e6e00000000000000000000000000000000000000000000000000000000000000000)]"
      ],
      "transaction": {
        "from": "0x0ece75f3c36f7df2136dac7633165dbff53de3cd",
        "to": "0x6c7ab2202c98c4227c5c46f1417d81144da716ff",
        "gas": "0x56428",
        "value": "0x0",
        "input": "0x6dbd9f900000000000000000000000005c368bd6ce77b2ca47b4ba791fcc1f1645591c84000000000000000000000000d682ecf100f6f4284138aa925348633b0611ae210000000000000000000000000000000000000000000000000000000000000060000000000000000000000000000000000000000000000000000000000000000400000000000000000000000000000000000000000000000000000000000000800000000000000000000000000000000000000000000000000000000000000140000000000000000000000000000000000000000000000000000000000000030000000000000000000000000000000000000000000000000000000000000003c00000000000000000000000000000000000000000000000000000000000009df200000000000000000000000000000000000000000000000000000000000000010000000000000000000000000000000000000000000000000000000000000060000000000000000000000000000000000000000000000000000000000000004000000000000000000000000000000000000000000000000000000000000027100000000000000000000000009db9ca3305b48f196d18082e91cb64663b13d0140000000000000000000000000000000000000000000000000000000000009df20000000000000000000000000000000000000000000000000000000000000002000000000000000000000000000000000000000000000000000000000000006000000000000000000000000000000000000000000000000000000000000001400000000000000000000000000000000000000000000000000000000000000020000000000000000000000000000000000000000000000000000000000000000f000000000000000000000000000000000000000000000000000000000000000100000000000000000000000000000000000000000000000000000000000000ff000000000000000000000000000000000000000000000000000000000000000000000000000000000000000000000000000000000000000000000000000000c00000000000000000000000000000000000000000000000000000000000000100000000000000000000000000000000000000000000000000000000000000000100000000000000000000000088b27057a9e00c5f05dda29241027aff63f9e6e000000000000000000000000000000000000000000000000000000000000000000000000000000000000000000000000000000000000000000000000000009d3500000000000000000000000000000000000000000000000000000000000000010000000000000000000000000000000000000000000000000000000000000060000000000000000000000000000000000000000000000000000000000000004000000000000000000000000000000000000000000000000000000000000027100000000000000000000000009db9ca3305b48f196d18082e91cb64663b13d0140000000000000000000000000000000000000000000000000000000000009d350000000000000000000000000000000000000000000000000000000000000002000000000000000000000000000000000000000000000000000000000000006000000000000000000000000000000000000000000000000000000000000001400000000000000000000000000000000000000000000000000000000000000020000000000000000000000000000000000000000000000000000000000000000f000000000000000000000000000000000000000000000000000000000000000100000000000000000000000000000000000000000000000000000000000000ff000000000000000000000000000000000000000000000000000000000000000000000000000000000000000000000000000000000000000000000000000000c00000000000000000000000000000000000000000000000000000000000000100000000000000000000000000000000000000000000000000000000000000000100000000000000000000000088b27057a9e00c5f05dda29241027aff63f9e6e00000000000000000000000000000000000000000000000000000000000000000",
        "nonce": "0x18",
        "chainId": "0x4cef52"
      },
      "additionalContracts": [],
      "isFixedGasLimit": false
    },
    {
      "hash": "0x18fae08ec11d917de2960b0a8d49d55637ab2b4639fb9fd8b58201253ca50999",
      "transactionType": "CALL",
      "contractName": null,
      "contractAddress": "0x6c7ab2202c98c4227c5c46f1417d81144da716ff",
      "function": "setConfig(address,address,(uint32,uint32,bytes)[])",
      "arguments": [
        "0x39926DA4905f5Edb956F5dB5F2e2FF044E0882B2",
        "0xd682ECF100f6F4284138AA925348633B0611Ae21",
        "[(40434, 1, 0x00000000000000000000000000000000000000000000000000000000000027100000000000000000000000009db9ca3305b48f196d18082e91cb64663b13d014), (40434, 2, 0x0000000000000000000000000000000000000000000000000000000000000020000000000000000000000000000000000000000000000000000000000000000f000000000000000000000000000000000000000000000000000000000000000100000000000000000000000000000000000000000000000000000000000000ff000000000000000000000000000000000000000000000000000000000000000000000000000000000000000000000000000000000000000000000000000000c00000000000000000000000000000000000000000000000000000000000000100000000000000000000000000000000000000000000000000000000000000000100000000000000000000000088b27057a9e00c5f05dda29241027aff63f9e6e00000000000000000000000000000000000000000000000000000000000000000), (40245, 1, 0x00000000000000000000000000000000000000000000000000000000000027100000000000000000000000009db9ca3305b48f196d18082e91cb64663b13d014), (40245, 2, 0x0000000000000000000000000000000000000000000000000000000000000020000000000000000000000000000000000000000000000000000000000000000f000000000000000000000000000000000000000000000000000000000000000100000000000000000000000000000000000000000000000000000000000000ff000000000000000000000000000000000000000000000000000000000000000000000000000000000000000000000000000000000000000000000000000000c00000000000000000000000000000000000000000000000000000000000000100000000000000000000000000000000000000000000000000000000000000000100000000000000000000000088b27057a9e00c5f05dda29241027aff63f9e6e00000000000000000000000000000000000000000000000000000000000000000)]"
      ],
      "transaction": {
        "from": "0x0ece75f3c36f7df2136dac7633165dbff53de3cd",
        "to": "0x6c7ab2202c98c4227c5c46f1417d81144da716ff",
        "gas": "0x56428",
        "value": "0x0",
        "input": "0x6dbd9f9000000000000000000000000039926da4905f5edb956f5db5f2e2ff044e0882b2000000000000000000000000d682ecf100f6f4284138aa925348633b0611ae210000000000000000000000000000000000000000000000000000000000000060000000000000000000000000000000000000000000000000000000000000000400000000000000000000000000000000000000000000000000000000000000800000000000000000000000000000000000000000000000000000000000000140000000000000000000000000000000000000000000000000000000000000030000000000000000000000000000000000000000000000000000000000000003c00000000000000000000000000000000000000000000000000000000000009df200000000000000000000000000000000000000000000000000000000000000010000000000000000000000000000000000000000000000000000000000000060000000000000000000000000000000000000000000000000000000000000004000000000000000000000000000000000000000000000000000000000000027100000000000000000000000009db9ca3305b48f196d18082e91cb64663b13d0140000000000000000000000000000000000000000000000000000000000009df20000000000000000000000000000000000000000000000000000000000000002000000000000000000000000000000000000000000000000000000000000006000000000000000000000000000000000000000000000000000000000000001400000000000000000000000000000000000000000000000000000000000000020000000000000000000000000000000000000000000000000000000000000000f000000000000000000000000000000000000000000000000000000000000000100000000000000000000000000000000000000000000000000000000000000ff000000000000000000000000000000000000000000000000000000000000000000000000000000000000000000000000000000000000000000000000000000c00000000000000000000000000000000000000000000000000000000000000100000000000000000000000000000000000000000000000000000000000000000100000000000000000000000088b27057a9e00c5f05dda29241027aff63f9e6e000000000000000000000000000000000000000000000000000000000000000000000000000000000000000000000000000000000000000000000000000009d3500000000000000000000000000000000000000000000000000000000000000010000000000000000000000000000000000000000000000000000000000000060000000000000000000000000000000000000000000000000000000000000004000000000000000000000000000000000000000000000000000000000000027100000000000000000000000009db9ca3305b48f196d18082e91cb64663b13d0140000000000000000000000000000000000000000000000000000000000009d350000000000000000000000000000000000000000000000000000000000000002000000000000000000000000000000000000000000000000000000000000006000000000000000000000000000000000000000000000000000000000000001400000000000000000000000000000000000000000000000000000000000000020000000000000000000000000000000000000000000000000000000000000000f000000000000000000000000000000000000000000000000000000000000000100000000000000000000000000000000000000000000000000000000000000ff000000000000000000000000000000000000000000000000000000000000000000000000000000000000000000000000000000000000000000000000000000c00000000000000000000000000000000000000000000000000000000000000100000000000000000000000000000000000000000000000000000000000000000100000000000000000000000088b27057a9e00c5f05dda29241027aff63f9e6e00000000000000000000000000000000000000000000000000000000000000000",
        "nonce": "0x19",
        "chainId": "0x4cef52"
      },
      "additionalContracts": [],
      "isFixedGasLimit": false
    },
    {
      "hash": "0xfd711d59be272ad660b054edbf71cfdc1e91dd4dfe11cf296cfc60f7188753d3",
      "transactionType": "CALL",
      "contractName": null,
      "contractAddress": "0x6c7ab2202c98c4227c5c46f1417d81144da716ff",
      "function": "setConfig(address,address,(uint32,uint32,bytes)[])",
      "arguments": [
        "0x886ba47579DC4f5DcB53ffd20429089A7788C072",
        "0xd682ECF100f6F4284138AA925348633B0611Ae21",
        "[(40434, 1, 0x00000000000000000000000000000000000000000000000000000000000027100000000000000000000000009db9ca3305b48f196d18082e91cb64663b13d014), (40434, 2, 0x0000000000000000000000000000000000000000000000000000000000000020000000000000000000000000000000000000000000000000000000000000000f000000000000000000000000000000000000000000000000000000000000000100000000000000000000000000000000000000000000000000000000000000ff000000000000000000000000000000000000000000000000000000000000000000000000000000000000000000000000000000000000000000000000000000c00000000000000000000000000000000000000000000000000000000000000100000000000000000000000000000000000000000000000000000000000000000100000000000000000000000088b27057a9e00c5f05dda29241027aff63f9e6e00000000000000000000000000000000000000000000000000000000000000000), (40245, 1, 0x00000000000000000000000000000000000000000000000000000000000027100000000000000000000000009db9ca3305b48f196d18082e91cb64663b13d014), (40245, 2, 0x0000000000000000000000000000000000000000000000000000000000000020000000000000000000000000000000000000000000000000000000000000000f000000000000000000000000000000000000000000000000000000000000000100000000000000000000000000000000000000000000000000000000000000ff000000000000000000000000000000000000000000000000000000000000000000000000000000000000000000000000000000000000000000000000000000c00000000000000000000000000000000000000000000000000000000000000100000000000000000000000000000000000000000000000000000000000000000100000000000000000000000088b27057a9e00c5f05dda29241027aff63f9e6e00000000000000000000000000000000000000000000000000000000000000000)]"
      ],
      "transaction": {
        "from": "0x0ece75f3c36f7df2136dac7633165dbff53de3cd",
        "to": "0x6c7ab2202c98c4227c5c46f1417d81144da716ff",
        "gas": "0x56428",
        "value": "0x0",
        "input": "0x6dbd9f90000000000000000000000000886ba47579dc4f5dcb53ffd20429089a7788c072000000000000000000000000d682ecf100f6f4284138aa925348633b0611ae210000000000000000000000000000000000000000000000000000000000000060000000000000000000000000000000000000000000000000000000000000000400000000000000000000000000000000000000000000000000000000000000800000000000000000000000000000000000000000000000000000000000000140000000000000000000000000000000000000000000000000000000000000030000000000000000000000000000000000000000000000000000000000000003c00000000000000000000000000000000000000000000000000000000000009df200000000000000000000000000000000000000000000000000000000000000010000000000000000000000000000000000000000000000000000000000000060000000000000000000000000000000000000000000000000000000000000004000000000000000000000000000000000000000000000000000000000000027100000000000000000000000009db9ca3305b48f196d18082e91cb64663b13d0140000000000000000000000000000000000000000000000000000000000009df20000000000000000000000000000000000000000000000000000000000000002000000000000000000000000000000000000000000000000000000000000006000000000000000000000000000000000000000000000000000000000000001400000000000000000000000000000000000000000000000000000000000000020000000000000000000000000000000000000000000000000000000000000000f000000000000000000000000000000000000000000000000000000000000000100000000000000000000000000000000000000000000000000000000000000ff000000000000000000000000000000000000000000000000000000000000000000000000000000000000000000000000000000000000000000000000000000c00000000000000000000000000000000000000000000000000000000000000100000000000000000000000000000000000000000000000000000000000000000100000000000000000000000088b27057a9e00c5f05dda29241027aff63f9e6e000000000000000000000000000000000000000000000000000000000000000000000000000000000000000000000000000000000000000000000000000009d3500000000000000000000000000000000000000000000000000000000000000010000000000000000000000000000000000000000000000000000000000000060000000000000000000000000000000000000000000000000000000000000004000000000000000000000000000000000000000000000000000000000000027100000000000000000000000009db9ca3305b48f196d18082e91cb64663b13d0140000000000000000000000000000000000000000000000000000000000009d350000000000000000000000000000000000000000000000000000000000000002000000000000000000000000000000000000000000000000000000000000006000000000000000000000000000000000000000000000000000000000000001400000000000000000000000000000000000000000000000000000000000000020000000000000000000000000000000000000000000000000000000000000000f000000000000000000000000000000000000000000000000000000000000000100000000000000000000000000000000000000000000000000000000000000ff000000000000000000000000000000000000000000000000000000000000000000000000000000000000000000000000000000000000000000000000000000c00000000000000000000000000000000000000000000000000000000000000100000000000000000000000000000000000000000000000000000000000000000100000000000000000000000088b27057a9e00c5f05dda29241027aff63f9e6e00000000000000000000000000000000000000000000000000000000000000000",
        "nonce": "0x1a",
        "chainId": "0x4cef52"
      },
      "additionalContracts": [],
      "isFixedGasLimit": false
    }
  ],
  "receipts": [
    {
      "status": "0x1",
      "cumulativeGasUsed": "0x191138",
      "logs": [
        {
          "address": "0xd682ecf100f6f4284138aa925348633b0611ae21",
          "topics": [
            "0x779cb2dd9d2bb1be1737d05435d744facbfb84a2a4912e21379d39beddcdc805"
          ],
          "data": "0x0000000000000000000000005c368bd6ce77b2ca47b4ba791fcc1f1645591c840000000000000000000000000000000000000000000000000000000000009df200000000000000000000000000000000000000000000000000000000000027100000000000000000000000009db9ca3305b48f196d18082e91cb64663b13d014",
          "blockHash": "0x384aaed1c753dbb33d041c3cab7f471e173d77ec92586d05fdb6c25eeba4c3b9",
          "blockNumber": "0x188df07",
          "blockTimestamp": "0x6986f18b",
          "transactionHash": "0xc08eddf92117776abfb8e53845ee9178c0e1ae932198c18d86001848fcd6acf2",
          "transactionIndex": "0xb",
          "logIndex": "0x37",
          "removed": false
        },
        {
          "address": "0xd682ecf100f6f4284138aa925348633b0611ae21",
          "topics": [
            "0x82118522aa536ac0e96cc5c689407ae42b89d592aa133890a01f1509842f5081"
          ],
          "data": "0x0000000000000000000000005c368bd6ce77b2ca47b4ba791fcc1f1645591c840000000000000000000000000000000000000000000000000000000000009df20000000000000000000000000000000000000000000000000000000000000060000000000000000000000000000000000000000000000000000000000000000f000000000000000000000000000000000000000000000000000000000000000100000000000000000000000000000000000000000000000000000000000000ff000000000000000000000000000000000000000000000000000000000000000000000000000000000000000000000000000000000000000000000000000000c00000000000000000000000000000000000000000000000000000000000000100000000000000000000000000000000000000000000000000000000000000000100000000000000000000000088b27057a9e00c5f05dda29241027aff63f9e6e00000000000000000000000000000000000000000000000000000000000000000",
          "blockHash": "0x384aaed1c753dbb33d041c3cab7f471e173d77ec92586d05fdb6c25eeba4c3b9",
          "blockNumber": "0x188df07",
          "blockTimestamp": "0x6986f18b",
          "transactionHash": "0xc08eddf92117776abfb8e53845ee9178c0e1ae932198c18d86001848fcd6acf2",
          "transactionIndex": "0xb",
          "logIndex": "0x38",
          "removed": false
        },
        {
          "address": "0xd682ecf100f6f4284138aa925348633b0611ae21",
          "topics": [
            "0x779cb2dd9d2bb1be1737d05435d744facbfb84a2a4912e21379d39beddcdc805"
          ],
          "data": "0x0000000000000000000000005c368bd6ce77b2ca47b4ba791fcc1f1645591c840000000000000000000000000000000000000000000000000000000000009d3500000000000000000000000000000000000000000000000000000000000027100000000000000000000000009db9ca3305b48f196d18082e91cb64663b13d014",
          "blockHash": "0x384aaed1c753dbb33d041c3cab7f471e173d77ec92586d05fdb6c25eeba4c3b9",
          "blockNumber": "0x188df07",
          "blockTimestamp": "0x6986f18b",
          "transactionHash": "0xc08eddf92117776abfb8e53845ee9178c0e1ae932198c18d86001848fcd6acf2",
          "transactionIndex": "0xb",
          "logIndex": "0x39",
          "removed": false
        },
        {
          "address": "0xd682ecf100f6f4284138aa925348633b0611ae21",
          "topics": [
            "0x82118522aa536ac0e96cc5c689407ae42b89d592aa133890a01f1509842f5081"
          ],
          "data": "0x0000000000000000000000005c368bd6ce77b2ca47b4ba791fcc1f1645591c840000000000000000000000000000000000000000000000000000000000009d350000000000000000000000000000000000000000000000000000000000000060000000000000000000000000000000000000000000000000000000000000000f000000000000000000000000000000000000000000000000000000000000000100000000000000000000000000000000000000000000000000000000000000ff000000000000000000000000000000000000000000000000000000000000000000000000000000000000000000000000000000000000000000000000000000c00000000000000000000000000000000000000000000000000000000000000100000000000000000000000000000000000000000000000000000000000000000100000000000000000000000088b27057a9e00c5f05dda29241027aff63f9e6e00000000000000000000000000000000000000000000000000000000000000000",
          "blockHash": "0x384aaed1c753dbb33d041c3cab7f471e173d77ec92586d05fdb6c25eeba4c3b9",
          "blockNumber": "0x188df07",
          "blockTimestamp": "0x6986f18b",
          "transactionHash": "0xc08eddf92117776abfb8e53845ee9178c0e1ae932198c18d86001848fcd6acf2",
          "transactionIndex": "0xb",
          "logIndex": "0x3a",
          "removed": false
        }
      ],
      "logsBloom": "0x00000000000000000000000000000000000000000000000000000000000000000000000000000000000000000000000000000000000000000000000000000000000000000000000000000040000000000000000000000000002000000000000000000000000000000000000000000000000000000000000000000000000000004000000000000000000000000000000000000000000000000000004000000000000000000000000000000002000000000000000000000000000000000000000200000000000000000000000000000000000000000000000000000000000000000008000000002000000000000000000000000000000000000000000000000010",
      "type": "0x2",
      "transactionHash": "0xc08eddf92117776abfb8e53845ee9178c0e1ae932198c18d86001848fcd6acf2",
      "transactionIndex": "0xb",
      "blockHash": "0x384aaed1c753dbb33d041c3cab7f471e173d77ec92586d05fdb6c25eeba4c3b9",
      "blockNumber": "0x188df07",
      "gasUsed": "0x3e736",
      "effectiveGasPrice": "0x4a81ce0ed",
      "from": "0x0ece75f3c36f7df2136dac7633165dbff53de3cd",
      "to": "0x6c7ab2202c98c4227c5c46f1417d81144da716ff",
      "contractAddress": null
    },
    {
      "status": "0x1",
      "cumulativeGasUsed": "0x1cf86e",
      "logs": [
        {
          "address": "0xd682ecf100f6f4284138aa925348633b0611ae21",
          "topics": [
            "0x779cb2dd9d2bb1be1737d05435d744facbfb84a2a4912e21379d39beddcdc805"
          ],
          "data": "0x00000000000000000000000039926da4905f5edb956f5db5f2e2ff044e0882b20000000000000000000000000000000000000000000000000000000000009df200000000000000000000000000000000000000000000000000000000000027100000000000000000000000009db9ca3305b48f196d18082e91cb64663b13d014",
          "blockHash": "0x384aaed1c753dbb33d041c3cab7f471e173d77ec92586d05fdb6c25eeba4c3b9",
          "blockNumber": "0x188df07",
          "blockTimestamp": "0x6986f18b",
          "transactionHash": "0x18fae08ec11d917de2960b0a8d49d55637ab2b4639fb9fd8b58201253ca50999",
          "transactionIndex": "0xc",
          "logIndex": "0x3b",
          "removed": false
        },
        {
          "address": "0xd682ecf100f6f4284138aa925348633b0611ae21",
          "topics": [
            "0x82118522aa536ac0e96cc5c689407ae42b89d592aa133890a01f1509842f5081"
          ],
          "data": "0x00000000000000000000000039926da4905f5edb956f5db5f2e2ff044e0882b20000000000000000000000000000000000000000000000000000000000009df20000000000000000000000000000000000000000000000000000000000000060000000000000000000000000000000000000000000000000000000000000000f000000000000000000000000000000000000000000000000000000000000000100000000000000000000000000000000000000000000000000000000000000ff000000000000000000000000000000000000000000000000000000000000000000000000000000000000000000000000000000000000000000000000000000c00000000000000000000000000000000000000000000000000000000000000100000000000000000000000000000000000000000000000000000000000000000100000000000000000000000088b27057a9e00c5f05dda29241027aff63f9e6e00000000000000000000000000000000000000000000000000000000000000000",
          "blockHash": "0x384aaed1c753dbb33d041c3cab7f471e173d77ec92586d05fdb6c25eeba4c3b9",
          "blockNumber": "0x188df07",
          "blockTimestamp": "0x6986f18b",
          "transactionHash": "0x18fae08ec11d917de2960b0a8d49d55637ab2b4639fb9fd8b58201253ca50999",
          "transactionIndex": "0xc",
          "logIndex": "0x3c",
          "removed": false
        },
        {
          "address": "0xd682ecf100f6f4284138aa925348633b0611ae21",
          "topics": [
            "0x779cb2dd9d2bb1be1737d05435d744facbfb84a2a4912e21379d39beddcdc805"
          ],
          "data": "0x00000000000000000000000039926da4905f5edb956f5db5f2e2ff044e0882b20000000000000000000000000000000000000000000000000000000000009d3500000000000000000000000000000000000000000000000000000000000027100000000000000000000000009db9ca3305b48f196d18082e91cb64663b13d014",
          "blockHash": "0x384aaed1c753dbb33d041c3cab7f471e173d77ec92586d05fdb6c25eeba4c3b9",
          "blockNumber": "0x188df07",
          "blockTimestamp": "0x6986f18b",
          "transactionHash": "0x18fae08ec11d917de2960b0a8d49d55637ab2b4639fb9fd8b58201253ca50999",
          "transactionIndex": "0xc",
          "logIndex": "0x3d",
          "removed": false
        },
        {
          "address": "0xd682ecf100f6f4284138aa925348633b0611ae21",
          "topics": [
            "0x82118522aa536ac0e96cc5c689407ae42b89d592aa133890a01f1509842f5081"
          ],
          "data": "0x00000000000000000000000039926da4905f5edb956f5db5f2e2ff044e0882b20000000000000000000000000000000000000000000000000000000000009d350000000000000000000000000000000000000000000000000000000000000060000000000000000000000000000000000000000000000000000000000000000f000000000000000000000000000000000000000000000000000000000000000100000000000000000000000000000000000000000000000000000000000000ff000000000000000000000000000000000000000000000000000000000000000000000000000000000000000000000000000000000000000000000000000000c00000000000000000000000000000000000000000000000000000000000000100000000000000000000000000000000000000000000000000000000000000000100000000000000000000000088b27057a9e00c5f05dda29241027aff63f9e6e00000000000000000000000000000000000000000000000000000000000000000",
          "blockHash": "0x384aaed1c753dbb33d041c3cab7f471e173d77ec92586d05fdb6c25eeba4c3b9",
          "blockNumber": "0x188df07",
          "blockTimestamp": "0x6986f18b",
          "transactionHash": "0x18fae08ec11d917de2960b0a8d49d55637ab2b4639fb9fd8b58201253ca50999",
          "transactionIndex": "0xc",
          "logIndex": "0x3e",
          "removed": false
        }
      ],
      "logsBloom": "0x00000000000000000000000000000000000000000000000000000000000000000000000000000000000000000000000000000000000000000000000000000000000000000000000000000040000000000000000000000000002000000000000000000000000000000000000000000000000000000000000000000000000000004000000000000000000000000000000000000000000000000000004000000000000000000000000000000002000000000000000000000000000000000000000200000000000000000000000000000000000000000000000000000000000000000008000000002000000000000000000000000000000000000000000000000010",
      "type": "0x2",
      "transactionHash": "0x18fae08ec11d917de2960b0a8d49d55637ab2b4639fb9fd8b58201253ca50999",
      "transactionIndex": "0xc",
      "blockHash": "0x384aaed1c753dbb33d041c3cab7f471e173d77ec92586d05fdb6c25eeba4c3b9",
      "blockNumber": "0x188df07",
      "gasUsed": "0x3e736",
      "effectiveGasPrice": "0x4a81ce0ed",
      "from": "0x0ece75f3c36f7df2136dac7633165dbff53de3cd",
      "to": "0x6c7ab2202c98c4227c5c46f1417d81144da716ff",
      "contractAddress": null
    },
    {
      "status": "0x1",
      "cumulativeGasUsed": "0x20dfa4",
      "logs": [
        {
          "address": "0xd682ecf100f6f4284138aa925348633b0611ae21",
          "topics": [
            "0x779cb2dd9d2bb1be1737d05435d744facbfb84a2a4912e21379d39beddcdc805"
          ],
          "data": "0x000000000000000000000000886ba47579dc4f5dcb53ffd20429089a7788c0720000000000000000000000000000000000000000000000000000000000009df200000000000000000000000000000000000000000000000000000000000027100000000000000000000000009db9ca3305b48f196d18082e91cb64663b13d014",
          "blockHash": "0x384aaed1c753dbb33d041c3cab7f471e173d77ec92586d05fdb6c25eeba4c3b9",
          "blockNumber": "0x188df07",
          "blockTimestamp": "0x6986f18b",
          "transactionHash": "0xfd711d59be272ad660b054edbf71cfdc1e91dd4dfe11cf296cfc60f7188753d3",
          "transactionIndex": "0xd",
          "logIndex": "0x3f",
          "removed": false
        },
        {
          "address": "0xd682ecf100f6f4284138aa925348633b0611ae21",
          "topics": [
            "0x82118522aa536ac0e96cc5c689407ae42b89d592aa133890a01f1509842f5081"
          ],
          "data": "0x000000000000000000000000886ba47579dc4f5dcb53ffd20429089a7788c0720000000000000000000000000000000000000000000000000000000000009df20000000000000000000000000000000000000000000000000000000000000060000000000000000000000000000000000000000000000000000000000000000f000000000000000000000000000000000000000000000000000000000000000100000000000000000000000000000000000000000000000000000000000000ff000000000000000000000000000000000000000000000000000000000000000000000000000000000000000000000000000000000000000000000000000000c00000000000000000000000000000000000000000000000000000000000000100000000000000000000000000000000000000000000000000000000000000000100000000000000000000000088b27057a9e00c5f05dda29241027aff63f9e6e00000000000000000000000000000000000000000000000000000000000000000",
          "blockHash": "0x384aaed1c753dbb33d041c3cab7f471e173d77ec92586d05fdb6c25eeba4c3b9",
          "blockNumber": "0x188df07",
          "blockTimestamp": "0x6986f18b",
          "transactionHash": "0xfd711d59be272ad660b054edbf71cfdc1e91dd4dfe11cf296cfc60f7188753d3",
          "transactionIndex": "0xd",
          "logIndex": "0x40",
          "removed": false
        },
        {
          "address": "0xd682ecf100f6f4284138aa925348633b0611ae21",
          "topics": [
            "0x779cb2dd9d2bb1be1737d05435d744facbfb84a2a4912e21379d39beddcdc805"
          ],
          "data": "0x000000000000000000000000886ba47579dc4f5dcb53ffd20429089a7788c0720000000000000000000000000000000000000000000000000000000000009d3500000000000000000000000000000000000000000000000000000000000027100000000000000000000000009db9ca3305b48f196d18082e91cb64663b13d014",
          "blockHash": "0x384aaed1c753dbb33d041c3cab7f471e173d77ec92586d05fdb6c25eeba4c3b9",
          "blockNumber": "0x188df07",
          "blockTimestamp": "0x6986f18b",
          "transactionHash": "0xfd711d59be272ad660b054edbf71cfdc1e91dd4dfe11cf296cfc60f7188753d3",
          "transactionIndex": "0xd",
          "logIndex": "0x41",
          "removed": false
        },
        {
          "address": "0xd682ecf100f6f4284138aa925348633b0611ae21",
          "topics": [
            "0x82118522aa536ac0e96cc5c689407ae42b89d592aa133890a01f1509842f5081"
          ],
          "data": "0x000000000000000000000000886ba47579dc4f5dcb53ffd20429089a7788c0720000000000000000000000000000000000000000000000000000000000009d350000000000000000000000000000000000000000000000000000000000000060000000000000000000000000000000000000000000000000000000000000000f000000000000000000000000000000000000000000000000000000000000000100000000000000000000000000000000000000000000000000000000000000ff000000000000000000000000000000000000000000000000000000000000000000000000000000000000000000000000000000000000000000000000000000c00000000000000000000000000000000000000000000000000000000000000100000000000000000000000000000000000000000000000000000000000000000100000000000000000000000088b27057a9e00c5f05dda29241027aff63f9e6e00000000000000000000000000000000000000000000000000000000000000000",
          "blockHash": "0x384aaed1c753dbb33d041c3cab7f471e173d77ec92586d05fdb6c25eeba4c3b9",
          "blockNumber": "0x188df07",
          "blockTimestamp": "0x6986f18b",
          "transactionHash": "0xfd711d59be272ad660b054edbf71cfdc1e91dd4dfe11cf296cfc60f7188753d3",
          "transactionIndex": "0xd",
          "logIndex": "0x42",
          "removed": false
        }
      ],
      "logsBloom": "0x00000000000000000000000000000000000000000000000000000000000000000000000000000000000000000000000000000000000000000000000000000000000000000000000000000040000000000000000000000000002000000000000000000000000000000000000000000000000000000000000000000000000000004000000000000000000000000000000000000000000000000000004000000000000000000000000000000002000000000000000000000000000000000000000200000000000000000000000000000000000000000000000000000000000000000008000000002000000000000000000000000000000000000000000000000010",
      "type": "0x2",
      "transactionHash": "0xfd711d59be272ad660b054edbf71cfdc1e91dd4dfe11cf296cfc60f7188753d3",
      "transactionIndex": "0xd",
      "blockHash": "0x384aaed1c753dbb33d041c3cab7f471e173d77ec92586d05fdb6c25eeba4c3b9",
      "blockNumber": "0x188df07",
      "gasUsed": "0x3e736",
      "effectiveGasPrice": "0x4a81ce0ed",
      "from": "0x0ece75f3c36f7df2136dac7633165dbff53de3cd",
      "to": "0x6c7ab2202c98c4227c5c46f1417d81144da716ff",
      "contractAddress": null
    }
  ],
  "libraries": [],
  "pending": [],
  "returns": {},
  "timestamp": 1770451339408,
  "chain": 5042002,
  "commit": "6c28441"
}