{
  "transactions": [
    {
      "hash": "0x16a6fc83670362333b24fa18be109f546878afa5bef23ace193a2f99445b9858",
      "transactionType": "CALL",
      "contractName": null,
      "contractAddress": "0x6edce65403992e310a62460808c4b910d972f10f",
      "function": "setSendLibrary(address,uint32,address)",
      "arguments": [
        "0x0c832FeE16d5A8BC99B888E16D3712E6BEf96Fb7",
        "40245",
        "0xC1868e054425D378095A003EcbA3823a5D0135C9"
      ],
      "transaction": {
        "from": "0x0ece75f3c36f7df2136dac7633165dbff53de3cd",
        "to": "0x6edce65403992e310a62460808c4b910d972f10f",
        "gas": "0x149cd",
        "value": "0x0",
        "input": "0x9535ff300000000000000000000000000c832fee16d5a8bc99b888e16d3712e6bef96fb70000000000000000000000000000000000000000000000000000000000009d35000000000000000000000000c1868e054425d378095a003ecba3823a5d0135c9",
        "nonce": "0x14d",
        "chainId": "0x14a34"
      },
      "additionalContracts": [],
      "isFixedGasLimit": false
    },
    {
      "hash": "0x6ddcc94b6d4cee8171b17ff541e77137034d4a84f333c7d22ce6b21bfd3e37ed",
      "transactionType": "CALL",
      "contractName": null,
      "contractAddress": "0x6edce65403992e310a62460808c4b910d972f10f",
      "function": "setSendLibrary(address,uint32,address)",
      "arguments": [
        "0x0c832FeE16d5A8BC99B888E16D3712E6BEf96Fb7",
        "40434",
        "0xC1868e054425D378095A003EcbA3823a5D0135C9"
      ],
      "transaction": {
        "from": "0x0ece75f3c36f7df2136dac7633165dbff53de3cd",
        "to": "0x6edce65403992e310a62460808c4b910d972f10f",
        "gas": "0x149cd",
        "value": "0x0",
        "input": "0x9535ff300000000000000000000000000c832fee16d5a8bc99b888e16d3712e6bef96fb70000000000000000000000000000000000000000000000000000000000009df2000000000000000000000000c1868e054425d378095a003ecba3823a5d0135c9",
        "nonce": "0x14e",
        "chainId": "0x14a34"
      },
      "additionalContracts": [],
      "isFixedGasLimit": false
    },
    {
      "hash": "0xd76ec8b9978afa243940719472ff7317a86cd58e46863a7e445f38946d31ebce",
      "transactionType": "CALL",
      "contractName": null,
      "contractAddress": "0x6edce65403992e310a62460808c4b910d972f10f",
      "function": "setReceiveLibrary(address,uint32,address,uint256)",
      "arguments": [
        "0x0c832FeE16d5A8BC99B888E16D3712E6BEf96Fb7",
        "40245",
        "0x12523de19dc41c91F7d2093E0CFbB76b17012C8d",
        "0"
      ],
      "transaction": {
        "from": "0x0ece75f3c36f7df2136dac7633165dbff53de3cd",
        "to": "0x6edce65403992e310a62460808c4b910d972f10f",
        "gas": "0x17001",
        "value": "0x0",
        "input": "0x6a14d7150000000000000000000000000c832fee16d5a8bc99b888e16d3712e6bef96fb70000000000000000000000000000000000000000000000000000000000009d3500000000000000000000000012523de19dc41c91f7d2093e0cfbb76b17012c8d0000000000000000000000000000000000000000000000000000000000000000",
        "nonce": "0x14f",
        "chainId": "0x14a34"
      },
      "additionalContracts": [],
      "isFixedGasLimit": false
    },
    {
      "hash": "0x5dd8f09892003dcf78332506cd650a560ccf047504717b5d396920574c5f26c4",
      "transactionType": "CALL",
      "contractName": null,
      "contractAddress": "0x6edce65403992e310a62460808c4b910d972f10f",
      "function": "setSendLibrary(address,uint32,address)",
      "arguments": [
        "0x8f388874B0195CA2F9De3E85D17EE3EfA0058B7c",
        "40245",
        "0xC1868e054425D378095A003EcbA3823a5D0135C9"
      ],
      "transaction": {
        "from": "0x0ece75f3c36f7df2136dac7633165dbff53de3cd",
        "to": "0x6edce65403992e310a62460808c4b910d972f10f",
        "gas": "0x149cd",
        "value": "0x0",
        "input": "0x9535ff300000000000000000000000008f388874b0195ca2f9de3e85d17ee3efa0058b7c0000000000000000000000000000000000000000000000000000000000009d35000000000000000000000000c1868e054425d378095a003ecba3823a5d0135c9",
        "nonce": "0x150",
        "chainId": "0x14a34"
      },
      "additionalContracts": [],
      "isFixedGasLimit": false
    },
    {
      "hash": "0x9eea2cbf7f82b375ae0a86e3afe92563498e31d755ff9948c0aa6b02659059f8",
      "transactionType": "CALL",
      "contractName": null,
      "contractAddress": "0x6edce65403992e310a62460808c4b910d972f10f",
      "function": "setSendLibrary(address,uint32,address)",
      "arguments": [
        "0x8f388874B0195CA2F9De3E85D17EE3EfA0058B7c",
        "40434",
        "0xC1868e054425D378095A003EcbA3823a5D0135C9"
      ],
      "transaction": {
        "from": "0x0ece75f3c36f7df2136dac7633165dbff53de3cd",
        "to": "0x6edce65403992e310a62460808c4b910d972f10f",
        "gas": "0x149cd",
        "value": "0x0",
        "input": "0x9535ff300000000000000000000000008f388874b0195ca2f9de3e85d17ee3efa0058b7c0000000000000000000000000000000000000000000000000000000000009df2000000000000000000000000c1868e054425d378095a003ecba3823a5d0135c9",
        "nonce": "0x151",
        "chainId": "0x14a34"
      },
      "additionalContracts": [],
      "isFixedGasLimit": false
    },
    {
      "hash": "0xfc645ece94f7e578f66c2deed698a566fb7d3e2ed24672101c69192c55506a15",
      "transactionType": "CALL",
      "contractName": null,
      "contractAddress": "0x6edce65403992e310a62460808c4b910d972f10f",
      "function": "setReceiveLibrary(address,uint32,address,uint256)",
      "arguments": [
        "0x8f388874B0195CA2F9De3E85D17EE3EfA0058B7c",
        "40245",
        "0x12523de19dc41c91F7d2093E0CFbB76b17012C8d",
        "0"
      ],
      "transaction": {
        "from": "0x0ece75f3c36f7df2136dac7633165dbff53de3cd",
        "to": "0x6edce65403992e310a62460808c4b910d972f10f",
        "gas": "0x17001",
        "value": "0x0",
        "input": "0x6a14d7150000000000000000000000008f388874b0195ca2f9de3e85d17ee3efa0058b7c0000000000000000000000000000000000000000000000000000000000009d3500000000000000000000000012523de19dc41c91f7d2093e0cfbb76b17012c8d0000000000000000000000000000000000000000000000000000000000000000",
        "nonce": "0x152",
        "chainId": "0x14a34"
      },
      "additionalContracts": [],
      "isFixedGasLimit": false
    },
    {
      "hash": "0xff2016d77b0f77b3d178a0ad6f2cc591fb3eb0dc79679f409f399394f6b3e88d",
      "transactionType": "CALL",
      "contractName": null,
      "contractAddress": "0x6edce65403992e310a62460808c4b910d972f10f",
      "function": "setSendLibrary(address,uint32,address)",
      "arguments": [
        "0x427cc6C2359E2a2AbaBF7A45Ce66Ba82Bb77B282",
        "40245",
        "0xC1868e054425D378095A003EcbA3823a5D0135C9"
      ],
      "transaction": {
        "from": "0x0ece75f3c36f7df2136dac7633165dbff53de3cd",
        "to": "0x6edce65403992e310a62460808c4b910d972f10f",
        "gas": "0x149cd",
        "value": "0x0",
        "input": "0x9535ff30000000000000000000000000427cc6c2359e2a2ababf7a45ce66ba82bb77b2820000000000000000000000000000000000000000000000000000000000009d35000000000000000000000000c1868e054425d378095a003ecba3823a5d0135c9",
        "nonce": "0x153",
        "chainId": "0x14a34"
      },
      "additionalContracts": [],
      "isFixedGasLimit": false
    },
    {
      "hash": "0x694cbdd5c86d9426c16d242df25850984b667bd45f92e533ca3e0a56021c20ac",
      "transactionType": "CALL",
      "contractName": null,
      "contractAddress": "0x6edce65403992e310a62460808c4b910d972f10f",
      "function": "setSendLibrary(address,uint32,address)",
      "arguments": [
        "0x427cc6C2359E2a2AbaBF7A45Ce66Ba82Bb77B282",
        "40434",
        "0xC1868e054425D378095A003EcbA3823a5D0135C9"
      ],
      "transaction": {
        "from": "0x0ece75f3c36f7df2136dac7633165dbff53de3cd",
        "to": "0x6edce65403992e310a62460808c4b910d972f10f",
        "gas": "0x149cd",
        "value": "0x0",
        "input": "0x9535ff30000000000000000000000000427cc6c2359e2a2ababf7a45ce66ba82bb77b2820000000000000000000000000000000000000000000000000000000000009df2000000000000000000000000c1868e054425d378095a003ecba3823a5d0135c9",
        "nonce": "0x154",
        "chainId": "0x14a34"
      },
      "additionalContracts": [],
      "isFixedGasLimit": false
    },
    {
      "hash": "0x88417176579ea416ac57eeee9bb588531b66c87ba131f467015f95261aa811f4",
      "transactionType": "CALL",
      "contractName": null,
      "contractAddress": "0x6edce65403992e310a62460808c4b910d972f10f",
      "function": "setReceiveLibrary(address,uint32,address,uint256)",
      "arguments": [
        "0x427cc6C2359E2a2AbaBF7A45Ce66Ba82Bb77B282",
        "40245",
        "0x12523de19dc41c91F7d2093E0CFbB76b17012C8d",
        "0"
      ],
      "transaction": {
        "from": "0x0ece75f3c36f7df2136dac7633165dbff53de3cd",
        "to": "0x6edce65403992e310a62460808c4b910d972f10f",
        "gas": "0x17001",
        "value": "0x0",
        "input": "0x6a14d715000000000000000000000000427cc6c2359e2a2ababf7a45ce66ba82bb77b2820000000000000000000000000000000000000000000000000000000000009d3500000000000000000000000012523de19dc41c91f7d2093e0cfbb76b17012c8d0000000000000000000000000000000000000000000000000000000000000000",
        "nonce": "0x155",
        "chainId": "0x14a34"
      },
      "additionalContracts": [],
      "isFixedGasLimit": false
    }
  ],
  "receipts": [
    {
      "status": "0x1",
      "cumulativeGasUsed": "0x774eca",
      "logs": [
        {
          "address": "0x6edce65403992e310a62460808c4b910d972f10f",
          "topics": [
            "0x4cff966ebee29a156dcb34cf72c1d06231fb1777f6bdf6e8089819232f002b1c"
          ],
          "data": "0x0000000000000000000000000c832fee16d5a8bc99b888e16d3712e6bef96fb70000000000000000000000000000000000000000000000000000000000009d35000000000000000000000000c1868e054425d378095a003ecba3823a5d0135c9",
          "blockHash": "0x9ee90e7bface2b1a4db5b396f53f63bb6ab09ce866f1043f67004d66dcc0f705",
          "blockNumber": "0x239cadc",
          "blockTimestamp": "0x6986f498",
          "transactionHash": "0x6ddcc94b6d4cee8171b17ff541e77137034d4a84f333c7d22ce6b21bfd3e37ed",
          "transactionIndex": "0x13",
          "logIndex": "0x88",
          "removed": false
        }
      ],
      "logsBloom": "0x00000000000000000000000000000000000200000000000000000000000000000000000000000000200000000000000000000000000000000000000001000000000000000000000000000000000000000000000000000000000000000000000000000000000000000200000000000000000000000000000000000000000000000000000000000020000000000000000000000000000000000000000000000000000000000000000000000000000000000000000000000000000000000000000000000000000000000000000000000000000000000000000000000000000000000040000000000000000000000000000000000000000000000000000000000000",
      "type": "0x2",
      "transactionHash": "0x6ddcc94b6d4cee8171b17ff541e77137034d4a84f333c7d22ce6b21bfd3e37ed",
      "transactionIndex": "0x13",
      "blockHash": "0x9ee90e7bface2b1a4db5b396f53f63bb6ab09ce866f1043f67004d66dcc0f705",
      "blockNumber": "0x239cadc",
      "gasUsed": "0xe182",
      "effectiveGasPrice": "0x124f80",
      "blobGasUsed": "0x8268",
      "from": "0x0ece75f3c36f7df2136dac7633165dbff53de3cd",
      "to": "0x6edce65403992e310a62460808c4b910d972f10f",
      "contractAddress": null,
      "daFootprintGasScalar": "0x138",
      "l1BaseFeeScalar": "0x44d",
      "l1BlobBaseFee": "0x3397f0e",
      "l1BlobBaseFeeScalar": "0xa118b",
      "l1Fee": "0x1606139ea",
      "l1GasPrice": "0x40754a21",
      "l1GasUsed": "0x6bf"
    },
    {
      "status": "0x1",
      "cumulativeGasUsed": "0x78304c",
      "logs": [
        {
          "address": "0x6edce65403992e310a62460808c4b910d972f10f",
          "topics": [
            "0x4cff966ebee29a156dcb34cf72c1d06231fb1777f6bdf6e8089819232f002b1c"
          ],
          "data": "0x0000000000000000000000000c832fee16d5a8bc99b888e16d3712e6bef96fb70000000000000000000000000000000000000000000000000000000000009df2000000000000000000000000c1868e054425d378095a003ecba3823a5d0135c9",
          "blockHash": "0x9ee90e7bface2b1a4db5b396f53f63bb6ab09ce866f1043f67004d66dcc0f705",
          "blockNumber": "0x239cadc",
          "blockTimestamp": "0x6986f498",
          "transactionHash": "0xd76ec8b9978afa243940719472ff7317a86cd58e46863a7e445f38946d31ebce",
          "transactionIndex": "0x14",
          "logIndex": "0x89",
          "removed": false
        }
      ],
      "logsBloom": "0x00000000000000000000000000000000000200000000000000000000000000000000000000000000200000000000000000000000000000000000000001000000000000000000000000000000000000000000000000000000000000000000000000000000000000000200000000000000000000000000000000000000000000000000000000000020000000000000000000000000000000000000000000000000000000000000000000000000000000000000000000000000000000000000000000000000000000000000000000000000000000000000000000000000000000000040000000000000000000000000000000000000000000000000000000000000",
      "type": "0x2",
      "transactionHash": "0xd76ec8b9978afa243940719472ff7317a86cd58e46863a7e445f38946d31ebce",
      "transactionIndex": "0x14",
      "blockHash": "0x9ee90e7bface2b1a4db5b396f53f63bb6ab09ce866f1043f67004d66dcc0f705",
      "blockNumber": "0x239cadc",
      "gasUsed": "0xe182",
      "effectiveGasPrice": "0x124f80",
      "blobGasUsed": "0x8268",
      "from": "0x0ece75f3c36f7df2136dac7633165dbff53de3cd",
      "to": "0x6edce65403992e310a62460808c4b910d972f10f",
      "contractAddress": null,
      "daFootprintGasScalar": "0x138",
      "l1BaseFeeScalar": "0x44d",
      "l1BlobBaseFee": "0x3397f0e",
      "l1BlobBaseFeeScalar": "0xa118b",
      "l1Fee": "0x1606139ea",
      "l1GasPrice": "0x40754a21",
      "l1GasUsed": "0x6bf"
    },
    {
      "status": "0x1",
      "cumulativeGasUsed": "0x792bed",
      "logs": [
        {
          "address": "0x6edce65403992e310a62460808c4b910d972f10f",
          "topics": [
            "0xcd6f92f5ac6185a5acfa02c92090746cec64d777269cbcd0ed031e396657a1c2"
          ],
          "data": "0x0000000000000000000000000c832fee16d5a8bc99b888e16d3712e6bef96fb70000000000000000000000000000000000000000000000000000000000009d3500000000000000000000000012523de19dc41c91f7d2093e0cfbb76b17012c8d",
          "blockHash": "0x9ee90e7bface2b1a4db5b396f53f63bb6ab09ce866f1043f67004d66dcc0f705",
          "blockNumber": "0x239cadc",
          "blockTimestamp": "0x6986f498",
          "transactionHash": "0xfc645ece94f7e578f66c2deed698a566fb7d3e2ed24672101c69192c55506a15",
          "transactionIndex": "0x15",
          "logIndex": "0x8a",
          "removed": false
        },
        {
          "address": "0x6edce65403992e310a62460808c4b910d972f10f",
          "topics": [
            "0x4e0a5bbfa0c11a64effb1ada324b5437a17272e1aed9320398715ef71bb20928"
          ],
          "data": "0x0000000000000000000000000c832fee16d5a8bc99b888e16d3712e6bef96fb70000000000000000000000000000000000000000000000000000000000009d3500000000000000000000000000000000000000000000000000000000000000000000000000000000000000000000000000000000000000000000000000000000",
          "blockHash": "0x9ee90e7bface2b1a4db5b396f53f63bb6ab09ce866f1043f67004d66dcc0f705",
          "blockNumber": "0x239cadc",
          "blockTimestamp": "0x6986f498",
          "transactionHash": "0xfc645ece94f7e578f66c2deed698a566fb7d3e2ed24672101c69192c55506a15",
          "transactionIndex": "0x15",
          "logIndex": "0x8b",
          "removed": false
        }
      ],
      "logsBloom": "0x00000000000000000000020800000000000000000000000000000000000000020400000000000000200000000000000000000000000000000000000000000000000000000000000000000000000000000000000000800000000000000000000000000000000000000200000000000000000000000000000000000000000000100000000000000020000000000000000000000000000000000000000000000000000000000000000000000000000000000000000000000000000000000000000000000000000000000000000000000000000000000000000000000000000000000000000000000000000000000000000000000000000000000000000000000000",
      "type": "0x2",
      "transactionHash": "0xfc645ece94f7e578f66c2deed698a566fb7d3e2ed24672101c69192c55506a15",
      "transactionIndex": "0x15",
      "blockHash": "0x9ee90e7bface2b1a4db5b396f53f63bb6ab09ce866f1043f67004d66dcc0f705",
      "blockNumber": "0x239cadc",
      "gasUsed": "0xfba1",
      "effectiveGasPrice": "0x124f80",
      "blobGasUsed": "0x89b8",
      "from": "0x0ece75f3c36f7df2136dac7633165dbff53de3cd",
      "to": "0x6edce65403992e310a62460808c4b910d972f10f",
      "contractAddress": null,
      "daFootprintGasScalar": "0x138",
      "l1BaseFeeScalar": "0x44d",
      "l1BlobBaseFee": "0x3397f0e",
      "l1BlobBaseFeeScalar": "0xa118b",
      "l1Fee": "0x1737cdc21",
      "l1GasPrice": "0x40754a21",
      "l1GasUsed": "0x71d"
    },
    {
      "status": "0x1",
      "cumulativeGasUsed": "0x7a0d6f",
      "logs": [
        {
          "address": "0x6edce65403992e310a62460808c4b910d972f10f",
          "topics": [
            "0x4cff966ebee29a156dcb34cf72c1d06231fb1777f6bdf6e8089819232f002b1c"
          ],
          "data": "0x0000000000000000000000008f388874b0195ca2f9de3e85d17ee3efa0058b7c0000000000000000000000000000000000000000000000000000000000009d35000000000000000000000000c1868e054425d378095a003ecba3823a5d0135c9",
          "blockHash": "0x9ee90e7bface2b1a4db5b396f53f63bb6ab09ce866f1043f67004d66dcc0f705",
          "blockNumber": "0x239cadc",
          "blockTimestamp": "0x6986f498",
          "transactionHash": "0x16a6fc83670362333b24fa18be109f546878afa5bef23ace193a2f99445b9858",
          "transactionIndex": "0x16",
          "logIndex": "0x8c",
          "removed": false
        }
      ],
      "logsBloom": "0x00000000000000000000000000000000000200000000000000000000000000000000000000000000200000000000000000000000000000000000000001000000000000000000000000000000000000000000000000000000000000000000000000000000000000000200000000000000000000000000000000000000000000000000000000000020000000000000000000000000000000000000000000000000000000000000000000000000000000000000000000000000000000000000000000000000000000000000000000000000000000000000000000000000000000000040000000000000000000000000000000000000000000000000000000000000",
      "type": "0x2",
      "transactionHash": "0x16a6fc83670362333b24fa18be109f546878afa5bef23ace193a2f99445b9858",
      "transactionIndex": "0x16",
      "blockHash": "0x9ee90e7bface2b1a4db5b396f53f63bb6ab09ce866f1043f67004d66dcc0f705",
      "blockNumber": "0x239cadc",
      "gasUsed": "0xe182",
      "effectiveGasPrice": "0x124f80",
      "blobGasUsed": "0x8268",
      "from": "0x0ece75f3c36f7df2136dac7633165dbff53de3cd",
      "to": "0x6edce65403992e310a62460808c4b910d972f10f",
      "contractAddress": null,
      "daFootprintGasScalar": "0x138",
      "l1BaseFeeScalar": "0x44d",
      "l1BlobBaseFee": "0x3397f0e",
      "l1BlobBaseFeeScalar": "0xa118b",
      "l1Fee": "0x1606139ea",
      "l1GasPrice": "0x40754a21",
      "l1GasUsed": "0x6bf"
    },
    {
      "status": "0x1",
      "cumulativeGasUsed": "0x7aeef1",
      "logs": [
        {
          "address": "0x6edce65403992e310a62460808c4b910d972f10f",
          "topics": [
            "0x4cff966ebee29a156dcb34cf72c1d06231fb1777f6bdf6e8089819232f002b1c"
          ],
          "data": "0x0000000000000000000000008f388874b0195ca2f9de3e85d17ee3efa0058b7c0000000000000000000000000000000000000000000000000000000000009df2000000000000000000000000c1868e054425d378095a003ecba3823a5d0135c9",
          "blockHash": "0x9ee90e7bface2b1a4db5b396f53f63bb6ab09ce866f1043f67004d66dcc0f705",
          "blockNumber": "0x239cadc",
          "blockTimestamp": "0x6986f498",
          "transactionHash": "0x694cbdd5c86d9426c16d242df25850984b667bd45f92e533ca3e0a56021c20ac",
          "transactionIndex": "0x17",
          "logIndex": "0x8d",
          "removed": false
        }
      ],
      "logsBloom": "0x00000000000000000000000000000000000200000000000000000000000000000000000000000000200000000000000000000000000000000000000001000000000000000000000000000000000000000000000000000000000000000000000000000000000000000200000000000000000000000000000000000000000000000000000000000020000000000000000000000000000000000000000000000000000000000000000000000000000000000000000000000000000000000000000000000000000000000000000000000000000000000000000000000000000000000040000000000000000000000000000000000000000000000000000000000000",
      "type": "0x2",
      "transactionHash": "0x694cbdd5c86d9426c16d242df25850984b667bd45f92e533ca3e0a56021c20ac",
      "transactionIndex": "0x17",
      "blockHash": "0x9ee90e7bface2b1a4db5b396f53f63bb6ab09ce866f1043f67004d66dcc0f705",
      "blockNumber": "0x239cadc",
      "gasUsed": "0xe182",
      "effectiveGasPrice": "0x124f80",
      "blobGasUsed": "0x8268",
      "from": "0x0ece75f3c36f7df2136dac7633165dbff53de3cd",
      "to": "0x6edce65403992e310a62460808c4b910d972f10f",
      "contractAddress": null,
      "daFootprintGasScalar": "0x138",
      "l1BaseFeeScalar": "0x44d",
      "l1BlobBaseFee": "0x3397f0e",
      "l1BlobBaseFeeScalar": "0xa118b",
      "l1Fee": "0x1606139ea",
      "l1GasPrice": "0x40754a21",
      "l1GasUsed": "0x6bf"
    },
    {
      "status": "0x1",
      "cumulativeGasUsed": "0x7bea92",
      "logs": [
        {
          "address": "0x6edce65403992e310a62460808c4b910d972f10f",
          "topics": [
            "0xcd6f92f5ac6185a5acfa02c92090746cec64d777269cbcd0ed031e396657a1c2"
          ],
          "data": "0x0000000000000000000000008f388874b0195ca2f9de3e85d17ee3efa0058b7c0000000000000000000000000000000000000000000000000000000000009d3500000000000000000000000012523de19dc41c91f7d2093e0cfbb76b17012c8d",
          "blockHash": "0x9ee90e7bface2b1a4db5b396f53f63bb6ab09ce866f1043f67004d66dcc0f705",
          "blockNumber": "0x239cadc",
          "blockTimestamp": "0x6986f498",
          "transactionHash": "0x9eea2cbf7f82b375ae0a86e3afe92563498e31d755ff9948c0aa6b02659059f8",
          "transactionIndex": "0x18",
          "logIndex": "0x8e",
          "removed": false
        },
        {
          "address": "0x6edce65403992e310a62460808c4b910d972f10f",
          "topics": [
            "0x4e0a5bbfa0c11a64effb1ada324b5437a17272e1aed9320398715ef71bb20928"
          ],
          "data": "0x0000000000000000000000008f388874b0195ca2f9de3e85d17ee3efa0058b7c0000000000000000000000000000000000000000000000000000000000009d3500000000000000000000000000000000000000000000000000000000000000000000000000000000000000000000000000000000000000000000000000000000",
          "blockHash": "0x9ee90e7bface2b1a4db5b396f53f63bb6ab09ce866f1043f67004d66dcc0f705",
          "blockNumber": "0x239cadc",
          "blockTimestamp": "0x6986f498",
          "transactionHash": "0x9eea2cbf7f82b375ae0a86e3afe92563498e31d755ff9948c0aa6b02659059f8",
          "transactionIndex": "0x18",
          "logIndex": "0x8f",
          "removed": false
        }
      ],
      "logsBloom": "0x00000000000000000000020800000000000000000000000000000000000000020400000000000000200000000000000000000000000000000000000000000000000000000000000000000000000000000000000000800000000000000000000000000000000000000200000000000000000000000000000000000000000000100000000000000020000000000000000000000000000000000000000000000000000000000000000000000000000000000000000000000000000000000000000000000000000000000000000000000000000000000000000000000000000000000000000000000000000000000000000000000000000000000000000000000000",
      "type": "0x2",
      "transactionHash": "0x9eea2cbf7f82b375ae0a86e3afe92563498e31d755ff9948c0aa6b02659059f8",
      "transactionIndex": "0x18",
      "blockHash": "0x9ee90e7bface2b1a4db5b396f53f63bb6ab09ce866f1043f67004d66dcc0f705",
      "blockNumber": "0x239cadc",
      "gasUsed": "0xfba1",
      "effectiveGasPrice": "0x124f80",
      "blobGasUsed": "0x89b8",
      "from": "0x0ece75f3c36f7df2136dac7633165dbff53de3cd",
      "to": "0x6edce65403992e310a62460808c4b910d972f10f",
      "contractAddress": null,
      "daFootprintGasScalar": "0x138",
      "l1BaseFeeScalar": "0x44d",
      "l1BlobBaseFee": "0x3397f0e",
      "l1BlobBaseFeeScalar": "0xa118b",
      "l1Fee": "0x1737cdc21",
      "l1GasPrice": "0x40754a21",
      "l1GasUsed": "0x71d"
    },
    {
      "status": "0x1",
      "cumulativeGasUsed": "0x7ccc14",
      "logs": [
        {
          "address": "0x6edce65403992e310a62460808c4b910d972f10f",
          "topics": [
            "0x4cff966ebee29a156dcb34cf72c1d06231fb1777f6bdf6e8089819232f002b1c"
          ],
          "data": "0x000000000000000000000000427cc6c2359e2a2ababf7a45ce66ba82bb77b2820000000000000000000000000000000000000000000000000000000000009d35000000000000000000000000c1868e054425d378095a003ecba3823a5d0135c9",
          "blockHash": "0x9ee90e7bface2b1a4db5b396f53f63bb6ab09ce866f1043f67004d66dcc0f705",
          "blockNumber": "0x239cadc",
          "blockTimestamp": "0x6986f498",
          "transactionHash": "0x5dd8f09892003dcf78332506cd650a560ccf047504717b5d396920574c5f26c4",
          "transactionIndex": "0x19",
          "logIndex": "0x90",
          "removed": false
        }
      ],
      "logsBloom": "0x00000000000000000000000000000000000200000000000000000000000000000000000000000000200000000000000000000000000000000000000001000000000000000000000000000000000000000000000000000000000000000000000000000000000000000200000000000000000000000000000000000000000000000000000000000020000000000000000000000000000000000000000000000000000000000000000000000000000000000000000000000000000000000000000000000000000000000000000000000000000000000000000000000000000000000040000000000000000000000000000000000000000000000000000000000000",
      "type": "0x2",
      "transactionHash": "0x5dd8f09892003dcf78332506cd650a560ccf047504717b5d396920574c5f26c4",
      "transactionIndex": "0x19",
      "blockHash": "0x9ee90e7bface2b1a4db5b396f53f63bb6ab09ce866f1043f67004d66dcc0f705",
      "blockNumber": "0x239cadc",
      "gasUsed": "0xe182",
      "effectiveGasPrice": "0x124f80",
      "blobGasUsed": "0x8268",
      "from": "0x0ece75f3c36f7df2136dac7633165dbff53de3cd",
      "to": "0x6edce65403992e310a62460808c4b910d972f10f",
      "contractAddress": null,
      "daFootprintGasScalar": "0x138",
      "l1BaseFeeScalar": "0x44d",
      "l1BlobBaseFee": "0x3397f0e",
      "l1BlobBaseFeeScalar": "0xa118b",
      "l1Fee": "0x1606139ea",
      "l1GasPrice": "0x40754a21",
      "l1GasUsed": "0x6bf"
    },
    {
      "status": "0x1",
      "cumulativeGasUsed": "0x7dad96",
      "logs": [
        {
          "address": "0x6edce65403992e310a62460808c4b910d972f10f",
          "topics": [
            "0x4cff966ebee29a156dcb34cf72c1d06231fb1777f6bdf6e8089819232f002b1c"
          ],
          "data": "0x000000000000000000000000427cc6c2359e2a2ababf7a45ce66ba82bb77b2820000000000000000000000000000000000000000000000000000000000009df2000000000000000000000000c1868e054425d378095a003ecba3823a5d0135c9",
          "blockHash": "0x9ee90e7bface2b1a4db5b396f53f63bb6ab09ce866f1043f67004d66dcc0f705",
          "blockNumber": "0x239cadc",
          "blockTimestamp": "0x6986f498",
          "transactionHash": "0xff2016d77b0f77b3d178a0ad6f2cc591fb3eb0dc79679f409f399394f6b3e88d",
          "transactionIndex": "0x1a",
          "logIndex": "0x91",
          "removed": false
        }
      ],
      "logsBloom": "0x00000000000000000000000000000000000200000000000000000000000000000000000000000000200000000000000000000000000000000000000001000000000000000000000000000000000000000000000000000000000000000000000000000000000000000200000000000000000000000000000000000000000000000000000000000020000000000000000000000000000000000000000000000000000000000000000000000000000000000000000000000000000000000000000000000000000000000000000000000000000000000000000000000000000000000040000000000000000000000000000000000000000000000000000000000000",
      "type": "0x2",
      "transactionHash": "0xff2016d77b0f77b3d178a0ad6f2cc591fb3eb0dc79679f409f399394f6b3e88d",
      "transactionIndex": "0x1a",
      "blockHash": "0x9ee90e7bface2b1a4db5b396f53f63bb6ab09ce866f1043f67004d66dcc0f705",
      "blockNumber": "0x239cadc",
      "gasUsed": "0xe182",
      "effectiveGasPrice": "0x124f80",
      "blobGasUsed": "0x8268",
      "from": "0x0ece75f3c36f7df2136dac7633165dbff53de3cd",
      "to": "0x6edce65403992e310a62460808c4b910d972f10f",
      "contractAddress": null,
      "daFootprintGasScalar": "0x138",
      "l1BaseFeeScalar": "0x44d",
      "l1BlobBaseFee": "0x3397f0e",
      "l1BlobBaseFeeScalar": "0xa118b",
      "l1Fee": "0x1606139ea",
      "l1GasPrice": "0x40754a21",
      "l1GasUsed": "0x6bf"
    },
    {
      "status": "0x1",
      "cumulativeGasUsed": "0x1b037",
      "logs": [
        {
          "address": "0x6edce65403992e310a62460808c4b910d972f10f",
          "topics": [
            "0xcd6f92f5ac6185a5acfa02c92090746cec64d777269cbcd0ed031e396657a1c2"
          ],
          "data": "0x000000000000000000000000427cc6c2359e2a2ababf7a45ce66ba82bb77b2820000000000000000000000000000000000000000000000000000000000009d3500000000000000000000000012523de19dc41c91f7d2093e0cfbb76b17012c8d",
          "blockHash": "0x0000000000000000000000000000000000000000000000000000000000000000",
          "blockNumber": "0x239cadd",
          "blockTimestamp": "0x6986f49a",
          "transactionHash": "0x88417176579ea416ac57eeee9bb588531b66c87ba131f467015f95261aa811f4",
          "transactionIndex": "0x1",
          "logIndex": "0x0",
          "removed": false
        },
        {
          "address": "0x6edce65403992e310a62460808c4b910d972f10f",
          "topics": [
            "0x4e0a5bbfa0c11a64effb1ada324b5437a17272e1aed9320398715ef71bb20928"
          ],
          "data": "0x000000000000000000000000427cc6c2359e2a2ababf7a45ce66ba82bb77b2820000000000000000000000000000000000000000000000000000000000009d3500000000000000000000000000000000000000000000000000000000000000000000000000000000000000000000000000000000000000000000000000000000",
          "blockHash": "0x0000000000000000000000000000000000000000000000000000000000000000",
          "blockNumber": "0x239cadd",
          "blockTimestamp": "0x6986f49a",
          "transactionHash": "0x88417176579ea416ac57eeee9bb588531b66c87ba131f467015f95261aa811f4",
          "transactionIndex": "0x1",
          "logIndex": "0x1",
          "removed": false
        }
      ],
      "logsBloom": "0x00000000000000000000020800000000000000000000000000000000000000020400000000000000200000000000000000000000000000000000000000000000000000000000000000000000000000000000000000800000000000000000000000000000000000000200000000000000000000000000000000000000000000100000000000000020000000000000000000000000000000000000000000000000000000000000000000000000000000000000000000000000000000000000000000000000000000000000000000000000000000000000000000000000000000000000000000000000000000000000000000000000000000000000000000000000",
      "type": "0x2",
      "transactionHash": "0x88417176579ea416ac57eeee9bb588531b66c87ba131f467015f95261aa811f4",
      "transactionIndex": "0x1",
      "blockHash": "0x0000000000000000000000000000000000000000000000000000000000000000",
      "blockNumber": "0x239cadd",
      "gasUsed": "0xfba1",
      "effectiveGasPrice": "0x124f80",
      "blobGasUsed": "0x89b8",
      "from": "0x0ece75f3c36f7df2136dac7633165dbff53de3cd",
      "to": "0x6edce65403992e310a62460808c4b910d972f10f",
      "contractAddress": null,
      "daFootprintGasScalar": "0x138",
      "l1BaseFeeScalar": "0x44d",
      "l1BlobBaseFee": "0x3397f0e",
      "l1BlobBaseFeeScalar": "0xa118b",
      "l1Fee": "0x1737cdc21",
      "l1GasPrice": "0x40754a21",
      "l1GasUsed": "0x71d"
    }
  ],
  "libraries": [],
  "pending": [],
  "returns": {},
  "timestamp": 1770452121013,
  "chain": 84532,
  "commit": "6c28441"
}