{
  "transactions": [
    {
      "hash": "0xfa7441d2c13f57aa2516f42040a5c67585c8ea1049488d3f2bf489cf0b0deb04",
      "transactionType": "CALL",
      "contractName": null,
      "contractAddress": "0x6edce65403992e310a62460808c4b910d972f10f",
      "function": "setConfig(address,address,(uint32,uint32,bytes)[])",
      "arguments": [
        "0x0c832FeE16d5A8BC99B888E16D3712E6BEf96Fb7",
        "0xC1868e054425D378095A003EcbA3823a5D0135C9",
        "[(40245, 1, 0x00000000000000000000000000000000000000000000000000000000000027100000000000000000000000008a3d588d9f6ac041476b094f97ff94ec30169d3d), (40245, 2, 0x0000000000000000000000000000000000000000000000000000000000000020000000000000000000000000000000000000000000000000000000000000000f000000000000000000000000000000000000000000000000000000000000000100000000000000000000000000000000000000000000000000000000000000ff000000000000000000000000000000000000000000000000000000000000000000000000000000000000000000000000000000000000000000000000000000c000000000000000000000000000000000000000000000000000000000000001000000000000000000000000000000000000000000000000000000000000000001000000000000000000000000e1a12515f9ab2764b887bf60b923ca494ebbb2d60000000000000000000000000000000000000000000000000000000000000000), (40434, 1, 0x00000000000000000000000000000000000000000000000000000000000027100000000000000000000000008a3d588d9f6ac041476b094f97ff94ec30169d3d), (40434, 2, 0x0000000000000000000000000000000000000000000000000000000000000020000000000000000000000000000000000000000000000000000000000000000f000000000000000000000000000000000000000000000000000000000000000100000000000000000000000000000000000000000000000000000000000000ff000000000000000000000000000000000000000000000000000000000000000000000000000000000000000000000000000000000000000000000000000000c000000000000000000000000000000000000000000000000000000000000001000000000000000000000000000000000000000000000000000000000000000001000000000000000000000000e1a12515f9ab2764b887bf60b923ca494ebbb2d60000000000000000000000000000000000000000000000000000000000000000)]"
      ],
      "transaction": {
        "from": "0x0ece75f3c36f7df2136dac7633165dbff53de3cd",
        "to": "0x6edce65403992e310a62460808c4b910d972f10f",
        "gas": "0x56428",
        "value": "0x0",
        "input": "0x6dbd9f900000000000000000000000000c832fee16d5a8bc99b888e16d3712e6bef96fb7000000000000000000000000c1868e054425d378095a003ecba3823a5d0135c90000000000000000000000000000000000000000000000000000000000000060000000000000000000000000000000000000000000000000000000000000000400000000000000000000000000000000000000000000000000000000000000800000000000000000000000000000000000000000000000000000000000000140000000000000000000000000000000000000000000000000000000000000030000000000000000000000000000000000000000000000000000000000000003c00000000000000000000000000000000000000000000000000000000000009d3500000000000000000000000000000000000000000000000000000000000000010000000000000000000000000000000000000000000000000000000000000060000000000000000000000000000000000000000000000000000000000000004000000000000000000000000000000000000000000000000000000000000027100000000000000000000000008a3d588d9f6ac041476b094f97ff94ec30169d3d0000000000000000000000000000000000000000000000000000000000009d350000000000000000000000000000000000000000000000000000000000000002000000000000000000000000000000000000000000000000000000000000006000000000000000000000000000000000000000000000000000000000000001400000000000000000000000000000000000000000000000000000000000000020000000000000000000000000000000000000000000000000000000000000000f000000000000000000000000000000000000000000000000000000000000000100000000000000000000000000000000000000000000000000000000000000ff000000000000000000000000000000000000000000000000000000000000000000000000000000000000000000000000000000000000000000000000000000c000000000000000000000000000000000000000000000000000000000000001000000000000000000000000000000000000000000000000000000000000000001000000000000000000000000e1a12515f9ab2764b887bf60b923ca494ebbb2d600000000000000000000000000000000000000000000000000000000000000000000000000000000000000000000000000000000000000000000000000009df200000000000000000000000000000000000000000000000000000000000000010000000000000000000000000000000000000000000000000000000000000060000000000000000000000000000000000000000000000000000000000000004000000000000000000000000000000000000000000000000000000000000027100000000000000000000000008a3d588d9f6ac041476b094f97ff94ec30169d3d0000000000000000000000000000000000000000000000000000000000009df20000000000000000000000000000000000000000000000000000000000000002000000000000000000000000000000000000000000000000000000000000006000000000000000000000000000000000000000000000000000000000000001400000000000000000000000000000000000000000000000000000000000000020000000000000000000000000000000000000000000000000000000000000000f000000000000000000000000000000000000000000000000000000000000000100000000000000000000000000000000000000000000000000000000000000ff000000000000000000000000000000000000000000000000000000000000000000000000000000000000000000000000000000000000000000000000000000c000000000000000000000000000000000000000000000000000000000000001000000000000000000000000000000000000000000000000000000000000000001000000000000000000000000e1a12515f9ab2764b887bf60b923ca494ebbb2d60000000000000000000000000000000000000000000000000000000000000000",
        "nonce": "0x156",
        "chainId": "0x14a34"
      },
      "additionalContracts": [],
      "isFixedGasLimit": false
    },
    {
      "hash": "0x5ec0444d2782127ae42c2d70a218315f8a1880a968fc9c9a4f6e44ea9e319ca2",
      "transactionType": "CALL",
      "contractName": null,
      "contractAddress": "0x6edce65403992e310a62460808c4b910d972f10f",
      "function": "setConfig(address,address,(uint32,uint32,bytes)[])",
      "arguments": [
        "0x8f388874B0195CA2F9De3E85D17EE3EfA0058B7c",
        "0xC1868e054425D378095A003EcbA3823a5D0135C9",
        "[(40245, 1, 0x00000000000000000000000000000000000000000000000000000000000027100000000000000000000000008a3d588d9f6ac041476b094f97ff94ec30169d3d), (40245, 2, 0x0000000000000000000000000000000000000000000000000000000000000020000000000000000000000000000000000000000000000000000000000000000f000000000000000000000000000000000000000000000000000000000000000100000000000000000000000000000000000000000000000000000000000000ff000000000000000000000000000000000000000000000000000000000000000000000000000000000000000000000000000000000000000000000000000000c000000000000000000000000000000000000000000000000000000000000001000000000000000000000000000000000000000000000000000000000000000001000000000000000000000000e1a12515f9ab2764b887bf60b923ca494ebbb2d60000000000000000000000000000000000000000000000000000000000000000), (40434, 1, 0x00000000000000000000000000000000000000000000000000000000000027100000000000000000000000008a3d588d9f6ac041476b094f97ff94ec30169d3d), (40434, 2, 0x0000000000000000000000000000000000000000000000000000000000000020000000000000000000000000000000000000000000000000000000000000000f000000000000000000000000000000000000000000000000000000000000000100000000000000000000000000000000000000000000000000000000000000ff000000000000000000000000000000000000000000000000000000000000000000000000000000000000000000000000000000000000000000000000000000c000000000000000000000000000000000000000000000000000000000000001000000000000000000000000000000000000000000000000000000000000000001000000000000000000000000e1a12515f9ab2764b887bf60b923ca494ebbb2d60000000000000000000000000000000000000000000000000000000000000000)]"
      ],
      "transaction": {
        "from": "0x0ece75f3c36f7df2136dac7633165dbff53de3cd",
        "to": "0x6edce65403992e310a62460808c4b910d972f10f",
        "gas": "0x56428",
        "value": "0x0",
        "input": "0x6dbd9f900000000000000000000000008f388874b0195ca2f9de3e85d17ee3efa0058b7c000000000000000000000000c1868e054425d378095a003ecba3823a5d0135c90000000000000000000000000000000000000000000000000000000000000060000000000000000000000000000000000000000000000000000000000000000400000000000000000000000000000000000000000000000000000000000000800000000000000000000000000000000000000000000000000000000000000140000000000000000000000000000000000000000000000000000000000000030000000000000000000000000000000000000000000000000000000000000003c00000000000000000000000000000000000000000000000000000000000009d3500000000000000000000000000000000000000000000000000000000000000010000000000000000000000000000000000000000000000000000000000000060000000000000000000000000000000000000000000000000000000000000004000000000000000000000000000000000000000000000000000000000000027100000000000000000000000008a3d588d9f6ac041476b094f97ff94ec30169d3d0000000000000000000000000000000000000000000000000000000000009d350000000000000000000000000000000000000000000000000000000000000002000000000000000000000000000000000000000000000000000000000000006000000000000000000000000000000000000000000000000000000000000001400000000000000000000000000000000000000000000000000000000000000020000000000000000000000000000000000000000000000000000000000000000f000000000000000000000000000000000000000000000000000000000000000100000000000000000000000000000000000000000000000000000000000000ff000000000000000000000000000000000000000000000000000000000000000000000000000000000000000000000000000000000000000000000000000000c000000000000000000000000000000000000000000000000000000000000001000000000000000000000000000000000000000000000000000000000000000001000000000000000000000000e1a12515f9ab2764b887bf60b923ca494ebbb2d600000000000000000000000000000000000000000000000000000000000000000000000000000000000000000000000000000000000000000000000000009df200000000000000000000000000000000000000000000000000000000000000010000000000000000000000000000000000000000000000000000000000000060000000000000000000000000000000000000000000000000000000000000004000000000000000000000000000000000000000000000000000000000000027100000000000000000000000008a3d588d9f6ac041476b094f97ff94ec30169d3d0000000000000000000000000000000000000000000000000000000000009df20000000000000000000000000000000000000000000000000000000000000002000000000000000000000000000000000000000000000000000000000000006000000000000000000000000000000000000000000000000000000000000001400000000000000000000000000000000000000000000000000000000000000020000000000000000000000000000000000000000000000000000000000000000f000000000000000000000000000000000000000000000000000000000000000100000000000000000000000000000000000000000000000000000000000000ff000000000000000000000000000000000000000000000000000000000000000000000000000000000000000000000000000000000000000000000000000000c000000000000000000000000000000000000000000000000000000000000001000000000000000000000000000000000000000000000000000000000000000001000000000000000000000000e1a12515f9ab2764b887bf60b923ca494ebbb2d60000000000000000000000000000000000000000000000000000000000000000",
        "nonce": "0x157",
        "chainId": "0x14a34"
      },
      "additionalContracts": [],
      "isFixedGasLimit": false
    },
    {
      "hash": "0x498856c7c388cac2daaac7e98dfe2359cf5dd7bda1ee03339ae31cf87cc24543",
      "transactionType": "CALL",
      "contractName": null,
      "contractAddress": "0x6edce65403992e310a62460808c4b910d972f10f",
      "function": "setConfig(address,address,(uint32,uint32,bytes)[])",
      "arguments": [
        "0x427cc6C2359E2a2AbaBF7A45Ce66Ba82Bb77B282",
        "0xC1868e054425D378095A003EcbA3823a5D0135C9",
        "[(40245, 1, 0x00000000000000000000000000000000000000000000000000000000000027100000000000000000000000008a3d588d9f6ac041476b094f97ff94ec30169d3d), (40245, 2, 0x0000000000000000000000000000000000000000000000000000000000000020000000000000000000000000000000000000000000000000000000000000000f000000000000000000000000000000000000000000000000000000000000000100000000000000000000000000000000000000000000000000000000000000ff000000000000000000000000000000000000000000000000000000000000000000000000000000000000000000000000000000000000000000000000000000c000000000000000000000000000000000000000000000000000000000000001000000000000000000000000000000000000000000000000000000000000000001000000000000000000000000e1a12515f9ab2764b887bf60b923ca494ebbb2d60000000000000000000000000000000000000000000000000000000000000000), (40434, 1, 0x00000000000000000000000000000000000000000000000000000000000027100000000000000000000000008a3d588d9f6ac041476b094f97ff94ec30169d3d), (40434, 2, 0x0000000000000000000000000000000000000000000000000000000000000020000000000000000000000000000000000000000000000000000000000000000f000000000000000000000000000000000000000000000000000000000000000100000000000000000000000000000000000000000000000000000000000000ff000000000000000000000000000000000000000000000000000000000000000000000000000000000000000000000000000000000000000000000000000000c000000000000000000000000000000000000000000000000000000000000001000000000000000000000000000000000000000000000000000000000000000001000000000000000000000000e1a12515f9ab2764b887bf60b923ca494ebbb2d60000000000000000000000000000000000000000000000000000000000000000)]"
      ],
      "transaction": {
        "from": "0x0ece75f3c36f7df2136dac7633165dbff53de3cd",
        "to": "0x6edce65403992e310a62460808c4b910d972f10f",
        "gas": "0x56428",
        "value": "0x0",
        "input": "0x6dbd9f90000000000000000000000000427cc6c2359e2a2ababf7a45ce66ba82bb77b282000000000000000000000000c1868e054425d378095a003ecba3823a5d0135c90000000000000000000000000000000000000000000000000000000000000060000000000000000000000000000000000000000000000000000000000000000400000000000000000000000000000000000000000000000000000000000000800000000000000000000000000000000000000000000000000000000000000140000000000000000000000000000000000000000000000000000000000000030000000000000000000000000000000000000000000000000000000000000003c00000000000000000000000000000000000000000000000000000000000009d3500000000000000000000000000000000000000000000000000000000000000010000000000000000000000000000000000000000000000000000000000000060000000000000000000000000000000000000000000000000000000000000004000000000000000000000000000000000000000000000000000000000000027100000000000000000000000008a3d588d9f6ac041476b094f97ff94ec30169d3d0000000000000000000000000000000000000000000000000000000000009d350000000000000000000000000000000000000000000000000000000000000002000000000000000000000000000000000000000000000000000000000000006000000000000000000000000000000000000000000000000000000000000001400000000000000000000000000000000000000000000000000000000000000020000000000000000000000000000000000000000000000000000000000000000f000000000000000000000000000000000000000000000000000000000000000100000000000000000000000000000000000000000000000000000000000000ff000000000000000000000000000000000000000000000000000000000000000000000000000000000000000000000000000000000000000000000000000000c000000000000000000000000000000000000000000000000000000000000001000000000000000000000000000000000000000000000000000000000000000001000000000000000000000000e1a12515f9ab2764b887bf60b923ca494ebbb2d600000000000000000000000000000000000000000000000000000000000000000000000000000000000000000000000000000000000000000000000000009df200000000000000000000000000000000000000000000000000000000000000010000000000000000000000000000000000000000000000000000000000000060000000000000000000000000000000000000000000000000000000000000004000000000000000000000000000000000000000000000000000000000000027100000000000000000000000008a3d588d9f6ac041476b094f97ff94ec30169d3d0000000000000000000000000000000000000000000000000000000000009df20000000000000000000000000000000000000000000000000000000000000002000000000000000000000000000000000000000000000000000000000000006000000000000000000000000000000000000000000000000000000000000001400000000000000000000000000000000000000000000000000000000000000020000000000000000000000000000000000000000000000000000000000000000f000000000000000000000000000000000000000000000000000000000000000100000000000000000000000000000000000000000000000000000000000000ff000000000000000000000000000000000000000000000000000000000000000000000000000000000000000000000000000000000000000000000000000000c000000000000000000000000000000000000000000000000000000000000001000000000000000000000000000000000000000000000000000000000000000001000000000000000000000000e1a12515f9ab2764b887bf60b923ca494ebbb2d60000000000000000000000000000000000000000000000000000000000000000",
        "nonce": "0x158",
        "chainId": "0x14a34"
      },
      "additionalContracts": [],
      "isFixedGasLimit": false
    }
  ],
  "receipts": [
    {
      "status": "0x1",
      "cumulativeGasUsed": "0x4abea9",
      "logs": [
        {
          "address": "0xc1868e054425d378095a003ecba3823a5d0135c9",
          "topics": [
            "0x779cb2dd9d2bb1be1737d05435d744facbfb84a2a4912e21379d39beddcdc805"
          ],
          "data": "0x0000000000000000000000000c832fee16d5a8bc99b888e16d3712e6bef96fb70000000000000000000000000000000000000000000000000000000000009d3500000000000000000000000000000000000000000000000000000000000027100000000000000000000000008a3d588d9f6ac041476b094f97ff94ec30169d3d",
          "blockHash": "0x0000000000000000000000000000000000000000000000000000000000000000",
          "blockNumber": "0x239caee",
          "blockTimestamp": "0x6986f4bc",
          "transactionHash": "0x498856c7c388cac2daaac7e98dfe2359cf5dd7bda1ee03339ae31cf87cc24543",
          "transactionIndex": "0xa",
          "logIndex": "0x2e",
          "removed": false
        },
        {
          "address": "0xc1868e054425d378095a003ecba3823a5d0135c9",
          "topics": [
            "0x82118522aa536ac0e96cc5c689407ae42b89d592aa133890a01f1509842f5081"
          ],
          "data": "0x0000000000000000000000000c832fee16d5a8bc99b888e16d3712e6bef96fb70000000000000000000000000000000000000000000000000000000000009d350000000000000000000000000000000000000000000000000000000000000060000000000000000000000000000000000000000000000000000000000000000f000000000000000000000000000000000000000000000000000000000000000100000000000000000000000000000000000000000000000000000000000000ff000000000000000000000000000000000000000000000000000000000000000000000000000000000000000000000000000000000000000000000000000000c000000000000000000000000000000000000000000000000000000000000001000000000000000000000000000000000000000000000000000000000000000001000000000000000000000000e1a12515f9ab2764b887bf60b923ca494ebbb2d60000000000000000000000000000000000000000000000000000000000000000",
          "blockHash": "0x0000000000000000000000000000000000000000000000000000000000000000",
          "blockNumber": "0x239caee",
          "blockTimestamp": "0x6986f4bc",
          "transactionHash": "0x498856c7c388cac2daaac7e98dfe2359cf5dd7bda1ee03339ae31cf87cc24543",
          "transactionIndex": "0xa",
          "logIndex": "0x2f",
          "removed": false
        },
        {
          "address": "0xc1868e054425d378095a003ecba3823a5d0135c9",
          "topics": [
            "0x779cb2dd9d2bb1be1737d05435d744facbfb84a2a4912e21379d39beddcdc805"
          ],
          "data": "0x0000000000000000000000000c832fee16d5a8bc99b888e16d3712e6bef96fb70000000000000000000000000000000000000000000000000000000000009df200000000000000000000000000000000000000000000000000000000000027100000000000000000000000008a3d588d9f6ac041476b094f97ff94ec30169d3d",
          "blockHash": "0x0000000000000000000000000000000000000000000000000000000000000000",
          "blockNumber": "0x239caee",
          "blockTimestamp": "0x6986f4bc",
          "transactionHash": "0x498856c7c388cac2daaac7e98dfe2359cf5dd7bda1ee03339ae31cf87cc24543",
          "transactionIndex": "0xa",
          "logIndex": "0x30",
          "removed": false
        },
        {
          "address": "0xc1868e054425d378095a003ecba3823a5d0135c9",
          "topics": [
            "0x82118522aa536ac0e96cc5c689407ae42b89d592aa133890a01f1509842f5081"
          ],
          "data": "0x0000000000000000000000000c832fee16d5a8bc99b888e16d3712e6bef96fb70000000000000000000000000000000000000000000000000000000000009df20000000000000000000000000000000000000000000000000000000000000060000000000000000000000000000000000000000000000000000000000000000f000000000000000000000000000000000000000000000000000000000000000100000000000000000000000000000000000000000000000000000000000000ff000000000000000000000000000000000000000000000000000000000000000000000000000000000000000000000000000000000000000000000000000000c000000000000000000000000000000000000000000000000000000000000001000000000000000000000000000000000000000000000000000000000000000001000000000000000000000000e1a12515f9ab2764b887bf60b923ca494ebbb2d60000000000000000000000000000000000000000000000000000000000000000",
          "blockHash": "0x0000000000000000000000000000000000000000000000000000000000000000",
          "blockNumber": "0x239caee",
          "blockTimestamp": "0x6986f4bc",
          "transactionHash": "0x498856c7c388cac2daaac7e98dfe2359cf5dd7bda1ee03339ae31cf87cc24543",
          "transactionIndex": "0xa",
          "logIndex": "0x31",
          "removed": false
        }
      ],
      "logsBloom": "0x00000000000000000000000000000000000000000000000000000000000000000000000000000200000000000000000000000000000000000000000000000000000000000000000000000040000000000000000000000000002000020000000000000000000000000000000000000000000000000000000000000000000000000000000000000000000000000000000000000000000000000000000000000000000000000000000000000002000000000000000000000000000000000000000280000000000000000000000000000000000000000000000000000000000000000008000000000000000000000000000000000000000000000000000000000010",
      "type": "0x2",
      "transactionHash": "0x498856c7c388cac2daaac7e98dfe2359cf5dd7bda1ee03339ae31cf87cc24543",
      "transactionIndex": "0xa",
      "blockHash": "0x0000000000000000000000000000000000000000000000000000000000000000",
      "blockNumber": "0x239caee",
      "gasUsed": "0x3e736",
      "effectiveGasPrice": "0x124f80",
      "blobGasUsed": "0x14df0",
      "from": "0x0ece75f3c36f7df2136dac7633165dbff53de3cd",
      "to": "0x6edce65403992e310a62460808c4b910d972f10f",
      "contractAddress": null,
      "daFootprintGasScalar": "0x138",
      "l1BaseFeeScalar": "0x44d",
      "l1BlobBaseFee": "0x383a1a1",
      "l1BlobBaseFeeScalar": "0xa118b",
      "l1Fee": "0x16df2d81ef",
      "l1GasPrice": "0x3ef1d22a",
      "l1GasUsed": "0x1127"
    },
    {
      "status": "0x1",
      "cumulativeGasUsed": "0x4ea5df",
      "logs": [
        {
          "address": "0xc1868e054425d378095a003ecba3823a5d0135c9",
          "topics": [
            "0x779cb2dd9d2bb1be1737d05435d744facbfb84a2a4912e21379d39beddcdc805"
          ],
          "data": "0x0000000000000000000000008f388874b0195ca2f9de3e85d17ee3efa0058b7c0000000000000000000000000000000000000000000000000000000000009d3500000000000000000000000000000000000000000000000000000000000027100000000000000000000000008a3d588d9f6ac041476b094f97ff94ec30169d3d",
          "blockHash": "0x0000000000000000000000000000000000000000000000000000000000000000",
          "blockNumber": "0x239caee",
          "blockTimestamp": "0x6986f4bc",
          "transactionHash": "0x5ec0444d2782127ae42c2d70a218315f8a1880a968fc9c9a4f6e44ea9e319ca2",
          "transactionIndex": "0xb",
          "logIndex": "0x32",
          "removed": false
        },
        {
          "address": "0xc1868e054425d378095a003ecba3823a5d0135c9",
          "topics": [
            "0x82118522aa536ac0e96cc5c689407ae42b89d592aa133890a01f1509842f5081"
          ],
          "data": "0x0000000000000000000000008f388874b0195ca2f9de3e85d17ee3efa0058b7c0000000000000000000000000000000000000000000000000000000000009d350000000000000000000000000000000000000000000000000000000000000060000000000000000000000000000000000000000000000000000000000000000f000000000000000000000000000000000000000000000000000000000000000100000000000000000000000000000000000000000000000000000000000000ff000000000000000000000000000000000000000000000000000000000000000000000000000000000000000000000000000000000000000000000000000000c000000000000000000000000000000000000000000000000000000000000001000000000000000000000000000000000000000000000000000000000000000001000000000000000000000000e1a12515f9ab2764b887bf60b923ca494ebbb2d60000000000000000000000000000000000000000000000000000000000000000",
          "blockHash": "0x0000000000000000000000000000000000000000000000000000000000000000",
          "blockNumber": "0x239caee",
          "blockTimestamp": "0x6986f4bc",
          "transactionHash": "0x5ec0444d2782127ae42c2d70a218315f8a1880a968fc9c9a4f6e44ea9e319ca2",
          "transactionIndex": "0xb",
          "logIndex": "0x33",
          "removed": false
        },
        {
          "address": "0xc1868e054425d378095a003ecba3823a5d0135c9",
          "topics": [
            "0x779cb2dd9d2bb1be1737d05435d744facbfb84a2a4912e21379d39beddcdc805"
          ],
          "data": "0x0000000000000000000000008f388874b0195ca2f9de3e85d17ee3efa0058b7c0000000000000000000000000000000000000000000000000000000000009df200000000000000000000000000000000000000000000000000000000000027100000000000000000000000008a3d588d9f6ac041476b094f97ff94ec30169d3d",
          "blockHash": "0x0000000000000000000000000000000000000000000000000000000000000000",
          "blockNumber": "0x239caee",
          "blockTimestamp": "0x6986f4bc",
          "transactionHash": "0x5ec0444d2782127ae42c2d70a218315f8a1880a968fc9c9a4f6e44ea9e319ca2",
          "transactionIndex": "0xb",
          "logIndex": "0x34",
          "removed": false
        },
        {
          "address": "0xc1868e054425d378095a003ecba3823a5d0135c9",
          "topics": [
            "0x82118522aa536ac0e96cc5c689407ae42b89d592aa133890a01f1509842f5081"
          ],
          "data": "0x0000000000000000000000008f388874b0195ca2f9de3e85d17ee3efa0058b7c0000000000000000000000000000000000000000000000000000000000009df20000000000000000000000000000000000000000000000000000000000000060000000000000000000000000000000000000000000000000000000000000000f000000000000000000000000000000000000000000000000000000000000000100000000000000000000000000000000000000000000000000000000000000ff000000000000000000000000000000000000000000000000000000000000000000000000000000000000000000000000000000000000000000000000000000c000000000000000000000000000000000000000000000000000000000000001000000000000000000000000000000000000000000000000000000000000000001000000000000000000000000e1a12515f9ab2764b887bf60b923ca494ebbb2d60000000000000000000000000000000000000000000000000000000000000000",
          "blockHash": "0x0000000000000000000000000000000000000000000000000000000000000000",
          "blockNumber": "0x239caee",
          "blockTimestamp": "0x6986f4bc",
          "transactionHash": "0x5ec0444d2782127ae42c2d70a218315f8a1880a968fc9c9a4f6e44ea9e319ca2",
          "transactionIndex": "0xb",
          "logIndex": "0x35",
          "removed": false
        }
      ],
      "logsBloom": "0x00000000000000000000000000000000000000000000000000000000000000000000000000000200000000000000000000000000000000000000000000000000000000000000000000000040000000000000000000000000002000020000000000000000000000000000000000000000000000000000000000000000000000000000000000000000000000000000000000000000000000000000000000000000000000000000000000000002000000000000000000000000000000000000000280000000000000000000000000000000000000000000000000000000000000000008000000000000000000000000000000000000000000000000000000000010",
      "type": "0x2",
      "transactionHash": "0x5ec0444d2782127ae42c2d70a218315f8a1880a968fc9c9a4f6e44ea9e319ca2",
      "transactionIndex": "0xb",
      "blockHash": "0x0000000000000000000000000000000000000000000000000000000000000000",
      "blockNumber": "0x239caee",
      "gasUsed": "0x3e736",
      "effectiveGasPrice": "0x124f80",
      "blobGasUsed": "0x14df0",
      "from": "0x0ece75f3c36f7df2136dac7633165dbff53de3cd",
      "to": "0x6edce65403992e310a62460808c4b910d972f10f",
      "contractAddress": null,
      "daFootprintGasScalar": "0x138",
      "l1BaseFeeScalar": "0x44d",
      "l1BlobBaseFee": "0x383a1a1",
      "l1BlobBaseFeeScalar": "0xa118b",
      "l1Fee": "0x16df2d81ef",
      "l1GasPrice": "0x3ef1d22a",
      "l1GasUsed": "0x1127"
    },
    {
      "status": "0x1",
      "cumulativeGasUsed": "0x528d15",
      "logs": [
        {
          "address": "0xc1868e054425d378095a003ecba3823a5d0135c9",
          "topics": [
            "0x779cb2dd9d2bb1be1737d05435d744facbfb84a2a4912e21379d39beddcdc805"
          ],
          "data": "0x000000000000000000000000427cc6c2359e2a2ababf7a45ce66ba82bb77b2820000000000000000000000000000000000000000000000000000000000009d3500000000000000000000000000000000000000000000000000000000000027100000000000000000000000008a3d588d9f6ac041476b094f97ff94ec30169d3d",
          "blockHash": "0x0000000000000000000000000000000000000000000000000000000000000000",
          "blockNumber": "0x239caee",
          "blockTimestamp": "0x6986f4bc",
          "transactionHash": "0xfa7441d2c13f57aa2516f42040a5c67585c8ea1049488d3f2bf489cf0b0deb04",
          "transactionIndex": "0xc",
          "logIndex": "0x36",
          "removed": false
        },
        {
          "address": "0xc1868e054425d378095a003ecba3823a5d0135c9",
          "topics": [
            "0x82118522aa536ac0e96cc5c689407ae42b89d592aa133890a01f1509842f5081"
          ],
          "data": "0x000000000000000000000000427cc6c2359e2a2ababf7a45ce66ba82bb77b2820000000000000000000000000000000000000000000000000000000000009d350000000000000000000000000000000000000000000000000000000000000060000000000000000000000000000000000000000000000000000000000000000f000000000000000000000000000000000000000000000000000000000000000100000000000000000000000000000000000000000000000000000000000000ff000000000000000000000000000000000000000000000000000000000000000000000000000000000000000000000000000000000000000000000000000000c000000000000000000000000000000000000000000000000000000000000001000000000000000000000000000000000000000000000000000000000000000001000000000000000000000000e1a12515f9ab2764b887bf60b923ca494ebbb2d60000000000000000000000000000000000000000000000000000000000000000",
          "blockHash": "0x0000000000000000000000000000000000000000000000000000000000000000",
          "blockNumber": "0x239caee",
          "blockTimestamp": "0x6986f4bc",
          "transactionHash": "0xfa7441d2c13f57aa2516f42040a5c67585c8ea1049488d3f2bf489cf0b0deb04",
          "transactionIndex": "0xc",
          "logIndex": "0x37",
          "removed": false
        },
        {
          "address": "0xc1868e054425d378095a003ecba3823a5d0135c9",
          "topics": [
            "0x779cb2dd9d2bb1be1737d05435d744facbfb84a2a4912e21379d39beddcdc805"
          ],
          "data": "0x000000000000000000000000427cc6c2359e2a2ababf7a45ce66ba82bb77b2820000000000000000000000000000000000000000000000000000000000009df200000000000000000000000000000000000000000000000000000000000027100000000000000000000000008a3d588d9f6ac041476b094f97ff94ec30169d3d",
          "blockHash": "0x0000000000000000000000000000000000000000000000000000000000000000",
          "blockNumber": "0x239caee",
          "blockTimestamp": "0x6986f4bc",
          "transactionHash": "0xfa7441d2c13f57aa2516f42040a5c67585c8ea1049488d3f2bf489cf0b0deb04",
          "transactionIndex": "0xc",
          "logIndex": "0x38",
          "removed": false
        },
        {
          "address": "0xc1868e054425d378095a003ecba3823a5d0135c9",
          "topics": [
            "0x82118522aa536ac0e96cc5c689407ae42b89d592aa133890a01f1509842f5081"
          ],
          "data": "0x000000000000000000000000427cc6c2359e2a2ababf7a45ce66ba82bb77b2820000000000000000000000000000000000000000000000000000000000009df20000000000000000000000000000000000000000000000000000000000000060000000000000000000000000000000000000000000000000000000000000000f000000000000000000000000000000000000000000000000000000000000000100000000000000000000000000000000000000000000000000000000000000ff000000000000000000000000000000000000000000000000000000000000000000000000000000000000000000000000000000000000000000000000000000c000000000000000000000000000000000000000000000000000000000000001000000000000000000000000000000000000000000000000000000000000000001000000000000000000000000e1a12515f9ab2764b887bf60b923ca494ebbb2d60000000000000000000000000000000000000000000000000000000000000000",
          "blockHash": "0x0000000000000000000000000000000000000000000000000000000000000000",
          "blockNumber": "0x239caee",
          "blockTimestamp": "0x6986f4bc",
          "transactionHash": "0xfa7441d2c13f57aa2516f42040a5c67585c8ea1049488d3f2bf489cf0b0deb04",
          "transactionIndex": "0xc",
          "logIndex": "0x39",
          "removed": false
        }
      ],
      "logsBloom": "0x00000000000000000000000000000000000000000000000000000000000000000000000000000200000000000000000000000000000000000000000000000000000000000000000000000040000000000000000000000000002000020000000000000000000000000000000000000000000000000000000000000000000000000000000000000000000000000000000000000000000000000000000000000000000000000000000000000002000000000000000000000000000000000000000280000000000000000000000000000000000000000000000000000000000000000008000000000000000000000000000000000000000000000000000000000010",
      "type": "0x2",
      "transactionHash": "0xfa7441d2c13f57aa2516f42040a5c67585c8ea1049488d3f2bf489cf0b0deb04",
      "transactionIndex": "0xc",
      "blockHash": "0x0000000000000000000000000000000000000000000000000000000000000000",
      "blockNumber": "0x239caee",
      "gasUsed": "0x3e736",
      "effectiveGasPrice": "0x124f80",
      "blobGasUsed": "0x14df0",
      "from": "0x0ece75f3c36f7df2136dac7633165dbff53de3cd",
      "to": "0x6edce65403992e310a62460808c4b910d972f10f",
      "contractAddress": null,
      "daFootprintGasScalar": "0x138",
      "l1BaseFeeScalar": "0x44d",
      "l1BlobBaseFee": "0x383a1a1",
      "l1BlobBaseFeeScalar": "0xa118b",
      "l1Fee": "0x16df2d81ef",
      "l1GasPrice": "0x3ef1d22a",
      "l1GasUsed": "0x1127"
    }
  ],
  "libraries": [],
  "pending": [],
  "returns": {},
  "timestamp": 1770452155811,
  "chain": 84532,
  "commit": "6c28441"
}