{
  "transactions": [
    {
      "hash": "0x1601122a1ec494433f5ba0ca65ad8dd4abbca645d77e1ffa7837abe5ae57bc9c",
      "transactionType": "CALL",
      "contractName": null,
      "contractAddress": "0x6c7ab2202c98c4227c5c46f1417d81144da716ff",
      "function": "setSendLibrary(address,uint32,address)",
      "arguments": [
        "0x5C368bd6cE77b2ca47B4ba791fCC1f1645591c84",
        "40434",
        "0xd682ECF100f6F4284138AA925348633B0611Ae21"
      ],
      "transaction": {
        "from": "0x0ece75f3c36f7df2136dac7633165dbff53de3cd",
        "to": "0x6c7ab2202c98c4227c5c46f1417d81144da716ff",
        "gas": "0x149cd",
        "value": "0x0",
        "input": "0x9535ff300000000000000000000000005c368bd6ce77b2ca47b4ba791fcc1f1645591c840000000000000000000000000000000000000000000000000000000000009df2000000000000000000000000d682ecf100f6f4284138aa925348633b0611ae21",
        "nonce": "0xf",
        "chainId": "0x4cef52"
      },
      "additionalContracts": [],
      "isFixedGasLimit": false
    },
    {
      "hash": "0xfb78652f4ad4777a3703edbdde0e3c1bd3e2135a6d715a0a0962569298e72bbf",
      "transactionType": "CALL",
      "contractName": null,
      "contractAddress": "0x6c7ab2202c98c4227c5c46f1417d81144da716ff",
      "function": "setSendLibrary(address,uint32,address)",
      "arguments": [
        "0x5C368bd6cE77b2ca47B4ba791fCC1f1645591c84",
        "40245",
        "0xd682ECF100f6F4284138AA925348633B0611Ae21"
      ],
      "transaction": {
        "from": "0x0ece75f3c36f7df2136dac7633165dbff53de3cd",
        "to": "0x6c7ab2202c98c4227c5c46f1417d81144da716ff",
        "gas": "0x149cd",
        "value": "0x0",
        "input": "0x9535ff300000000000000000000000005c368bd6ce77b2ca47b4ba791fcc1f1645591c840000000000000000000000000000000000000000000000000000000000009d35000000000000000000000000d682ecf100f6f4284138aa925348633b0611ae21",
        "nonce": "0x10",
        "chainId": "0x4cef52"
      },
      "additionalContracts": [],
      "isFixedGasLimit": false
    },
    {
      "hash": "0xdd759114cdcc296ee418b6abf8f3cb144147696e8526877a2019609efbe051c3",
      "transactionType": "CALL",
      "contractName": null,
      "contractAddress": "0x6c7ab2202c98c4227c5c46f1417d81144da716ff",
      "function": "setReceiveLibrary(address,uint32,address,uint256)",
      "arguments": [
        "0x5C368bd6cE77b2ca47B4ba791fCC1f1645591c84",
        "40434",
        "0xcF1B0F4106B0324F96fEfcC31bA9498caa80701C",
        "0"
      ],
      "transaction": {
        "from": "0x0ece75f3c36f7df2136dac7633165dbff53de3cd",
        "to": "0x6c7ab2202c98c4227c5c46f1417d81144da716ff",
        "gas": "0x17001",
        "value": "0x0",
        "input": "0x6a14d7150000000000000000000000005c368bd6ce77b2ca47b4ba791fcc1f1645591c840000000000000000000000000000000000000000000000000000000000009df2000000000000000000000000cf1b0f4106b0324f96fefcc31ba9498caa80701c0000000000000000000000000000000000000000000000000000000000000000",
        "nonce": "0x11",
        "chainId": "0x4cef52"
      },
      "additionalContracts": [],
      "isFixedGasLimit": false
    },
    {
      "hash": "0xefe0b9fea1506a8eb9de959dd19835e5ccbcb856613dca31b7b417ec7c3f26de",
      "transactionType": "CALL",
      "contractName": null,
      "contractAddress": "0x6c7ab2202c98c4227c5c46f1417d81144da716ff",
      "function": "setSendLibrary(address,uint32,address)",
      "arguments": [
        "0x39926DA4905f5Edb956F5dB5F2e2FF044E0882B2",
        "40434",
        "0xd682ECF100f6F4284138AA925348633B0611Ae21"
      ],
      "transaction": {
        "from": "0x0ece75f3c36f7df2136dac7633165dbff53de3cd",
        "to": "0x6c7ab2202c98c4227c5c46f1417d81144da716ff",
        "gas": "0x149cd",
        "value": "0x0",
        "input": "0x9535ff3000000000000000000000000039926da4905f5edb956f5db5f2e2ff044e0882b20000000000000000000000000000000000000000000000000000000000009df2000000000000000000000000d682ecf100f6f4284138aa925348633b0611ae21",
        "nonce": "0x12",
        "chainId": "0x4cef52"
      },
      "additionalContracts": [],
      "isFixedGasLimit": false
    },
    {
      "hash": "0x08a2a777db972e5da4f0c5408b190c3ac4f41da79b8cdec1edd85c469e398848",
      "transactionType": "CALL",
      "contractName": null,
      "contractAddress": "0x6c7ab2202c98c4227c5c46f1417d81144da716ff",
      "function": "setSendLibrary(address,uint32,address)",
      "arguments": [
        "0x39926DA4905f5Edb956F5dB5F2e2FF044E0882B2",
        "40245",
        "0xd682ECF100f6F4284138AA925348633B0611Ae21"
      ],
      "transaction": {
        "from": "0x0ece75f3c36f7df2136dac7633165dbff53de3cd",
        "to": "0x6c7ab2202c98c4227c5c46f1417d81144da716ff",
        "gas": "0x149cd",
        "value": "0x0",
        "input": "0x9535ff3000000000000000000000000039926da4905f5edb956f5db5f2e2ff044e0882b20000000000000000000000000000000000000000000000000000000000009d35000000000000000000000000d682ecf100f6f4284138aa925348633b0611ae21",
        "nonce": "0x13",
        "chainId": "0x4cef52"
      },
      "additionalContracts": [],
      "isFixedGasLimit": false
    },
    {
      "hash": "0xdc714b6fb1bd1935f222ee27d7768f2284650a1adaa43616f7e4ffebb30fbad4",
      "transactionType": "CALL",
      "contractName": null,
      "contractAddress": "0x6c7ab2202c98c4227c5c46f1417d81144da716ff",
      "function": "setReceiveLibrary(address,uint32,address,uint256)",
      "arguments": [
        "0x39926DA4905f5Edb956F5dB5F2e2FF044E0882B2",
        "40434",
        "0xcF1B0F4106B0324F96fEfcC31bA9498caa80701C",
        "0"
      ],
      "transaction": {
        "from": "0x0ece75f3c36f7df2136dac7633165dbff53de3cd",
        "to": "0x6c7ab2202c98c4227c5c46f1417d81144da716ff",
        "gas": "0x17001",
        "value": "0x0",
        "input": "0x6a14d71500000000000000000000000039926da4905f5edb956f5db5f2e2ff044e0882b20000000000000000000000000000000000000000000000000000000000009df2000000000000000000000000cf1b0f4106b0324f96fefcc31ba9498caa80701c0000000000000000000000000000000000000000000000000000000000000000",
        "nonce": "0x14",
        "chainId": "0x4cef52"
      },
      "additionalContracts": [],
      "isFixedGasLimit": false
    },
    {
      "hash": "0xe318fc9fbca6b3157a551f7b6d2833498718394f00be177cc214de935e363c7b",
      "transactionType": "CALL",
      "contractName": null,
      "contractAddress": "0x6c7ab2202c98c4227c5c46f1417d81144da716ff",
      "function": "setSendLibrary(address,uint32,address)",
      "arguments": [
        "0x886ba47579DC4f5DcB53ffd20429089A7788C072",
        "40434",
        "0xd682ECF100f6F4284138AA925348633B0611Ae21"
      ],
      "transaction": {
        "from": "0x0ece75f3c36f7df2136dac7633165dbff53de3cd",
        "to": "0x6c7ab2202c98c4227c5c46f1417d81144da716ff",
        "gas": "0x149cd",
        "value": "0x0",
        "input": "0x9535ff30000000000000000000000000886ba47579dc4f5dcb53ffd20429089a7788c0720000000000000000000000000000000000000000000000000000000000009df2000000000000000000000000d682ecf100f6f4284138aa925348633b0611ae21",
        "nonce": "0x15",
        "chainId": "0x4cef52"
      },
      "additionalContracts": [],
      "isFixedGasLimit": false
    },
    {
      "hash": "0x00eba6cf1c875e3ff75de9bc62b730c7c9c03ea604ea1022eb1ee7938843905a",
      "transactionType": "CALL",
      "contractName": null,
      "contractAddress": "0x6c7ab2202c98c4227c5c46f1417d81144da716ff",
      "function": "setSendLibrary(address,uint32,address)",
      "arguments": [
        "0x886ba47579DC4f5DcB53ffd20429089A7788C072",
        "40245",
        "0xd682ECF100f6F4284138AA925348633B0611Ae21"
      ],
      "transaction": {
        "from": "0x0ece75f3c36f7df2136dac7633165dbff53de3cd",
        "to": "0x6c7ab2202c98c4227c5c46f1417d81144da716ff",
        "gas": "0x149cd",
        "value": "0x0",
        "input": "0x9535ff30000000000000000000000000886ba47579dc4f5dcb53ffd20429089a7788c0720000000000000000000000000000000000000000000000000000000000009d35000000000000000000000000d682ecf100f6f4284138aa925348633b0611ae21",
        "nonce": "0x16",
        "chainId": "0x4cef52"
      },
      "additionalContracts": [],
      "isFixedGasLimit": false
    },
    {
      "hash": "0xfbb934d01aa6b7a6c51167f92f463ec90d90d6cadc1bd52ff176381e95d9ba77",
      "transactionType": "CALL",
      "contractName": null,
      "contractAddress": "0x6c7ab2202c98c4227c5c46f1417d81144da716ff",
      "function": "setReceiveLibrary(address,uint32,address,uint256)",
      "arguments": [
        "0x886ba47579DC4f5DcB53ffd20429089A7788C072",
        "40434",
        "0xcF1B0F4106B0324F96fEfcC31bA9498caa80701C",
        "0"
      ],
      "transaction": {
        "from": "0x0ece75f3c36f7df2136dac7633165dbff53de3cd",
        "to": "0x6c7ab2202c98c4227c5c46f1417d81144da716ff",
        "gas": "0x17001",
        "value": "0x0",
        "input": "0x6a14d715000000000000000000000000886ba47579dc4f5dcb53ffd20429089a7788c0720000000000000000000000000000000000000000000000000000000000009df2000000000000000000000000cf1b0f4106b0324f96fefcc31ba9498caa80701c0000000000000000000000000000000000000000000000000000000000000000",
        "nonce": "0x17",
        "chainId": "0x4cef52"
      },
      "additionalContracts": [],
      "isFixedGasLimit": false
    }
  ],
  "receipts": [
    {
      "status": "0x1",
      "cumulativeGasUsed": "0x1f2a07",
      "logs": [
        {
          "address": "0x6c7ab2202c98c4227c5c46f1417d81144da716ff",
          "topics": [
            "0x4cff966ebee29a156dcb34cf72c1d06231fb1777f6bdf6e8089819232f002b1c"
          ],
          "data": "0x0000000000000000000000005c368bd6ce77b2ca47b4ba791fcc1f1645591c840000000000000000000000000000000000000000000000000000000000009df2000000000000000000000000d682ecf100f6f4284138aa925348633b0611ae21",
          "blockHash": "0x962b2efaa2ef666f49a9136365ab1a30b37a95b32ce4d409f7f79889e94de690",
          "blockNumber": "0x188deac",
          "blockTimestamp": "0x6986f15d",
          "transactionHash": "0xefe0b9fea1506a8eb9de959dd19835e5ccbcb856613dca31b7b417ec7c3f26de",
          "transactionIndex": "0xd",
          "logIndex": "0x29",
          "removed": false
        }
      ],
      "logsBloom": "0x00000000000000000000000000000000000200000000000000100000000000000000000000000000000000000000000000000000000000000000000001000000000000000000000000000000020000000000000000000000000000000000000000000000000000000000000000000000000000000000000000000000000000000000000000000000000000000000000000000000000000000000000000000000000000000000000000000000000000000000000400000000000000000000000000000000000000000000000000000000000000000000000000000000000000000040000000000000000000000000000000000000000000000000000000000000",
      "type": "0x2",
      "transactionHash": "0xefe0b9fea1506a8eb9de959dd19835e5ccbcb856613dca31b7b417ec7c3f26de",
      "transactionIndex": "0xd",
      "blockHash": "0x962b2efaa2ef666f49a9136365ab1a30b37a95b32ce4d409f7f79889e94de690",
      "blockNumber": "0x188deac",
      "gasUsed": "0xe182",
      "effectiveGasPrice": "0x4a81dcec8",
      "from": "0x0ece75f3c36f7df2136dac7633165dbff53de3cd",
      "to": "0x6c7ab2202c98c4227c5c46f1417d81144da716ff",
      "contractAddress": null
    },
    {
      "status": "0x1",
      "cumulativeGasUsed": "0x200b89",
      "logs": [
        {
          "address": "0x6c7ab2202c98c4227c5c46f1417d81144da716ff",
          "topics": [
            "0x4cff966ebee29a156dcb34cf72c1d06231fb1777f6bdf6e8089819232f002b1c"
          ],
          "data": "0x0000000000000000000000005c368bd6ce77b2ca47b4ba791fcc1f1645591c840000000000000000000000000000000000000000000000000000000000009d35000000000000000000000000d682ecf100f6f4284138aa925348633b0611ae21",
          "blockHash": "0x962b2efaa2ef666f49a9136365ab1a30b37a95b32ce4d409f7f79889e94de690",
          "blockNumber": "0x188deac",
          "blockTimestamp": "0x6986f15d",
          "transactionHash": "0xdd759114cdcc296ee418b6abf8f3cb144147696e8526877a2019609efbe051c3",
          "transactionIndex": "0xe",
          "logIndex": "0x2a",
          "removed": false
        }
      ],
      "logsBloom": "0x00000000000000000000000000000000000200000000000000100000000000000000000000000000000000000000000000000000000000000000000001000000000000000000000000000000020000000000000000000000000000000000000000000000000000000000000000000000000000000000000000000000000000000000000000000000000000000000000000000000000000000000000000000000000000000000000000000000000000000000000400000000000000000000000000000000000000000000000000000000000000000000000000000000000000000040000000000000000000000000000000000000000000000000000000000000",
      "type": "0x2",
      "transactionHash": "0xdd759114cdcc296ee418b6abf8f3cb144147696e8526877a2019609efbe051c3",
      "transactionIndex": "0xe",
      "blockHash": "0x962b2efaa2ef666f49a9136365ab1a30b37a95b32ce4d409f7f79889e94de690",
      "blockNumber": "0x188deac",
      "gasUsed": "0xe182",
      "effectiveGasPrice": "0x4a81dcec8",
      "from": "0x0ece75f3c36f7df2136dac7633165dbff53de3cd",
      "to": "0x6c7ab2202c98c4227c5c46f1417d81144da716ff",
      "contractAddress": null
    },
    {
      "status": "0x1",
      "cumulativeGasUsed": "0x21072a",
      "logs": [
        {
          "address": "0x6c7ab2202c98c4227c5c46f1417d81144da716ff",
          "topics": [
            "0xcd6f92f5ac6185a5acfa02c92090746cec64d777269cbcd0ed031e396657a1c2"
          ],
          "data": "0x0000000000000000000000005c368bd6ce77b2ca47b4ba791fcc1f1645591c840000000000000000000000000000000000000000000000000000000000009df2000000000000000000000000cf1b0f4106b0324f96fefcc31ba9498caa80701c",
          "blockHash": "0x962b2efaa2ef666f49a9136365ab1a30b37a95b32ce4d409f7f79889e94de690",
          "blockNumber": "0x188deac",
          "blockTimestamp": "0x6986f15d",
          "transactionHash": "0xfb78652f4ad4777a3703edbdde0e3c1bd3e2135a6d715a0a0962569298e72bbf",
          "transactionIndex": "0xf",
          "logIndex": "0x2b",
          "removed": false
        },
        {
          "address": "0x6c7ab2202c98c4227c5c46f1417d81144da716ff",
          "topics": [
            "0x4e0a5bbfa0c11a64effb1ada324b5437a17272e1aed9320398715ef71bb20928"
          ],
          "data": "0x0000000000000000000000005c368bd6ce77b2ca47b4ba791fcc1f1645591c840000000000000000000000000000000000000000000000000000000000009df200000000000000000000000000000000000000000000000000000000000000000000000000000000000000000000000000000000000000000000000000000000",
          "blockHash": "0x962b2efaa2ef666f49a9136365ab1a30b37a95b32ce4d409f7f79889e94de690",
          "blockNumber": "0x188deac",
          "blockTimestamp": "0x6986f15d",
          "transactionHash": "0xfb78652f4ad4777a3703edbdde0e3c1bd3e2135a6d715a0a0962569298e72bbf",
          "transactionIndex": "0xf",
          "logIndex": "0x2c",
          "removed": false
        }
      ],
      "logsBloom": "0x00000000000000000000020800000000000000000000000000100000000000020400000000000000000000000000000000000000000000000000000000000000000000000000000000000000020000000000000000800000000000000000000000000000000000000000000000000000000000000000000000000000000000100000000000000000000000000000000000000000000000000000000000000000000000000000000000000000000000000000000400000000000000000000000000000000000000000000000000000000000000000000000000000000000000000000000000000000000000000000000000000000000000000000000000000000",
      "type": "0x2",
      "transactionHash": "0xfb78652f4ad4777a3703edbdde0e3c1bd3e2135a6d715a0a0962569298e72bbf",
      "transactionIndex": "0xf",
      "blockHash": "0x962b2efaa2ef666f49a9136365ab1a30b37a95b32ce4d409f7f79889e94de690",
      "blockNumber": "0x188deac",
      "gasUsed": "0xfba1",
      "effectiveGasPrice": "0x4a81dcec8",
      "from": "0x0ece75f3c36f7df2136dac7633165dbff53de3cd",
      "to": "0x6c7ab2202c98c4227c5c46f1417d81144da716ff",
      "contractAddress": null
    },
    {
      "status": "0x1",
      "cumulativeGasUsed": "0x21e8ac",
      "logs": [
        {
          "address": "0x6c7ab2202c98c4227c5c46f1417d81144da716ff",
          "topics": [
            "0x4cff966ebee29a156dcb34cf72c1d06231fb1777f6bdf6e8089819232f002b1c"
          ],
          "data": "0x00000000000000000000000039926da4905f5edb956f5db5f2e2ff044e0882b20000000000000000000000000000000000000000000000000000000000009df2000000000000000000000000d682ecf100f6f4284138aa925348633b0611ae21",
          "blockHash": "0x962b2efaa2ef666f49a9136365ab1a30b37a95b32ce4d409f7f79889e94de690",
          "blockNumber": "0x188deac",
          "blockTimestamp": "0x6986f15d",
          "transactionHash": "0x1601122a1ec494433f5ba0ca65ad8dd4abbca645d77e1ffa7837abe5ae57bc9c",
          "transactionIndex": "0x10",
          "logIndex": "0x2d",
          "removed": false
        }
      ],
      "logsBloom": "0x00000000000000000000000000000000000200000000000000100000000000000000000000000000000000000000000000000000000000000000000001000000000000000000000000000000020000000000000000000000000000000000000000000000000000000000000000000000000000000000000000000000000000000000000000000000000000000000000000000000000000000000000000000000000000000000000000000000000000000000000400000000000000000000000000000000000000000000000000000000000000000000000000000000000000000040000000000000000000000000000000000000000000000000000000000000",
      "type": "0x2",
      "transactionHash": "0x1601122a1ec494433f5ba0ca65ad8dd4abbca645d77e1ffa7837abe5ae57bc9c",
      "transactionIndex": "0x10",
      "blockHash": "0x962b2efaa2ef666f49a9136365ab1a30b37a95b32ce4d409f7f79889e94de690",
      "blockNumber": "0x188deac",
      "gasUsed": "0xe182",
      "effectiveGasPrice": "0x4a81dcec8",
      "from": "0x0ece75f3c36f7df2136dac7633165dbff53de3cd",
      "to": "0x6c7ab2202c98c4227c5c46f1417d81144da716ff",
      "contractAddress": null
    },
    {
      "status": "0x1",
      "cumulativeGasUsed": "0x10451b",
      "logs": [
        {
          "address": "0x6c7ab2202c98c4227c5c46f1417d81144da716ff",
          "topics": [
            "0x4cff966ebee29a156dcb34cf72c1d06231fb1777f6bdf6e8089819232f002b1c"
          ],
          "data": "0x00000000000000000000000039926da4905f5edb956f5db5f2e2ff044e0882b20000000000000000000000000000000000000000000000000000000000009d35000000000000000000000000d682ecf100f6f4284138aa925348633b0611ae21",
          "blockHash": "0x6213132bea15b3fa48d7b1a41c991339fcad8cff42483b0cb02ace83558bd246",
          "blockNumber": "0x188dead",
          "blockTimestamp": "0x6986f15e",
          "transactionHash": "0xe318fc9fbca6b3157a551f7b6d2833498718394f00be177cc214de935e363c7b",
          "transactionIndex": "0xf",
          "logIndex": "0x1a",
          "removed": false
        }
      ],
      "logsBloom": "0x00000000000000000000000000000000000200000000000000100000000000000000000000000000000000000000000000000000000000000000000001000000000000000000000000000000020000000000000000000000000000000000000000000000000000000000000000000000000000000000000000000000000000000000000000000000000000000000000000000000000000000000000000000000000000000000000000000000000000000000000400000000000000000000000000000000000000000000000000000000000000000000000000000000000000000040000000000000000000000000000000000000000000000000000000000000",
      "type": "0x2",
      "transactionHash": "0xe318fc9fbca6b3157a551f7b6d2833498718394f00be177cc214de935e363c7b",
      "transactionIndex": "0xf",
      "blockHash": "0x6213132bea15b3fa48d7b1a41c991339fcad8cff42483b0cb02ace83558bd246",
      "blockNumber": "0x188dead",
      "gasUsed": "0xe182",
      "effectiveGasPrice": "0x4a81dcec8",
      "from": "0x0ece75f3c36f7df2136dac7633165dbff53de3cd",
      "to": "0x6c7ab2202c98c4227c5c46f1417d81144da716ff",
      "contractAddress": null
    },
    {
      "status": "0x1",
      "cumulativeGasUsed": "0x1140bc",
      "logs": [
        {
          "address": "0x6c7ab2202c98c4227c5c46f1417d81144da716ff",
          "topics": [
            "0xcd6f92f5ac6185a5acfa02c92090746cec64d777269cbcd0ed031e396657a1c2"
          ],
          "data": "0x00000000000000000000000039926da4905f5edb956f5db5f2e2ff044e0882b20000000000000000000000000000000000000000000000000000000000009df2000000000000000000000000cf1b0f4106b0324f96fefcc31ba9498caa80701c",
          "blockHash": "0x6213132bea15b3fa48d7b1a41c991339fcad8cff42483b0cb02ace83558bd246",
          "blockNumber": "0x188dead",
          "blockTimestamp": "0x6986f15e",
          "transactionHash": "0x00eba6cf1c875e3ff75de9bc62b730c7c9c03ea604ea1022eb1ee7938843905a",
          "transactionIndex": "0x10",
          "logIndex": "0x1b",
          "removed": false
        },
        {
          "address": "0x6c7ab2202c98c4227c5c46f1417d81144da716ff",
          "topics": [
            "0x4e0a5bbfa0c11a64effb1ada324b5437a17272e1aed9320398715ef71bb20928"
          ],
          "data": "0x00000000000000000000000039926da4905f5edb956f5db5f2e2ff044e0882b20000000000000000000000000000000000000000000000000000000000009df200000000000000000000000000000000000000000000000000000000000000000000000000000000000000000000000000000000000000000000000000000000",
          "blockHash": "0x6213132bea15b3fa48d7b1a41c991339fcad8cff42483b0cb02ace83558bd246",
          "blockNumber": "0x188dead",
          "blockTimestamp": "0x6986f15e",
          "transactionHash": "0x00eba6cf1c875e3ff75de9bc62b730c7c9c03ea604ea1022eb1ee7938843905a",
          "transactionIndex": "0x10",
          "logIndex": "0x1c",
          "removed": false
        }
      ],
      "logsBloom": "0x00000000000000000000020800000000000000000000000000100000000000020400000000000000000000000000000000000000000000000000000000000000000000000000000000000000020000000000000000800000000000000000000000000000000000000000000000000000000000000000000000000000000000100000000000000000000000000000000000000000000000000000000000000000000000000000000000000000000000000000000400000000000000000000000000000000000000000000000000000000000000000000000000000000000000000000000000000000000000000000000000000000000000000000000000000000",
      "type": "0x2",
      "transactionHash": "0x00eba6cf1c875e3ff75de9bc62b730c7c9c03ea604ea1022eb1ee7938843905a",
      "transactionIndex": "0x10",
      "blockHash": "0x6213132bea15b3fa48d7b1a41c991339fcad8cff42483b0cb02ace83558bd246",
      "blockNumber": "0x188dead",
      "gasUsed": "0xfba1",
      "effectiveGasPrice": "0x4a81dcec8",
      "from": "0x0ece75f3c36f7df2136dac7633165dbff53de3cd",
      "to": "0x6c7ab2202c98c4227c5c46f1417d81144da716ff",
      "contractAddress": null
    },
    {
      "status": "0x1",
      "cumulativeGasUsed": "0x12223e",
      "logs": [
        {
          "address": "0x6c7ab2202c98c4227c5c46f1417d81144da716ff",
          "topics": [
            "0x4cff966ebee29a156dcb34cf72c1d06231fb1777f6bdf6e8089819232f002b1c"
          ],
          "data": "0x000000000000000000000000886ba47579dc4f5dcb53ffd20429089a7788c0720000000000000000000000000000000000000000000000000000000000009df2000000000000000000000000d682ecf100f6f4284138aa925348633b0611ae21",
          "blockHash": "0x6213132bea15b3fa48d7b1a41c991339fcad8cff42483b0cb02ace83558bd246",
          "blockNumber": "0x188dead",
          "blockTimestamp": "0x6986f15e",
          "transactionHash": "0xfbb934d01aa6b7a6c51167f92f463ec90d90d6cadc1bd52ff176381e95d9ba77",
          "transactionIndex": "0x11",
          "logIndex": "0x1d",
          "removed": false
        }
      ],
      "logsBloom": "0x00000000000000000000000000000000000200000000000000100000000000000000000000000000000000000000000000000000000000000000000001000000000000000000000000000000020000000000000000000000000000000000000000000000000000000000000000000000000000000000000000000000000000000000000000000000000000000000000000000000000000000000000000000000000000000000000000000000000000000000000400000000000000000000000000000000000000000000000000000000000000000000000000000000000000000040000000000000000000000000000000000000000000000000000000000000",
      "type": "0x2",
      "transactionHash": "0xfbb934d01aa6b7a6c51167f92f463ec90d90d6cadc1bd52ff176381e95d9ba77",
      "transactionIndex": "0x11",
      "blockHash": "0x6213132bea15b3fa48d7b1a41c991339fcad8cff42483b0cb02ace83558bd246",
      "blockNumber": "0x188dead",
      "gasUsed": "0xe182",
      "effectiveGasPrice": "0x4a81dcec8",
      "from": "0x0ece75f3c36f7df2136dac7633165dbff53de3cd",
      "to": "0x6c7ab2202c98c4227c5c46f1417d81144da716ff",
      "contractAddress": null
    },
    {
      "status": "0x1",
      "cumulativeGasUsed": "0x1303c0",
      "logs": [
        {
          "address": "0x6c7ab2202c98c4227c5c46f1417d81144da716ff",
          "topics": [
            "0x4cff966ebee29a156dcb34cf72c1d06231fb1777f6bdf6e8089819232f002b1c"
          ],
          "data": "0x000000000000000000000000886ba47579dc4f5dcb53ffd20429089a7788c0720000000000000000000000000000000000000000000000000000000000009d35000000000000000000000000d682ecf100f6f4284138aa925348633b0611ae21",
          "blockHash": "0x6213132bea15b3fa48d7b1a41c991339fcad8cff42483b0cb02ace83558bd246",
          "blockNumber": "0x188dead",
          "blockTimestamp": "0x6986f15e",
          "transactionHash": "0x08a2a777db972e5da4f0c5408b190c3ac4f41da79b8cdec1edd85c469e398848",
          "transactionIndex": "0x12",
          "logIndex": "0x1e",
          "removed": false
        }
      ],
      "logsBloom": "0x00000000000000000000000000000000000200000000000000100000000000000000000000000000000000000000000000000000000000000000000001000000000000000000000000000000020000000000000000000000000000000000000000000000000000000000000000000000000000000000000000000000000000000000000000000000000000000000000000000000000000000000000000000000000000000000000000000000000000000000000400000000000000000000000000000000000000000000000000000000000000000000000000000000000000000040000000000000000000000000000000000000000000000000000000000000",
      "type": "0x2",
      "transactionHash": "0x08a2a777db972e5da4f0c5408b190c3ac4f41da79b8cdec1edd85c469e398848",
      "transactionIndex": "0x12",
      "blockHash": "0x6213132bea15b3fa48d7b1a41c991339fcad8cff42483b0cb02ace83558bd246",
      "blockNumber": "0x188dead",
      "gasUsed": "0xe182",
      "effectiveGasPrice": "0x4a81dcec8",
      "from": "0x0ece75f3c36f7df2136dac7633165dbff53de3cd",
      "to": "0x6c7ab2202c98c4227c5c46f1417d81144da716ff",
      "contractAddress": null
    },
    {
      "status": "0x1",
      "cumulativeGasUsed": "0x13ff61",
      "logs": [
        {
          "address": "0x6c7ab2202c98c4227c5c46f1417d81144da716ff",
          "topics": [
            "0xcd6f92f5ac6185a5acfa02c92090746cec64d777269cbcd0ed031e396657a1c2"
          ],
          "data": "0x000000000000000000000000886ba47579dc4f5dcb53ffd20429089a7788c0720000000000000000000000000000000000000000000000000000000000009df2000000000000000000000000cf1b0f4106b0324f96fefcc31ba9498caa80701c",
          "blockHash": "0x6213132bea15b3fa48d7b1a41c991339fcad8cff42483b0cb02ace83558bd246",
          "blockNumber": "0x188dead",
          "blockTimestamp": "0x6986f15e",
          "transactionHash": "0xdc714b6fb1bd1935f222ee27d7768f2284650a1adaa43616f7e4ffebb30fbad4",
          "transactionIndex": "0x13",
          "logIndex": "0x1f",
          "removed": false
        },
        {
          "address": "0x6c7ab2202c98c4227c5c46f1417d81144da716ff",
          "topics": [
            "0x4e0a5bbfa0c11a64effb1ada324b5437a17272e1aed9320398715ef71bb20928"
          ],
          "data": "0x000000000000000000000000886ba47579dc4f5dcb53ffd20429089a7788c0720000000000000000000000000000000000000000000000000000000000009df200000000000000000000000000000000000000000000000000000000000000000000000000000000000000000000000000000000000000000000000000000000",
          "blockHash": "0x6213132bea15b3fa48d7b1a41c991339fcad8cff42483b0cb02ace83558bd246",
          "blockNumber": "0x188dead",
          "blockTimestamp": "0x6986f15e",
          "transactionHash": "0xdc714b6fb1bd1935f222ee27d7768f2284650a1adaa43616f7e4ffebb30fbad4",
          "transactionIndex": "0x13",
          "logIndex": "0x20",
          "removed": false
        }
      ],
      "logsBloom": "0x00000000000000000000020800000000000000000000000000100000000000020400000000000000000000000000000000000000000000000000000000000000000000000000000000000000020000000000000000800000000000000000000000000000000000000000000000000000000000000000000000000000000000100000000000000000000000000000000000000000000000000000000000000000000000000000000000000000000000000000000400000000000000000000000000000000000000000000000000000000000000000000000000000000000000000000000000000000000000000000000000000000000000000000000000000000",
      "type": "0x2",
      "transactionHash": "0xdc714b6fb1bd1935f222ee27d7768f2284650a1adaa43616f7e4ffebb30fbad4",
      "transactionIndex": "0x13",
      "blockHash": "0x6213132bea15b3fa48d7b1a41c991339fcad8cff42483b0cb02ace83558bd246",
      "blockNumber": "0x188dead",
      "gasUsed": "0xfba1",
      "effectiveGasPrice": "0x4a81dcec8",
      "from": "0x0ece75f3c36f7df2136dac7633165dbff53de3cd",
      "to": "0x6c7ab2202c98c4227c5c46f1417d81144da716ff",
      "contractAddress": null
    }
  ],
  "libraries": [],
  "pending": [],
  "returns": {},
  "timestamp": 1770451295057,
  "chain": 5042002,
  "commit": "6c28441"
}