{
  "transactions": [
    {
      "hash": "0x8a0dd7e604bfade60ac4de5152f3d632d5033014e16f09b7fee7fa468d0a1ef3",
      "transactionType": "CALL",
      "contractName": null,
      "contractAddress": "0xb0fca55167f94d0f515877c411e0deb904321761",
      "function": "setOftAddress(address,address)",
      "arguments": [
        "0xdF05e9AbF64dA281B3cBd8aC3581022eC4841FB2",
        "0x5C368bd6cE77b2ca47B4ba791fCC1f1645591c84"
      ],
      "transaction": {
        "from": "0x0ece75f3c36f7df2136dac7633165dbff53de3cd",
        "to": "0xb0fca55167f94d0f515877c411e0deb904321761",
        "gas": "0x13381",
        "value": "0x0",
        "input": "0xf09a0d6b000000000000000000000000df05e9abf64da281b3cbd8ac3581022ec4841fb20000000000000000000000005c368bd6ce77b2ca47b4ba791fcc1f1645591c84",
        "nonce": "0x57",
        "chainId": "0x4cef52"
      },
      "additionalContracts": [],
      "isFixedGasLimit": false
    },
    {
      "hash": "0xca8c81fab4c8dcdab65702758ca8adc32241629938d9380739462c56e6702d4a",
      "transactionType": "CALL",
      "contractName": null,
      "contractAddress": "0xb0fca55167f94d0f515877c411e0deb904321761",
      "function": "setOftAddress(address,address)",
      "arguments": [
        "0x04C37dc1b538E00b31e6bc883E16d97cD7937a10",
        "0x39926DA4905f5Edb956F5dB5F2e2FF044E0882B2"
      ],
      "transaction": {
        "from": "0x0ece75f3c36f7df2136dac7633165dbff53de3cd",
        "to": "0xb0fca55167f94d0f515877c411e0deb904321761",
        "gas": "0x13381",
        "value": "0x0",
        "input": "0xf09a0d6b00000000000000000000000004c37dc1b538e00b31e6bc883e16d97cd7937a1000000000000000000000000039926da4905f5edb956f5db5f2e2ff044e0882b2",
        "nonce": "0x58",
        "chainId": "0x4cef52"
      },
      "additionalContracts": [],
      "isFixedGasLimit": false
    },
    {
      "hash": "0x6524c4c965af8d5af516d11996ab53484d5b1c6d31f488e7c0198e730d74da88",
      "transactionType": "CALL",
      "contractName": null,
      "contractAddress": "0xb0fca55167f94d0f515877c411e0deb904321761",
      "function": "setOftAddress(address,address)",
      "arguments": [
        "0x15858A57854BBf0DF60A737811d50e1Ee785f9bc",
        "0x886ba47579DC4f5DcB53ffd20429089A7788C072"
      ],
      "transaction": {
        "from": "0x0ece75f3c36f7df2136dac7633165dbff53de3cd",
        "to": "0xb0fca55167f94d0f515877c411e0deb904321761",
        "gas": "0x13381",
        "value": "0x0",
        "input": "0xf09a0d6b00000000000000000000000015858a57854bbf0df60a737811d50e1ee785f9bc000000000000000000000000886ba47579dc4f5dcb53ffd20429089a7788c072",
        "nonce": "0x59",
        "chainId": "0x4cef52"
      },
      "additionalContracts": [],
      "isFixedGasLimit": false
    }
  ],
  "receipts": [
    {
      "status": "0x1",
      "cumulativeGasUsed": "0x169fbf",
      "logs": [
        {
          "address": "0xb0fca55167f94d0f515877c411e0deb904321761",
          "topics": [
            "0x443eca89ae0d91090321746b66b1e5a800bf4f33b317a7dbc01dc310b55c3291",
            "0x000000000000000000000000df05e9abf64da281b3cbd8ac3581022ec4841fb2",
            "0x0000000000000000000000005c368bd6ce77b2ca47b4ba791fcc1f1645591c84"
          ],
          "data": "0x",
          "blockHash": "0xb9b65d514bfd79be2e70c7b9d4971dd4c5a0a8d5e5e2023890f4be255612ba9b",
          "blockNumber": "0x188fea9",
          "blockTimestamp": "0x69870165",
          "transactionHash": "0x8a0dd7e604bfade60ac4de5152f3d632d5033014e16f09b7fee7fa468d0a1ef3",
          "transactionIndex": "0x10",
          "logIndex": "0x2e",
          "removed": false
        }
      ],
      "logsBloom": "0x00000000000000000000000000000000040000000000000000000080000000000000000000000000000000000000000000000000000000000000000000000000000000000000000000000000000002000000000000000000000800000000000000000000000000000000000000000000000000000000000000000000000000000000000000000000000000000000000000004000000000000000004000000000100000000000000000000000000000000000100200000000000000000000000000004000000000000000000000000000000000000000000000000000200000000000000040000000000000000000000000000000000000000000000000000000",
      "type": "0x2",
      "transactionHash": "0x8a0dd7e604bfade60ac4de5152f3d632d5033014e16f09b7fee7fa468d0a1ef3",
      "transactionIndex": "0x10",
      "blockHash": "0xb9b65d514bfd79be2e70c7b9d4971dd4c5a0a8d5e5e2023890f4be255612ba9b",
      "blockNumber": "0x188fea9",
      "gasUsed": "0xd243",
      "effectiveGasPrice": "0x4a8190f26",
      "from": "0x0ece75f3c36f7df2136dac7633165dbff53de3cd",
      "to": "0xb0fca55167f94d0f515877c411e0deb904321761",
      "contractAddress": null
    },
    {
      "status": "0x1",
      "cumulativeGasUsed": "0x177202",
      "logs": [
        {
          "address": "0xb0fca55167f94d0f515877c411e0deb904321761",
          "topics": [
            "0x443eca89ae0d91090321746b66b1e5a800bf4f33b317a7dbc01dc310b55c3291",
            "0x00000000000000000000000004c37dc1b538e00b31e6bc883e16d97cd7937a10",
            "0x00000000000000000000000039926da4905f5edb956f5db5f2e2ff044e0882b2"
          ],
          "data": "0x",
          "blockHash": "0xb9b65d514bfd79be2e70c7b9d4971dd4c5a0a8d5e5e2023890f4be255612ba9b",
          "blockNumber": "0x188fea9",
          "blockTimestamp": "0x69870165",
          "transactionHash": "0x6524c4c965af8d5af516d11996ab53484d5b1c6d31f488e7c0198e730d74da88",
          "transactionIndex": "0x11",
          "logIndex": "0x2f",
          "removed": false
        }
      ],
      "logsBloom": "0x00000000000000000000000000000000040000000000000000000000000000000000000000000000080000000000000000000000000000000000000000000000000000000000000000000000000002000000000000000000000800000000000000000000000000000000000000001000000000000800000000000000000000000008000000000000000000000000000000004000000000000000000000000010000000000000000000000000000000000000100000000000000000000000000000000000000000000000000000000000000000000000020000000000000000000000000040000000000000000000000000000000000000000000000000000000",
      "type": "0x2",
      "transactionHash": "0x6524c4c965af8d5af516d11996ab53484d5b1c6d31f488e7c0198e730d74da88",
      "transactionIndex": "0x11",
      "blockHash": "0xb9b65d514bfd79be2e70c7b9d4971dd4c5a0a8d5e5e2023890f4be255612ba9b",
      "blockNumber": "0x188fea9",
      "gasUsed": "0xd243",
      "effectiveGasPrice": "0x4a8190f26",
      "from": "0x0ece75f3c36f7df2136dac7633165dbff53de3cd",
      "to": "0xb0fca55167f94d0f515877c411e0deb904321761",
      "contractAddress": null
    },
    {
      "status": "0x1",
      "cumulativeGasUsed": "0x184445",
      "logs": [
        {
          "address": "0xb0fca55167f94d0f515877c411e0deb904321761",
          "topics": [
            "0x443eca89ae0d91090321746b66b1e5a800bf4f33b317a7dbc01dc310b55c3291",
            "0x00000000000000000000000015858a57854bbf0df60a737811d50e1ee785f9bc",
            "0x000000000000000000000000886ba47579dc4f5dcb53ffd20429089a7788c072"
          ],
          "data": "0x",
          "blockHash": "0xb9b65d514bfd79be2e70c7b9d4971dd4c5a0a8d5e5e2023890f4be255612ba9b",
          "blockNumber": "0x188fea9",
          "blockTimestamp": "0x69870165",
          "transactionHash": "0xca8c81fab4c8dcdab65702758ca8adc32241629938d9380739462c56e6702d4a",
          "transactionIndex": "0x12",
          "logIndex": "0x30",
          "removed": false
        }
      ],
      "logsBloom": "0x00000000000000000000000200000000040000000000000000000000000000000000000000000000000100000000000000000000000000000000000000000000000000000000000000000000000002000000000000000000000800000000000000000000000000000000000000000000000000000000000000000000000000000000000000000000000000000000000000004000000000000000000000000000000000000000000000000000000008000000100000000000000000000000000000000000000000000000000000000000000000000000800000100000000000000000000040000000000000000000000000000000000100000000000000000000",
      "type": "0x2",
      "transactionHash": "0xca8c81fab4c8dcdab65702758ca8adc32241629938d9380739462c56e6702d4a",
      "transactionIndex": "0x12",
      "blockHash": "0xb9b65d514bfd79be2e70c7b9d4971dd4c5a0a8d5e5e2023890f4be255612ba9b",
      "blockNumber": "0x188fea9",
      "gasUsed": "0xd243",
      "effectiveGasPrice": "0x4a8190f26",
      "from": "0x0ece75f3c36f7df2136dac7633165dbff53de3cd",
      "to": "0xb0fca55167f94d0f515877c411e0deb904321761",
      "contractAddress": null
    }
  ],
  "libraries": [],
  "pending": [],
  "returns": {},
  "timestamp": 1770455398941,
  "chain": 5042002,
  "commit": "6c28441"
}