{
  "transactions": [
    {
      "hash": "0x41d346502b4635441f5f64e4c7f6a5f771d66504addad7fd33e8613124c341b8",
      "transactionType": "CALL",
      "contractName": null,
      "contractAddress": "0xb0fca55167f94d0f515877c411e0deb904321761",
      "function": "setOperator(address,bool)",
      "arguments": [
        "0xb0FCA55167f94D0f515877C411E0deb904321761",
        "true"
      ],
      "transaction": {
        "from": "0x0ece75f3c36f7df2136dac7633165dbff53de3cd",
        "to": "0xb0fca55167f94d0f515877c411e0deb904321761",
        "gas": "0x12143",
        "value": "0x0",
        "input": "0x558a7297000000000000000000000000b0fca55167f94d0f515877c411e0deb9043217610000000000000000000000000000000000000000000000000000000000000001",
        "nonce": "0x4d",
        "chainId": "0x4cef52"
      },
      "additionalContracts": [],
      "isFixedGasLimit": false
    },
    {
      "hash": "0x7b1065e1b0a1e57bb6d53b05102b3994d0a48cf96fbad24e3301b8b7a460e1d8",
      "transactionType": "CALL",
      "contractName": null,
      "contractAddress": "0xb0fca55167f94d0f515877c411e0deb904321761",
      "function": "setTokenDataStream(address)",
      "arguments": [
        "0xE2e025Ff8a8adB2561e3C631B5a03842b9A1Ae88"
      ],
      "transaction": {
        "from": "0x0ece75f3c36f7df2136dac7633165dbff53de3cd",
        "to": "0xb0fca55167f94d0f515877c411e0deb904321761",
        "gas": "0x12dd4",
        "value": "0x0",
        "input": "0x9cc8b2d1000000000000000000000000e2e025ff8a8adb2561e3c631b5a03842b9a1ae88",
        "nonce": "0x4e",
        "chainId": "0x4cef52"
      },
      "additionalContracts": [],
      "isFixedGasLimit": false
    },
    {
      "hash": "0xf027fa2b07456ed8fef13f977e9386aa8b72a49df3db14ed759cb1750a549651",
      "transactionType": "CALL",
      "contractName": null,
      "contractAddress": "0xb0fca55167f94d0f515877c411e0deb904321761",
      "function": "setInterestRateModel(address)",
      "arguments": [
        "0x46dA9F76c20a752132dDaefD2B14870e0A152D71"
      ],
      "transaction": {
        "from": "0x0ece75f3c36f7df2136dac7633165dbff53de3cd",
        "to": "0xb0fca55167f94d0f515877c411e0deb904321761",
        "gas": "0x12db2",
        "value": "0x0",
        "input": "0x8bcd401600000000000000000000000046da9f76c20a752132ddaefd2b14870e0a152d71",
        "nonce": "0x4f",
        "chainId": "0x4cef52"
      },
      "additionalContracts": [],
      "isFixedGasLimit": false
    }
  ],
  "receipts": [
    {
      "status": "0x1",
      "cumulativeGasUsed": "0x1aee9d",
      "logs": [
        {
          "address": "0xb0fca55167f94d0f515877c411e0deb904321761",
          "topics": [
            "0x1a594081ae893ab78e67d9b9e843547318164322d32c65369d78a96172d9dc8f",
            "0x000000000000000000000000b0fca55167f94d0f515877c411e0deb904321761"
          ],
          "data": "0x0000000000000000000000000000000000000000000000000000000000000001",
          "blockHash": "0x2d197f80880108def5490751df8b4f5432c2ab1f177945e49e59ba15bc7832ac",
          "blockNumber": "0x188fc9f",
          "blockTimestamp": "0x69870060",
          "transactionHash": "0x41d346502b4635441f5f64e4c7f6a5f771d66504addad7fd33e8613124c341b8",
          "transactionIndex": "0xc",
          "logIndex": "0x1f",
          "removed": false
        }
      ],
      "logsBloom": "0x00000000000000000000000000000000040000000000000000000000000000000000000000000000000000000000000000000000000000000000000000000000000000000000000000000000000002000000000000000000000000000000000000000000000000000000000000000008000000000000000000000000000000000000000000000000000000000000000000000000000000000000000000000000000000000000000000000000000000000000000000000000000000008000008000000000000000000000000008000000000000000000000000000000000000000000000040000000000000000000080000000000000000000010000000000000",
      "type": "0x2",
      "transactionHash": "0x41d346502b4635441f5f64e4c7f6a5f771d66504addad7fd33e8613124c341b8",
      "transactionIndex": "0xc",
      "blockHash": "0x2d197f80880108def5490751df8b4f5432c2ab1f177945e49e59ba15bc7832ac",
      "blockNumber": "0x188fc9f",
      "gasUsed": "0xd16d",
      "effectiveGasPrice": "0x4a8190f26",
      "from": "0x0ece75f3c36f7df2136dac7633165dbff53de3cd",
      "to": "0xb0fca55167f94d0f515877c411e0deb904321761",
      "contractAddress": null
    },
    {
      "status": "0x1",
      "cumulativeGasUsed": "0x1bbcfe",
      "logs": [
        {
          "address": "0xb0fca55167f94d0f515877c411e0deb904321761",
          "topics": [
            "0x0a79aff962cc9e0a3ce8d1f62271362cbf066d9d0ffc588f0f90940b1fe41955",
            "0x000000000000000000000000e2e025ff8a8adb2561e3c631b5a03842b9a1ae88"
          ],
          "data": "0x",
          "blockHash": "0x2d197f80880108def5490751df8b4f5432c2ab1f177945e49e59ba15bc7832ac",
          "blockNumber": "0x188fc9f",
          "blockTimestamp": "0x69870060",
          "transactionHash": "0xf027fa2b07456ed8fef13f977e9386aa8b72a49df3db14ed759cb1750a549651",
          "transactionIndex": "0xd",
          "logIndex": "0x20",
          "removed": false
        }
      ],
      "logsBloom": "0x00000000000000000000000000000000040000000000000000000000000000000000000000000001000000000000000000000000000000000000000000000000000000000000000000000000000002000000000000000000000000000000000000000000000000000000000000000000000000000000000000010000000000000000000000000000000000000000000000000000000000000000000000000000000000000000000000000000000000000000000400000000000000020000000000000000000000000000008000000001000000000000000000000000000000000000000040000000000000000000000000000000000000000000000000000000",
      "type": "0x2",
      "transactionHash": "0xf027fa2b07456ed8fef13f977e9386aa8b72a49df3db14ed759cb1750a549651",
      "transactionIndex": "0xd",
      "blockHash": "0x2d197f80880108def5490751df8b4f5432c2ab1f177945e49e59ba15bc7832ac",
      "blockNumber": "0x188fc9f",
      "gasUsed": "0xce61",
      "effectiveGasPrice": "0x4a8190f26",
      "from": "0x0ece75f3c36f7df2136dac7633165dbff53de3cd",
      "to": "0xb0fca55167f94d0f515877c411e0deb904321761",
      "contractAddress": null
    },
    {
      "status": "0x1",
      "cumulativeGasUsed": "0x1c8b48",
      "logs": [
        {
          "address": "0xb0fca55167f94d0f515877c411e0deb904321761",
          "topics": [
            "0x7902cd1307c545e3f5782172612372bf997a93698917ced12b2f83d86e347d0c",
            "0x00000000000000000000000046da9f76c20a752132ddaefd2b14870e0a152d71"
          ],
          "data": "0x",
          "blockHash": "0x2d197f80880108def5490751df8b4f5432c2ab1f177945e49e59ba15bc7832ac",
          "blockNumber": "0x188fc9f",
          "blockTimestamp": "0x69870060",
          "transactionHash": "0x7b1065e1b0a1e57bb6d53b05102b3994d0a48cf96fbad24e3301b8b7a460e1d8",
          "transactionIndex": "0xe",
          "logIndex": "0x21",
          "removed": false
        }
      ],
      "logsBloom": "0x00000000000000000000000000000000040000000000000000000000000000000000000000000000000000000000000000000000000000000000000000000000000000000000000010000000000002000000000000000000000000000000000000080000000000000000000400000000000000000000000000000000000000000000000000000000000000000000000000000000000000000000000000000000000000000000000000008000000000000000000000000000000000000004000000000000000000000000000000000000000000000000000000000000000000000000000040000000000000000000000000000000000000000000000200000000",
      "type": "0x2",
      "transactionHash": "0x7b1065e1b0a1e57bb6d53b05102b3994d0a48cf96fbad24e3301b8b7a460e1d8",
      "transactionIndex": "0xe",
      "blockHash": "0x2d197f80880108def5490751df8b4f5432c2ab1f177945e49e59ba15bc7832ac",
      "blockNumber": "0x188fc9f",
      "gasUsed": "0xce4a",
      "effectiveGasPrice": "0x4a8190f26",
      "from": "0x0ece75f3c36f7df2136dac7633165dbff53de3cd",
      "to": "0xb0fca55167f94d0f515877c411e0deb904321761",
      "contractAddress": null
    }
  ],
  "libraries": [],
  "pending": [],
  "returns": {},
  "timestamp": 1770455136432,
  "chain": 5042002,
  "commit": "6c28441"
}